:100000000C942A000C9447000C9447000C94470071
:100010000C9447000C9447000C9447000C94360A4B
:100020000C9447000C9447000C9447000C94470034
:100030000C9447000C9447000C9447000C94470024
:100040000C9447000C9447000C9447000C94470014
:100050000C94470011241FBECFE5D8E0DEBFCDBF12
:1000600010E0A0E6B0E0ECE8FBE202C005900D92E3
:10007000A836B107D9F714E0A8E6B0E001C01D9298
:10008000A73EB107E1F70E942D070C94C4150C940C
:100090000000DF93CF93CDB7DEB728970FB6F89463
:1000A000DEBF0FBECDBF8A836B834C8319828B81E9
:1000B000883008F0F4C08C81882309F077C08A81E9
:1000C000282F30E038872F838F81988581309105E4
:1000D00059F12F813885223031052CF48F81988594
:1000E000009769F060C02F8138852230310589F191
:1000F0008F8198858330910509F440C054C0ABE3EB
:10010000B0E0EBE3F0E08081482F8B81282F30E0D6
:1001100081E090E0022E02C0880F991F0A94E2F756
:10012000809584238C93BDC0A8E3B0E0E8E3F0E0C1
:100130008081482F8B81282F30E081E090E0022ED3
:1001400002C0880F991F0A94E2F7809584238C934C
:10015000A8C0A5E3B0E0E5E3F0E08081482F8B8103
:10016000282F30E081E090E0022E02C0880F991F16
:100170000A94E2F7809584238C9393C0A2E3B0E0C5
:10018000E2E3F0E08081482F8B81282F30E081E08E
:1001900090E0022E02C0880F991F0A94E2F7809522
:1001A00084238C937EC081E089837BC08C818130E5
:1001B00009F072C08A81282F30E03E832D838D8123
:1001C0009E818130910549F12D813E81223031059A
:1001D0002CF48D819E81009761F05BC02D813E8162
:1001E0002230310571F18D819E8183309105E9F1D5
:1001F00050C0ABE3B0E0EBE3F0E08081482F8B81AF
:10020000282F30E081E090E0022E02C0880F991F75
:100210000A94E2F7842B8C9344C0A8E3B0E0E8E3AF
:10022000F0E08081482F8B81282F30E081E090E042
:10023000022E02C0880F991F0A94E2F7842B8C9338
:1002400030C0A5E3B0E0E5E3F0E08081482F8B818A
:10025000282F30E081E090E0022E02C0880F991F25
:100260000A94E2F7842B8C931CC0A2E3B0E0E2E393
:10027000F0E08081482F8B81282F30E081E090E0F2
:10028000022E02C0880F991F0A94E2F7842B8C93E8
:1002900008C081E0898305C081E0898302C081E0D4
:1002A0008983898128960FB6F894DEBF0FBECDBF33
:1002B000CF91DF910895DF93CF9300D000D00F92BC
:1002C000CDB7DEB78A836B8319828A818430B0F51B
:1002D0008A81282F30E03D832C838C819D81813061
:1002E0009105D1F02C813D81223031052CF48C8197
:1002F0009D81009761F01FC02C813D812230310526
:1003000081F08C819D818330910581F014C0EBE3F5
:10031000F0E08B81808314C0E8E3F0E08B81808380
:100320000FC0E5E3F0E08B8180830AC0E2E3F0E0F8
:100330008B81808305C081E0898302C081E089834D
:1003400089810F900F900F900F900F90CF91DF91B8
:100350000895DF93CF93CDB7DEB727970FB6F89404
:10036000DEBF0FBECDBF8A836B835D834C83198252
:100370008C819D81009709F478C08B81883008F0CA
:1003800074C08A81282F30E03F832E834E815F81A5
:100390004130510559F18E819F818230910534F4AD
:1003A0002E813F812115310569F05CC04E815F814E
:1003B0004230510579F18E819F818330910509F496
:1003C0003DC050C0E9E3F0E08081282F30E08B8110
:1003D000882F90E0A90102C0559547958A95E2F7CC
:1003E000CA018170EC81FD81808341C0E6E3F0E0C9
:1003F0008081282F30E08B81882F90E0A90102C0F6
:10040000559547958A95E2F7CA018170EC81FD8187
:1004100080832DC0E3E3F0E08081282F30E08B81E2
:10042000882F90E0A90102C0559547958A95E2F77B
:10043000CA018170EC81FD81808319C0E0E3F0E0A6
:100440008081282F30E08B81882F90E0A90102C0A5
:10045000559547958A95E2F7CA018170EC81FD8137
:10046000808305C081E0898302C081E0898389811E
:1004700027960FB6F894DEBF0FBECDBFCF91DF91A8
:100480000895DF93CF9300D000D00F92CDB7DEB7A1
:100490008A836B8319828A81282F30E03D832C83E5
:1004A0008C819D8181309105E1F02C813D8122304C
:1004B00031052CF48C819D81009761F026C02C8140
:1004C0003D8122303105A1F08C819D8183309105E1
:1004D000B1F01BC0EBE3F0E090818B81892389832D
:1004E00014C0E8E3F0E090818B81892389830DC0FB
:1004F000E5E3F0E090818B818923898306C0E2E304
:10050000F0E090818B818923898389810F900F90FE
:100510000F900F900F90CF91DF910895DF93CF93BD
:10052000CDB7DEB7EAE3F0E01082E7E3F0E0108257
:10053000E4E3F0E087E08083E1E3F0E01082EBE3C6
:10054000F0E01082E8E3F0E01082E5E3F0E01082F2
:10055000E2E3F0E01082CF91DF910895DF93CF9333
:10056000CDB7DEB727970FB6F894DEBF0FBECDBF6D
:100570009D838C836E834F838AE190E00E94860581
:100580009A83898389819A81009709F46FC0809149
:10059000680090916900009741F489819A81909355
:1005A0006900809368000E9415058E81823010F0EA
:1005B00081E08E83E981FA81118E108EE981FA81C2
:1005C0008E81868BE981FA818F81878BE981FA811F
:1005D0008C819D819183808389819A8102960E947A
:1005E0001C0689819A810C960E941C06E981FA8179
:1005F00089819A8191878087E981FA8189819A81AD
:10060000938B828B8E81282F30E084E090E0821BD8
:10061000930BE981FA8195878487E981FA8196892C
:1006200080916A00891728F4E981FA81868980938C
:100630006A00E981FA818689282F30E0C901880F94
:10064000991F880F991F880F991F820F931FAC0164
:100650004F585F4F89819A819C012E5F3F4FCA019D
:10066000B9010E942C0681E08B8302C08FEF8B833F
:100670008B8127960FB6F894DEBF0FBECDBFCF910A
:10068000DF910895DF93CF9300D000D000D0CDB795
:10069000DEB79C838B837E836D8320916B003091CA
:1006A0006C008B819C81820F931F9A838983809138
:1006B00068009091690002960E94E406E09168004B
:1006C000F091690089819A819383828320916B00E4
:1006D00030916C0089819A818217930770F4809120
:1006E00097009091980020916800309169002E5FEA
:1006F0003F4FB9010E9478060DC0809195009091FE
:10070000960020916800309169002E5F3F4FB9013B
:100710000E9478068D819E81009761F0809168002B
:10072000909169009C01245F3F4F8D819E81B901AA
:100730000E94780626960FB6F894DEBF0FBECDBF96
:10074000CF91DF910895DF93CF9300D0CDB7DEB77F
:100750003AC0F894E0919E00F0919F0086819781C5
:100760009A83898389819A810C960E94E406789401
:1007700089819A8102960E94E406E981FA8196892C
:1007800080916A00891728F4E981FA81868980932B
:100790006A00E981FA818689282F30E0C901880F33
:1007A000991F880F991F880F991F820F931FAC0103
:1007B0004F585F4F89819A819C012E5F3F4FCA013C
:1007C000B9010E942C0680919900882309F0C1CFBD
:1007D0000F900F90CF91DF910895DF93CF9300D0CA
:1007E00000D0CDB7DEB70E948C1120916D00309102
:1007F0006E00821B930B9093700080936F0085C0F6
:1008000080916B0090916C00019690936C008093A6
:100810006B0080916F009091700001979093700031
:1008200080936F0080916B0090916C00009709F0AD
:1008300064C080919500909196009A8389838091FD
:1008400097009091980090939600809395008981ED
:100850009A8190939800809397004FC0E091950003
:10086000F09196000580F681E02D868197819C832A
:100870008B83EB81FC812281338180916B0090918D
:100880006C008217930708F440C0F8948B819C8118
:1008900002960E94E406EB81FC8184899589009789
:1008A00029F08B819C810C960E94E4067894EB8160
:1008B000FC81968980916A00891728F4EB81FC817C
:1008C000868980936A00EB81FC818689282F30E03D
:1008D000C901880F991F880F991F880F991F820FD0
:1008E000931FAC014F585F4F8B819C819C012E5F01
:1008F0003F4FCA01B9010E942C06E0919500F0918A
:1009000096008081882309F0A9CF80916F00909193
:100910007000009709F074CF80916B0090916C008B
:1009200090936E0080936D000F900F900F900F903A
:10093000CF91DF910895DF93CF9300D0CDB7DEB78D
:100940000E94A3030E94ED030AC080916A008823DD
:1009500009F466C080916A00815080936A0080919A
:100960006A00282F30E0C901880F991F880F991F4E
:10097000880F991F820F931FFC01EF58FF4F808152
:10098000882319F380916A00282F30E0C901880F6D
:10099000991F880F991F880F991F820F931F8F58D7
:1009A0009F4F9A838983E981FA810180F281E02D4A
:1009B00082819381E981FA8192838183E981FA813D
:1009C0002181328189819A8103962817390759F448
:1009D000E981FA810180F281E02D82819381E981B0
:1009E000FA8192838183E981FA810180F281E02D8D
:1009F000868197819093690080936800E0916800F8
:100A0000F091690040815181809168009091690066
:100A1000E0916800F09169002789622FFA01099539
:100A20000F900F90CF91DF910895DF93CF930F92A6
:100A3000CDB7DEB7198213C08981282F30E0C901F4
:100A4000880F991F880F991F880F991F820F931F76
:100A50008F589F4F0E94F20589818F5F898389811A
:100A6000823050F383E890E00E94F2058CE890E039
:100A70000E94F20589E990E00E94F20583E890E087
:100A800090939600809395008CE890E09093980066
:100A9000809397000F90CF91DF910895DF93CF93CC
:100AA00000D000D00F92CDB7DEB79D838C83EC8150
:100AB000FD810580F681E02D868197819B838A8365
:100AC0008A819B810C960E94E4068A819B819C010D
:100AD000245F3F4F89E990E0B9010E942C06EA812A
:100AE000FB819689E0916800F091690086899817EA
:100AF00018F081E0898301C0198289810F900F90DD
:100B00000F900F900F90CF91DF910895DF93CF93C7
:100B100000D000D0CDB7DEB79C838B831A821982B8
:100B20000E94F6108091A2009091A3002B813C813D
:100B3000820F931F23E0883E920718F52091A200B0
:100B40003091A3008B819C81280F391F8091A200D6
:100B50009091A30082179307A0F48091A200909136
:100B6000A3008C559F4F9A8389832091A2003091D6
:100B7000A3008B819C81820F931F9093A30080938D
:100B8000A2000E94021189819A810F900F900F900C
:100B90000F90CF91DF910895DF93CF9300D0CDB721
:100BA000DEB79A8389830F900F90CF91DF910895DC
:100BB000DF93CF93CDB7DEB71092A3001092A200BF
:100BC000CF91DF910895DF93CF93CDB7DEB720911A
:100BD000A2003091A30088EE93E0821B930BCF918B
:100BE000DF910895DF93CF9300D0CDB7DEB79A831E
:100BF000898389819A810396E981FA81928381832D
:100C0000E981FA818FEF9FEF9483838389819A81B1
:100C10000396E981FA819683858389819A81039677
:100C2000E981FA8190878783E981FA8110820F90A8
:100C30000F90CF91DF910895DF93CF9300D0CDB780
:100C4000DEB79A838983E981FA81118610860F9035
:100C50000F90CF91DF910895DF93CF9300D000D014
:100C600000D0CDB7DEB79C838B837E836D83EB8111
:100C7000FC81818192819A838983E981FA818281D1
:100C80009381ED81FE8193838283EB81FC8181815D
:100C90009281ED81FE8195838483E981FA810280CE
:100CA000F381E02D8D819E81958384838D819E814A
:100CB000E981FA81938382838D819E81EB81FC811E
:100CC00092838183ED81FE818B819C8191878087D6
:100CD000EB81FC8180818F5FEB81FC818083269694
:100CE0000FB6F894DEBF0FBECDBFCF91DF91089550
:100CF000DF93CF93CDB7DEB728970FB6F894DEBF5A
:100D00000FBECDBF9E838D8378876F83EF81F8857B
:100D1000808191819A83898389819A812FEF8F3F86
:100D2000920739F4ED81FE81878190859C838B83C6
:100D300018C08D819E8103969C838B8306C0EB81B6
:100D4000FC81828193819C838B83EB81FC81028077
:100D5000F381E02D2081318189819A818217930767
:100D600070F7EB81FC8182819381EF81F885938319
:100D70008283EF81F8850280F381E02D8F81988551
:100D800095838483EF81F8858B819C81958384830F
:100D90008F819885EB81FC8193838283EF81F88535
:100DA0008D819E8191878087ED81FE8180818F5F1B
:100DB000ED81FE81808328960FB6F894DEBF0FBECA
:100DC000CDBFCF91DF910895DF93CF9300D000D0B6
:100DD000CDB7DEB79C838B83EB81FC81A281B3818D
:100DE000EB81FC818481958115969C938E93149759
:100DF000EB81FC81A481B581EB81FC8182819381AF
:100E000013969C938E931297EB81FC81808591853C
:100E10009A838983E981FA81218132818B819C8146
:100E20002817390741F4EB81FC8184819581E981A0
:100E3000FA8192838183EB81FC8111861086E9819E
:100E4000FA8180818150E981FA8180830F900F902F
:100E50000F900F90CF91DF910895AF92BF92CF92F4
:100E6000DF92EF92FF920F93DF93CF93CDB7DEB770
:100E70000E948E028EE497E060E070E044E650E06D
:100E800020E030E003E0EE24FF24CC24DD24AA247B
:100E9000BB240E94BA0E0E94B310FFCFDF93CF9302
:100EA00000D0CDB7DEB79A83898390918C0481E01E
:100EB000892780938C0490918C0482E062E0492F12
:100EC0000E94490088EB9BE00E947E10EECFDF93EA
:100ED000CF93CDB7DEB728970FB6F894DEBF0FBE1D
:100EE000CDBF9C838B837E836D8358874F83EB813B
:100EF000FC8181E180838B819C8101979C838B8322
:100F0000EB81FC8182E280838B819C8101979C83B1
:100F10008B83EB81FC8183E380838B819C810197B0
:100F20009C838B838D819E819A8389838981EB81C8
:100F3000FC8180838B819C8101979C838B83898139
:100F40009A81892F99279A8389838981EB81FC81F2
:100F500080838B819C8101979C838B83EB81FC81B7
:100F600010828B819C8101979C838B83EB81FC8118
:100F700080E880838B819C8101979C838B83EB81AC
:100F8000FC8110828B819C8101979C838B83EB81F8
:100F9000FC8182E080838B819C8101979C838B8381
:100FA000EB81FC8183E080838B819C8101979C8312
:100FB0008B83EB81FC8184E080838B819C81019712
:100FC0009C838B83EB81FC8185E080838B819C817A
:100FD00001979C838B83EB81FC8186E080838B81EE
:100FE0009C8101979C838B83EB81FC8187E08083CC
:100FF0008B819C8101979C838B83EB81FC8188E0B2
:1010000080838B819C8101979C838B83EB81FC8106
:1010100089E080838B819C8101979C838B83EB810A
:10102000FC8180E180838B819C8101979C838B83F1
:10103000EB81FC8181E180838B819C8101979C8382
:101040008B83EB81FC8182E180838B819C81019782
:101050009C838B83EB81FC8183E180838B819C81EA
:1010600001979C838B83EB81FC8184E180838B815E
:101070009C8101979C838B83EB81FC8185E180833C
:101080008B819C8101979C838B83EB81FC8186E122
:1010900080838B819C8101979C838B83EB81FC8176
:1010A00087E180838B819C8101979C838B83EB817B
:1010B000FC8188E180838B819C8101979C838B8359
:1010C000EB81FC8189E180838B819C8101979C83EA
:1010D0008B83EB81FC8180E280838B819C810197F3
:1010E0009C838B83EB81FC8181E280838B819C815B
:1010F00001979C838B83EB81FC8182E280838B81CF
:101100009C8101979C838B83EB81FC8183E28083AC
:101110008B819C8101979C838B838F8198859A8397
:1011200089838981EB81FC8180838B819C810197FC
:101130009C838B8389819A81892F99279A838983BC
:101140008981EB81FC8180838B819C8101979C83C9
:101150008B83EB81FC8186E280838B819C8101976C
:101160009C838B83EB81FC8187E280838B819C81D4
:1011700001979C838B83EB81FC8188E280838B8148
:101180009C8101979C838B83EB81FC8189E2808326
:101190008B819C8101979C838B83EB81FC8180E315
:1011A00080838B819C8101979C838B83EB81FC8165
:1011B00081E380838B819C8101979C838B838B81CE
:1011C0009C8128960FB6F894DEBF0FBECDBFCF919D
:1011D000DF910895DF93CF93CDB7DEB70E94DA0990
:1011E000A0918D04B0918E04CD91CDBFDD91DEBF75
:1011F000FF91EF91DF91CF91BF91AF919F918F912F
:101200007F916F915F914F913F912F911F910F911E
:10121000FF90EF90DF90CF90BF90AF909F908F9016
:101220007F906F905F904F903F902F901F900F9006
:101230000FBE0F90089581E0CF91DF910895DF9365
:10124000CF93CDB7DEB7CF91DF9108950F920FB650
:10125000F8940F921F9211242F923F924F925F9217
:101260006F927F928F929F92AF92BF92CF92DF92B6
:10127000EF92FF920F931F932F933F934F935F93A0
:101280006F937F938F939F93AF93BF93CF93DF938E
:10129000EF93FF93A0918D04B0918E040DB60D9243
:1012A0000EB60D920E949612A0918D04B0918E04FC
:1012B000CD91CDBFDD91DEBFFF91EF91DF91CF9159
:1012C000BF91AF919F918F917F916F915F914F915E
:1012D0003F912F911F910F91FF90EF90DF90CF9052
:1012E000BF90AF909F908F907F906F905F904F9046
:1012F0003F902F901F900F900FBE0F9008950F9268
:101300000FB6F8940F921F9211242F923F924F9292
:101310005F926F927F928F929F92AF92BF92CF9285
:10132000DF92EF92FF920F931F932F933F934F9370
:101330005F936F937F938F939F93AF93BF93CF935D
:10134000DF93EF93FF93A0918D04B0918E040DB6BF
:101350000D920EB60D920E94C1110E949612A0919C
:101360008D04B0918E04CD91CDBFDD91DEBFFF9194
:10137000EF91DF91CF91BF91AF919F918F917F912D
:101380006F915F914F913F912F911F910F91FF901E
:10139000EF90DF90CF90BF90AF909F908F907F9015
:1013A0006F905F904F903F902F901F900F900FBEC7
:1013B0000F900895DF93CF9300D000D000D0CDB729
:1013C000DEB780E89EE3A0E0B0E08B839C83AD8332
:1013D000BE838B819C81AD81BE81689415F8B695E2
:1013E000A795979587951694D1F78B839C83AD83AA
:1013F000BE838B819C81AD81BE810197A109B1091A
:101400008B839C83AD83BE838B8189838B819C81FD
:10141000AD81BE81892F9A2FAB2FBB278B839C83F5
:10142000AD83BE838B818A83EBE4F0E08A81808385
:10143000EAE4F0E0898180838BE08983EEE4F0E0E8
:1014400089818083E9E5F0E08081898389818061F9
:101450008983E9E5F0E08981808326960FB6F894C8
:10146000DEBF0FBECDBFCF91DF9108950E947F09EF
:101470001895DF93CF93CDB7DEB728970FB6F894C2
:10148000DEBF0FBECDBF8F8368871A8219828F811E
:10149000882309F48CC08FE190E00E9486059E832A
:1014A0008D838D819E81009709F481C08F81282FC3
:1014B00030E08885882F90E0AC01249FC001259FF3
:1014C000900D349F900D112401969C838B838B810A
:1014D0009C810E948605ED81FE8191838083ED8150
:1014E000FE8180819181009709F45DC0ED81FE81CC
:1014F000408151818F81282F30E08885882F90E0AE
:10150000BC01269FC001279F900D369F900D11248E
:10151000840F951FED81FE8193838283ED81FE818F
:10152000128EED81FE8180819181ED81FE81958316
:101530008483ED81FE81408151818F81882F90E0ED
:101540009C01215030408885882F90E0BC01269F67
:10155000C001279F900D369F900D1124840F951F79
:10156000ED81FE8197838683ED81FE818F81838F5C
:10157000ED81FE818885848FED81FE818FEF858FDF
:10158000ED81FE818FEF868F8D819E8108960E946E
:10159000F2058D819E8141960E94F2058D819E818A
:1015A0009A83898304C08D819E810E94CC058981A4
:1015B0009A8128960FB6F894DEBF0FBECDBFCF91AB
:1015C000DF910895DF93CF93CDB7DEB72C970FB699
:1015D000F894DEBF0FBECDBF9E838D8378876F8367
:1015E0005A8749872B8719820FB6F8940F92ED819D
:1015F000FE81928DED81FE81838D9817D8F48D81C7
:101600009E812F813885B9014B850E941D0DED818A
:10161000FE818189882349F08D819E8141960E94B7
:101620003213813011F40E9426090F900FBE81E021
:101630008C875CC089859A85009721F40F900FBE36
:101640001C8654C08981882331F4CE0102960E9401
:101650009A1381E089830F900FBE0E94F6100FB697
:10166000F8940F92ED81FE81858D8F3F19F4ED8105
:10167000FE81158EED81FE81868D8F3F19F4ED81FF
:10168000FE81168E0F900FBECE0102969E01275F3F
:101690003F4FB9010E94B313882309F58D819E81C4
:1016A0000E94810E8823A1F08D819E810896298554
:1016B0003A85B9010E94FC128D819E810E94FA0D2B
:1016C0000E940211882309F08FCF0E9426098CCF37
:1016D0008D819E810E94FA0D0E94021185CF8D811D
:1016E0009E810E94FA0D0E9402111C868C852C9608
:1016F0000FB6F894DEBF0FBECDBFCF91DF91089536
:10170000DF93CF93CDB7DEB729970FB6F894DEBF3E
:101710000FBECDBF9C838B837E836D8358874F83A1
:1017200029871982EB81FC81928DEB81FC81838D6D
:10173000981740F58B819C812D813E81B9014985A7
:101740000E941D0DEB81FC81868D8F3F89F4EB811A
:10175000FC818189882399F08B819C8141960E942C
:101760003213882361F0EF81F88581E0808307C020
:10177000EB81FC81868D8F5FEB81FC81868F81E020
:101780008A8301C01A828A8129960FB6F894DEBF37
:101790000FBECDBFCF91DF910895DF93CF93CDB72B
:1017A000DEB72E970FB6F894DEBF0FBECDBF988779
:1017B0008F837A8769875C874B872D871B820FB65B
:1017C000F8940F92EF81F885828D882309F43FC049
:1017D000EF81F885868197819A8389838F819885A7
:1017E00029853A85B9010E94B20D8D858823B1F40F
:1017F000EF81F885828D8150EF81F885828FEF81AE
:10180000F88580858823F1F08F81988508960E945D
:1018100032138130B9F40E94260914C0EF81F88593
:1018200089819A8197838683EF81F88581898823CE
:1018300049F08F81988541960E943213882311F0D8
:101840000E9426090F900FBE81E08E875CC08B85B9
:101850009C85009721F40F900FBE1E8654C08B818B
:10186000882331F4CE0104960E949A1381E08B8381
:101870000F900FBE0E94F6100FB6F8940F92EF81F2
:10188000F885858D8F3F19F4EF81F885158EEF81EE
:10189000F885868D8F3F19F4EF81F885168E0F90AD
:1018A0000FBECE0104969E01255F3F4FB9010E94F5
:1018B000B313882309F58F8198850E944E0E8823E3
:1018C000A1F08F81988541962B853C85B9010E94B6
:1018D000FC128F8198850E94FA0D0E9402118823C4
:1018E00009F06DCF0E9426096ACF8F8198850E94EA
:1018F000FA0D0E94021163CF8F8198850E94FA0D24
:101900000E9402111E868E852E960FB6F894DEBFB9
:101910000FBECDBFCF91DF910895DF93CF93CDB7A9
:10192000DEB728970FB6F894DEBF0FBECDBF9C83FD
:101930008B837E836D8358874F831982EB81FC8173
:10194000828D882371F18B819C812D813E81B9012B
:101950000E94B20DEB81FC81828D8150EB81FC8174
:10196000828FEB81FC81858D8F3F89F4EB81FC8137
:101970008085882399F08B819C8108960E94321380
:10198000882361F0EF81F88581E0808307C0EB81D7
:10199000FC81858D8F5FEB81FC81858F81E08A835F
:1019A00001C01A828A8128960FB6F894DEBF0FBE56
:1019B000CDBFCF91DF910895DF93CF9300D00F92E9
:1019C000CDB7DEB79B838A830FB6F8940F92EA8176
:1019D000FB81828D89830F900FBE89810F900F90BC
:1019E0000F90CF91DF910895DF93CF9300D00F92A6
:1019F000CDB7DEB79B838A83EA81FB81828D8983A1
:101A000089810F900F900F90CF91DF910895DF9310
:101A1000CF9300D0CDB7DEB79A838983E981FA816D
:101A2000808191810E94CC0589819A810E94CC0598
:101A30000F900F90CF91DF910895DF93CF9300D057
:101A400000D00F92CDB7DEB79A8389837C836B83F6
:101A50004D83E981FA81848D882309F474C08D81D6
:101A6000882399F5E981FA8164817581E981FA8198
:101A7000848D482F50E02B813C81CB01B9010E941D
:101A8000A515E981FA8124813581E981FA81848D66
:101A9000882F90E0820F931FE981FA8195838483D8
:101AA000E981FA8124813581E981FA8182819381FA
:101AB0002817390708F447C0E981FA8180819181AC
:101AC000E981FA81958384833EC0E981FA81668148
:101AD0007781E981FA81848D482F50E02B813C8108
:101AE000CB01B9010E94A515E981FA8126813781D0
:101AF000E981FA81848D882F90E0909581959F4FA0
:101B0000820F931FE981FA8197838683E981FA81A5
:101B100026813781E981FA818081918128173907EF
:101B200090F4E981FA8122813381E981FA81848DFF
:101B3000882F90E0909581959F4F820F931FE981A8
:101B4000FA8197838683E981FA81828D8F5FE981AB
:101B5000FA81828F0F900F900F900F900F90CF917E
:101B6000DF910895DF93CF9300D000D0CDB7DEB7DB
:101B70009A8389837C836B83E981FA818081918157
:101B8000009789F1E981FA8126813781E981FA811B
:101B9000848D882F90E0820F931FE981FA819783CB
:101BA0008683E981FA8126813781E981FA81828100
:101BB00093812817390740F0E981FA81808191816A
:101BC000E981FA8197838683E981FA814681578189
:101BD000E981FA81848D282F30E08B819C81BA01C4
:101BE000A9010E94A5150F900F900F900F90CF9113
:101BF000DF910895DF93CF9300D0CDB7DEB79A83FE
:101C000089830FB6F8940F9215C0E981FA81818912
:101C10008823A9F089819A8141960E9432138823F2
:101C200011F00E941014E981FA81868D8150E981BA
:101C3000FA81868FE981FA81868D181634F3E9815D
:101C4000FA818FEF868F0F900FBE0FB6F8940F9228
:101C500015C0E981FA8180858823A9F089819A815C
:101C600008960E943213882311F00E941014E98113
:101C7000FA81858D8150E981FA81858FE981FA8128
:101C8000858D181634F3E981FA818FEF858F0F90D7
:101C90000FBE0F900F90CF91DF910895DF93CF93F8
:101CA00000D00F92CDB7DEB79B838A830FB6F8942E
:101CB0000F92EA81FB81828D1982882311F481E0E1
:101CC00089830F900FBE89810F900F900F90CF9155
:101CD000DF910895DF93CF9300D00F92CDB7DEB799
:101CE0009B838A83EA81FB81828D1982882311F488
:101CF00081E0898389810F900F900F90CF91DF91C0
:101D00000895DF93CF9300D00F92CDB7DEB79B83BA
:101D10008A830FB6F8940F92EA81FB81928DEA8153
:101D2000FB81838D1982981711F481E089830F90CC
:101D30000FBE89810F900F900F90CF91DF91089582
:101D4000DF93CF9300D00F92CDB7DEB79B838A830A
:101D5000EA81FB81928DEA81FB81838D198298173C
:101D600011F481E0898389810F900F900F90CF91BA
:101D7000DF910895AF92BF92CF92DF92EF92FF92E0
:101D80000F931F93DF93CF93CDB7DEB764970FB652
:101D9000F894DEBF0FBECDBF9F838E83798768879F
:101DA0005B874A873D872C870E87F88AEF86DA8A19
:101DB000C98ABC8AAB8A8A859B8529893A89B901F7
:101DC0000E943F159C838B838B819C81009709F433
:101DD00099C0EB81FC812789308D8A859B8501978D
:101DE000820F931F9A8389838B819C8128853985F3
:101DF000EB89FC89AA85BB85B9014E859F018D01C0
:101E00000E94241489819A812E813F814C855D85B1
:101E1000B9010E946707EB81FC81918380838F85E4
:101E20009889009731F0EF85F8898B819C819183A7
:101E300080830FB6F8940F92809190048F5F809307
:101E4000900480918D0490918E04009769F48B81A9
:101E50009C8190938E0480938D04809190048130B6
:101E6000A9F40E947B1412C080919504882371F418
:101E7000E0918D04F0918E0496898E85891730F05B
:101E80008B819C8190938E0480938D04EB81FC81E7
:101E9000968980919304891728F4EB81FC818689C7
:101EA0008093930480919A048F5F80939A04EB81CE
:101EB000FC81968980919404891728F4EB81FC8138
:101EC000868980939404EB81FC818689282F30E0F9
:101ED000C901880F991F880F991F880F991F820FBA
:101EE000931FAC0145565B4F8B819C819C012E5FFB
:101EF0003F4FCA01B9010E942C0681E08D830F90EB
:101F00000FBE02C08FEF8D838D81813071F480917F
:101F10009504882351F0E0918D04F0918E04968908
:101F20008E85981710F40E9426098D8164960FB64D
:101F3000F894DEBF0FBECDBFCF91DF911F910F91FF
:101F4000FF90EF90DF90CF90BF90AF900895DF9318
:101F5000CF9300D000D000D0CDB7DEB79C838B8369
:101F60000FB6F8940F9220918D0430918E048B81DE
:101F70009C818217930711F41C821B828B819C81A8
:101F8000009739F480918D0490918E049E838D8307
:101F900004C08B819C819E838D838D819E819A83D9
:101FA000898389819A8102960E94E406E981FA81F7
:101FB00084899589009729F089819A810C960E94DD
:101FC000E40689819A819C012E5F3F4F8EED94E05B
:101FD000B9010E942C0680918F048F5F80938F043B
:101FE00080919A048F5F80939A040F900FBE809126
:101FF0009504882331F08B819C81009711F40E9415
:10200000260926960FB6F894DEBF0FBECDBFCF913E
:10201000DF910895DF93CF93CDB7DEB728970FB642
:10202000F894DEBF0FBECDBF9E838D8378876F830C
:1020300019820E94F610ED81FE81208131818F810D
:102040009885820F931F9C838B83ED81FE81208175
:102050003181809191049091920482179307A8F4A2
:10206000ED81FE81208131818B819C8182179307D4
:1020700000F520919104309192048B819C81281766
:102080003907B8F481E0898314C0ED81FE81208195
:1020900031818B819C818217930748F020919104B4
:1020A000309192048B819C812817390710F481E0CC
:1020B0008983ED81FE818B819C81918380838981DD
:1020C000882359F080918D0490918E0402960E948D
:1020D000E4068B819C810E94F6140E9402118A837F
:1020E0008A81882311F40E94260928960FB6F89455
:1020F000DEBF0FBECDBFCF91DF910895DF93CF93A9
:1021000000D000D00F92CDB7DEB79D838C831982AB
:102110008C819D810097D1F00E94F610209191044E
:10212000309192048C819D81820F931F9B838A83BF
:1021300080918D0490918E0402960E94E4068A811B
:102140009B810E94F6140E94021189838981882351
:1021500011F40E9426090F900F900F900F900F908E
:10216000CF91DF910895AF92BF92CF92DF92EF921D
:10217000FF920F93DF93CF930F92CDB7DEB720E698
:1021800030E08AE194E1B9014AEF50E020E030E02C
:1021900000E0EE24FF24CC24DD24AA24BB240E94EA
:1021A000BA0E89838981813051F4F89481E080935B
:1021B000950410929204109291040E94EA080F90E4
:1021C000CF91DF910F91FF90EF90DF90CF90BF9074
:1021D000AF900895DF93CF93CDB7DEB7F894109208
:1021E00095040E941F09CF91DF910895DF93CF934B
:1021F000CDB7DEB7809196048F5F80939604CF9120
:10220000DF910895DF93CF9300D000D0CDB7DEB734
:102210001A820FB6F8940F928091960481508093A1
:10222000960480919604882309F06CC080919004F4
:10223000882309F467C0198241C0E091DA04F09163
:10224000DB04868197819C838B838B819C810C9698
:102250000E94E4068B819C8102960E94E406EB8139
:10226000FC81968980919404891728F4EB81FC8184
:10227000868980939404EB81FC818689282F30E045
:10228000C901880F991F880F991F880F991F820F06
:10229000931F85569B4F2B813C812E5F3F4FB90189
:1022A0000E942C06EB81FC819689E0918D04F091CF
:1022B0008E048689981710F081E089838091D50477
:1022C000882309F0BACF80919704882371F007C062
:1022D0000E94C1118091970481508093970480914E
:1022E00097048823A9F781E089838981813021F0CF
:1022F00080919804813031F481E08A8310929804AF
:102300000E9426090F900FBE8A810F900F900F90A8
:102310000F90CF91DF910895DF93CF9300D0CDB789
:10232000DEB70FB6F8940F928091910490919204C9
:102330009A8389830F900FBE89819A810F900F90A5
:10234000CF91DF910895DF93CF9300D00F92CDB757
:10235000DEB7198280919104909192049B838A83C5
:102360008A819B810F900F900F90CF91DF910895FC
:10237000DF93CF93CDB7DEB780919004CF91DF91FB
:102380000895DF93CF9300D000D000D0CDB7DEB753
:1023900080919604882309F0BBC0809191049091AC
:1023A00092040196909392048093910480919104F9
:1023B000909192040097D1F58091D1049091D2042C
:1023C0009C838B838091D3049091D4049093D20406
:1023D0008093D1048B819C819093D4048093D30407
:1023E000809199048F5F80939904E091D104F091DA
:1023F000D2048081882339F48FEF9FEF9093660099
:102400008093650013C0E091D104F091D20405805F
:10241000F681E02D868197819E838D83ED81FE81FB
:10242000828193819093660080936500209191044E
:1024300030919204809165009091660028173907C9
:1024400008F46BC0E091D104F091D204808188231C
:1024500039F48FEF9FEF90936600809365005DC025
:10246000E091D104F091D2040580F681E02D8681BF
:1024700097819E838D83ED81FE81828193819A83F2
:102480008983209191043091920489819A8128173F
:10249000390738F489819A819093660080936500AA
:1024A0003CC08D819E8102960E94E406ED81FE81F2
:1024B00084899589009729F08D819E810C960E94D0
:1024C000E406ED81FE81968980919404891728F4B1
:1024D000ED81FE81868980939404ED81FE81868959
:1024E000282F30E0C901880F991F880F991F880F86
:1024F000991F820F931FAC0145565B4F8D819E81C2
:102500009C012E5F3F4FCA01B9010E942C069ACF51
:10251000809197048F5F8093970426960FB6F89466
:10252000DEBF0FBECDBFCF91DF910895DF93CF9374
:1025300000D0CDB7DEB780919604882349F081E0C2
:102540008093980454C080919404815080939404A3
:1025500080919404282F30E0C901880F991F880FBB
:10256000991F880F991F820F931FFC01E556FB4F9F
:102570008081882341F380919404282F30E0C901A1
:10258000880F991F880F991F880F991F820F931F1B
:1025900085569B4F9A838983E981FA810180F28174
:1025A000E02D82819381E981FA8192838183E9819F
:1025B000FA812181328189819A810396281739070E
:1025C00059F4E981FA810180F281E02D82819381C1
:1025D000E981FA8192838183E981FA810180F28124
:1025E000E02D8681978190938E0480938D040F90C7
:1025F0000F90CF91DF910895DF93CF9300D000D05B
:1026000000D0CDB7DEB79C838B837E836D834B81F7
:102610005C8180918D0490918E049C01245F3F4FDA
:10262000CA01B9010E94780680918D0490918E04B0
:1026300002960E94E40620919104309192048D81CB
:102640009E81820F931F9A83898389819A810E9438
:10265000F61426960FB6F894DEBF0FBECDBFCF910D
:10266000DF910895DF93CF9300D000D00F92CDB7C4
:10267000DEB79D838C83EC81FD810580F681E02DA2
:10268000868197819B838A838A819B810C960E9495
:10269000E40680919604882361F58A819B810296E5
:1026A0000E94E406EA81FB8196898091940489174F
:1026B00028F4EA81FB81868980939404EA81FB8176
:1026C0008689282F30E0C901880F991F880F991F2C
:1026D000880F991F820F931FAC0145565B4F8A816B
:1026E0009B819C012E5F3F4FCA01B9010E942C06BD
:1026F0000AC08A819B819C01245F3F4F85ED94E055
:10270000B9010E942C06EA81FB819689E0918D0433
:10271000F0918E048689981718F081E0898301C0B2
:10272000198289810F900F900F900F900F90CF9189
:10273000DF910895DF93CF9300D0CDB7DEB79A83B2
:10274000898380919904E981FA8180838091910441
:1027500090919204E981FA81928381830F900F9086
:10276000CF91DF910895DF93CF9300D000D00F92E7
:10277000CDB7DEB79B838A837D836C830FB6F894D5
:102780000F92EA81FB81908180919904981771F0F2
:10279000EA81FB81218132818091910490919204A0
:1027A0008217930718F081E089832FC0209191044C
:1027B00030919204EA81FB8181819281281B390B3F
:1027C000EC81FD818081918128173907E0F4EC814B
:1027D000FD8140815181EA81FB812181328180919B
:1027E000910490919204B901681B790BCB01840F7D
:1027F000951FEC81FD81918380838A819B810E945A
:102800009A13198202C081E089830F900FBE8981DB
:102810000F900F900F900F900F90CF91DF91089530
:10282000DF93CF93CDB7DEB781E080939804CF914B
:10283000DF910895DF93CF9300D0CDB7DEB79A83B1
:1028400089830E94B814FDCF0F931F93DF93CF931A
:10285000CDB7DEB729970FB6F894DEBF0FBECDBF58
:102860009A8389837C836B834D833F832E8319876F
:10287000088789819A8149962B813C81B90148E07A
:1028800050E00E94B515E981FA8110A28D81843053
:1028900010F083E08D83E981FA818D81868B8981B7
:1028A0009A8102960E941C0689819A810C960E9448
:1028B0001C06E981FA8189819A81918780878D81BF
:1028C000282F30E084E090E0821B930BE981FA81AD
:1028D00095878487E981FA8189819A81938B828B9C
:1028E00029960FB6F894DEBF0FBECDBFCF91DF9112
:1028F0001F910F910895DF93CF930F92CDB7DEB75D
:10290000198213C08981282F30E0C901880F991FCF
:10291000880F991F880F991F820F931F85569B4F11
:102920000E94F20589818F5F89838981843050F309
:102930008FEB94E00E94F20588EC94E00E94F2058F
:1029400085ED94E00E94F2058EED94E00E94F20580
:102950008FEB94E09093D2048093D10488EC94E0C0
:102960009093D4048093D3040F90CF91DF91089576
:10297000DF93CF9300D00F92CDB7DEB780918F0455
:10298000882371F10E94F6108091DE041B82882357
:1029900011F481E08B830E9402118B81882301F561
:1029A0000FB6F8940F92E091E304F091E40486816D
:1029B00097819A83898389819A8102960E94E4068D
:1029C0008091900481508093900480918F04815075
:1029D00080938F040F900FBE89819A810E948F157A
:1029E0000F900F900F90CF91DF910895DF93CF93C9
:1029F00000D0CDB7DEB79A838983E0918D04F09142
:102A00008E0489819A8193838283209191043091ED
:102A1000920489819A818217930770F48091D3047C
:102A20009091D40420918D0430918E042E5F3F4FFD
:102A3000B9010E9478061EC04091D1045091D20481
:102A400080918D0490918E049C012E5F3F4FCA01AE
:102A5000B9010E9478062091650030916600898155
:102A60009A818217930730F489819A819093660046
:102A7000809365000F900F90CF91DF910895DF93C1
:102A8000CF93CDB7DEB728970FB6F894DEBF0FBE51
:102A9000CDBF9C838B837E836D8381E290E00E9417
:102AA00086059A83898389819A81009769F18D814E
:102AB0009E81009739F48B819C810E9486059887BE
:102AC0008F8304C08D819E8198878F83E981FA81ED
:102AD0008F819885908F878BE981FA818789908D86
:102AE000009739F489819A810E94CC051A82198253
:102AF0000BC0E981FA818789908D2B813C8165EA41
:102B000070E0A9010E94AE1589819A8128960FB6BE
:102B1000F894DEBF0FBECDBFCF91DF910895DF9354
:102B2000CF9300D0CDB7DEB79A838983E981FA814C
:102B30008789908D0E94CC0589819A810E94CC055D
:102B40000F900F90CF91DF910895FB01DC0102C03F
:102B500001900D9241505040D8F70895DC0101C01A
:102B60006D9341505040E0F70895FB01DC01415066
:102B7000504048F001900D920020C9F701C01D920D
:0C2B800041505040E0F70895F894FFCF5A
:082B8C0049444C4500FFFF0025
:00000001FF
