:100000000C942A000C943F000C943F000C943F0089
:100010000C943F000C943F000C943F000C943F0064
:100020000C943F000C943F000C943F000C943F0054
:100030000C943F000C943F000C943F000C943F0044
:100040000C943F000C943F000C943F000C943F0034
:100050000C943F0011241FBECFE5D8E0DEBFCDBF1A
:1000600010E0A0E6B0E0E6EDF7E002C005900D92EA
:10007000A037B107D9F70E9466030C94E9030C94EA
:100080000000ACE0B0E0E7E4F0E00C94C203698368
:100090007A838B839C83CE010196BE016B5F7F4F79
:1000A0000E9495008D81823061F1823050F1843060
:1000B00021F48E81882351F12EC02F81388537FDA0
:1000C00020C06E812F3131051CF06623F9F023C06A
:1000D0008EE190E0821B930B29853A854B855C85E8
:1000E00004C056954795379527958A95D2F766238C
:1000F000B1F050954095309521953F4F4F4F5F4F50
:100100000EC020E030E040E050E009C02FEF3FEFAC
:100110004FEF5FE704C020E030E040E050E8B90175
:10012000CA012C96E2E00C94DE03FC01DB01408165
:1001300051812281622F6F7770E0221F2227221FB8
:100140009381892F880F822B282F30E0991F9927C0
:10015000991F11969C93119721153105A9F5411509
:1001600051056105710511F482E037C082E89FEF07
:1001700013969C938E9312979A01AB0167E0220F1E
:10018000331F441F551F6A95D1F783E08C930DC030
:10019000220F331F441F551F12968D919C91139768
:1001A000019713969C938E931297203080E0380726
:1001B00080E0480780E4580758F314962D933D9348
:1001C0004D935C93179708952F3F310579F44115AE
:1001D00051056105710519F484E08C93089564FF5D
:1001E00003C081E08C9312C01C9210C02F57304086
:1001F00013963C932E93129783E08C9387E0440FE1
:10020000551F661F771F8A95D1F7706414964D931A
:100210005D936D937C9317970895CF92DF92EF9241
:10022000FF921F93182F80E061E041E00E94970247
:1002300080E067E80E944803612F66956877682B25
:1002400080E00E94100380E062E041E00E9497029B
:1002500090EAC92E9FE0D92EC6010197F1F780E000
:1002600062E040E00E94970280E1E82E87E2F82EEB
:10027000C7010197F1F780E067E80E944803110F7A
:10028000110F110F182B80E0612F0E94100380E0E6
:1002900062E041E00E949702C6010197F1F780E019
:1002A00062E040E00E949702C7010197F1F71F91B9
:1002B000FF90EF90DF90CF900895AF92BF92CF92D2
:1002C000DF92EF92FF920F931F93DF93CF93CDB7FF
:1002D000DEB764970FB6F894DEBF0FBECDBF0E94A5
:1002E00041007B018C01611571058105910521F4A7
:1002F00080E30E940D010DC097FF0BC08DE20E94AC
:100300000D0110950095F094E094E11CF11C011D85
:10031000111D5E010894A11CB11C84E1F50111922C
:100320008A95E9F7650117C0C801B7012AE030E0F6
:1003300040E050E00E947503F60161936F01C8012F
:10034000B7012AE030E040E050E00E947503C901A7
:10035000DA017C018D012C2D2A19E114F10401052B
:10036000110511F72150822F992787FD90952F5F56
:100370008E010F5F1F4F080F191F7801E21AF10855
:1003800007C0F8018081805D0E940D01015010407E
:100390000E151F05B1F764960FB6F894DEBF0FBEB9
:1003A000CDBFCF91DF911F910F91FF90EF90DF9024
:1003B000CF90BF90AF9008951F93CF93DF93EC0140
:1003C00010E003C00E940D011F5FFE01E10FF11D4F
:1003D00080818823B9F7DF91CF911F910895CF9243
:1003E000DF92EF92FF921F93182F80E061E040E0D0
:1003F0000E94970280E067E80E944803612F66959B
:100400006877682B80E00E94100380E062E041E0A2
:100410000E94970230EAC32E3FE0D32EC601019717
:10042000F1F780E062E040E00E94970220E1E22ED6
:1004300027E2F22EC7010197F1F780E067E80E94FA
:100440004803110F110F110F182B80E0612F0E942C
:10045000100380E062E041E00E949702C60101972C
:10046000F1F780E062E040E00E949702C701019747
:10047000F1F71F91FF90EF90DF90CF9008958823C0
:1004800029F0813011F060E001C0605C862F805857
:100490000E94EF010895DF92EF92FF920F931F9356
:1004A000CF93DF938C01F62EE42ED22E862F880F69
:1004B000880F880F805C0E94EF01C0E0D0E0F80157
:1004C000EC0FFD1F80810E940D012196C830D105DF
:1004D000B1F78E2D6D2D0E943F028F2D0E940D01D0
:1004E000DF91CF911F910F91FF90EF90DF900895D2
:1004F00080E991E028EC30E0F9013197F1F70197BC
:10050000D9F783E30E94EF0182E30E94EF0188E2C2
:100510000E94EF018CE00E94EF0182E00E94EF0157
:1005200086E00E94EF0181E00E94EF0108956830AB
:1005300008F074C04423D1F58130A1F0813030F04F
:100540008230E1F0833009F069C024C02BB381E030
:1005500090E002C0880F991F6A95E2F78095822388
:100560008BBB5AC028B381E090E002C0880F991F6E
:100570006A95E2F78095822388BB4EC025B381E05F
:1005800090E002C0880F991F6A95E2F78095822358
:1005900085BB42C022B381E090E002C0880F991F62
:1005A0006A95E2F78095822382BB36C04130B1F56F
:1005B000813091F0813028F08230C9F0833071F5BC
:1005C00021C02BB381E090E002C0880F991F6A958B
:1005D000E2F7282B2BBB20C028B381E090E002C0BB
:1005E000880F991F6A95E2F7282B28BB15C025B301
:1005F00081E090E002C0880F991F6A95E2F7282BEE
:1006000025BB0AC022B381E090E002C0880F991F89
:100610006A95E2F7282B22BB80E0089581E00895D7
:10062000843090F4813049F0813028F0823039F004
:10063000833051F406C06BBB05C068BB03C065BB0B
:1006400001C062BB80E0089581E00895FA01411580
:100650005105E1F06830D0F4813049F0813028F064
:10066000823039F0833091F406C089B305C086B377
:1006700003C083B301C080B390E002C09595879515
:100680006A95E2F78170808380E0089581E00895A3
:10069000813051F0813030F0823041F0833049F0C8
:1006A00080E008958BB303C088B301C085B386236F
:1006B000089582B3862308958FEF8ABB17BA14BAC0
:1006C00011BA1BBA18BA15BA12BA08950E945C037F
:1006D0000E94780280E690E00E94DC0160E070E019
:1006E00080E391E40E945D01FFCF97FB092E052670
:1006F0000ED057FD04D014D00AD0001C38F4509509
:100700004095309521953F4F4F4F5F4F0895F6F735
:1007100090958095709561957F4F8F4F9F4F08956D
:10072000A1E21A2EAA1BBB1BFD010DC0AA1FBB1FF5
:10073000EE1FFF1FA217B307E407F50720F0A21B67
:10074000B30BE40BF50B661F771F881F991F1A94D4
:1007500069F760957095809590959B01AC01BD01FE
:10076000CF0108952F923F924F925F926F927F92A6
:100770008F929F92AF92BF92CF92DF92EF92FF92B1
:100780000F931F93CF93DF93CDB7DEB7CA1BDB0B5D
:100790000FB6F894DEBF0FBECDBF09942A88398802
:1007A00048885F846E847D848C849B84AA84B98409
:1007B000C884DF80EE80FD800C811B81AA81B98115
:1007C000CE0FD11D0FB6F894DEBF0FBECDBFED0129
:0607D0000895F894FFCF2C
:1007D60048617373616E2048656C6C6F2020000061
:00000001FF
