:100000000C942A000C94550D0C94880D0C94BB0D87
:100010000C9447000C9447000C948D090C944700F5
:100020000C9447000C9447000C945A090C94470018
:100030000C9447000C9447000C9447000C94470024
:100040000C9416140C9447000C9447000C94470031
:100050000C94470011241FBECFE5D8E0DEBFCDBF12
:1000600011E0A0E6B0E0EEEAF8E402C005900D92DF
:10007000A23AB107D9F711E0A2EAB1E001C01D929E
:10008000A83CB107E1F70E9488220C9455240C94F7
:100090000000EF92FF920F931F937B018C0120E0F1
:1000A00030E040E05FE40E94250488238CF0C80122
:1000B000B70120E030E040E05FE40E94C1010E940F
:1000C000E3049B01AC01205030404040504806C042
:1000D000C801B7010E94E3049B01AC01B901CA0148
:1000E0001F910F91FF90EF900895A0E0B0E0EBE733
:1000F000F0E00C941E24DC012B01FA019C9192305B
:1001000008F439C1EB018881823008F433C194309E
:1001100069F4843009F02FC111969C91119789815F
:10012000981709F428C1A6E6B0E025C1843009F487
:1001300021C18230A9F4923009F01DC19A01AD01AC
:1001400088E0EA010990AE01E90109929E0181501F
:10015000C1F7E201898111969C918923818308C1AD
:10016000923009F407C112962D903C901397EB0141
:100170008A819B811496AD90BD90CD90DC901797AD
:10018000EC80FD800E811F819101281B390BB90184
:1001900037FF04C066277727621B730B6032710537
:1001A0000CF061C0121613066CF537014801062EDB
:1001B00004C096948794779467940A94D2F721E0C8
:1001C00030E040E050E004C0220F331F441F551FB1
:1001D0006A95D2F721503040404050402E213F21B7
:1001E00040235123211531054105510521F021E01E
:1001F00030E040E050E079018A01E628F72808293C
:1002000019293CC0232BD1F1260E371E350146019A
:10021000062E04C096948794779467940A94D2F734
:1002200021E030E040E050E004C0220F331F441FC3
:10023000551F6A95D2F721503040404050402A2146
:100240003B214C215D21211531054105510521F04E
:1002500021E030E040E050E059016A01A628B728CB
:10026000C828D9280BC0821593052CF01C01AA249C
:10027000BB24650103C0EE24FF24870111969C91E5
:10028000D20111968C91981709F445C0992339F041
:10029000A80197012A193B094C095D0906C0A6016E
:1002A00095012E193F09400B510B57FD08C01182D3
:1002B0003382228224833583468357831DC081E0A5
:1002C00081833382228288279927DC01821B930B4A
:1002D000A40BB50B84839583A683B7830DC0220F2F
:1002E000331F441F551F24833583468357838281E0
:1002F000938101979383828324813581468157813D
:10030000DA01C9010197A109B1098F5F9F4FAF4F72
:10031000BF4328F30BC0918333822282EA0CFB1C7B
:100320000C1D1D1DE482F5820683178383E0808304
:10033000248135814681578157FF1AC0C901AA27F8
:1003400097FDA095BA2F81709070A070B0705695EF
:10035000479537952795822B932BA42BB52B848318
:100360009583A683B7838281938101969383828349
:10037000DF0101C0D201CD01CDB7DEB7E2E10C94BF
:100380003A24A0E2B0E0E7ECF1E00C942A2469837F
:100390007A838B839C832D833E834F835887E9E048
:1003A000EE2EF12CEC0EFD1ECE010196B7010E943F
:1003B000D4068E010F5E1F4FCE010596B8010E9434
:1003C000D4068A8991E089278A8BC701B801AE01DA
:1003D000475E5F4F0E9475000E94FF05A096E6E011
:1003E0000C944624A0E2B0E0E8EFF1E00C942A245B
:1003F00069837A838B839C832D833E834F835887C5
:10040000F9E0EF2EF12CEC0EFD1ECE010196B701A6
:100410000E94D4068E010F5E1F4FCE010596B801D3
:100420000E94D406C701B801AE01475E5F4F0E942B
:1004300075000E94FF05A096E6E00C944624A0E219
:10044000B0E0E5E2F2E00C941E2469837A838B83AA
:100450009C832D833E834F835887CE010196BE0136
:10046000675F7F4F0E94D406CE010596BE016F5E86
:100470007F4F0E94D4069985923088F08989823016
:10048000C8F0943019F4823051F404C0843029F457
:10049000923081F486E690E0C6C0923049F420E0C4
:1004A0009A858A89981321E02A87CE010996BBC0D4
:1004B000823049F420E09A858A89981321E02A8BBA
:1004C000CE014196B0C02D843E844F8458886D88FB
:1004D0007E888F88988CEE24FF248701AA24BB2471
:1004E000650140E050E060E070E0E0E0F0E0C10174
:1004F00081709070892BE9F0E60CF71C081D191D1E
:100500009A01AB012A0D3B1D4C1D5D1D80E090E062
:10051000A0E0B0E0E614F7040805190520F481E036
:1005200090E0A0E0B0E0BA01A901480F591F6A1F8E
:100530007B1FAA0CBB1CCC1CDD1C97FE08C081E0F5
:1005400090E0A0E0B0E0A82AB92ACA2ADB2A3196B6
:10055000E032F10549F0660C771C881C991C569412
:10056000479437942794C3CFFA85EA892B893C892D
:100570008B859C85280F391F2E5F3F4F17C0CA01FE
:1005800081709070892B61F016950795F794E79428
:1005900080E090E0A0E0B0E8E82AF92A0A2B1B2BC3
:1005A00076956795579547952F5F3F4F77FDE7CF36
:1005B0000CC0440F551F661F771F17FD4160EE0CDE
:1005C000FF1C001F111F21503040403090E05907A0
:1005D00090E0690790E4790760F32B8F3C8FDB0193
:1005E000CA018F779070A070B07080349105A1051A
:1005F000B10561F447FD0AC0E114F10401051105DC
:1006000029F0405C5F4F6F4F7F4F40781A8EFE1786
:1006100011F081E08A8F4D8F5E8F6F8F78A383E01A
:10062000898FCE0149960E94FF05A096E2E10C94C5
:100630003A24A8E1B0E0EFE1F3E00C9426246983CA
:100640007A838B839C832D833E834F835887B9E0C5
:10065000EB2EF12CEC0EFD1ECE010196B7010E948F
:10066000D4068E010F5E1F4FCE010596B8010E9481
:10067000D4062985223008F47EC03989323010F43E
:10068000B8017CC08A859A8989278A87243011F02D
:10069000223031F4231709F06EC066E670E06EC0B8
:1006A000343039F41D861E861F86188A1C861B86E8
:1006B00004C0323021F484E08987B7015FC02B8504
:1006C0003C858B899C89281B390B3C872B87ED84C3
:1006D000FE840F851889AD88BE88CF88D88CEA142F
:1006E000FB040C051D0540F4EE0CFF1C001F111F40
:1006F000215030403C872B8720E030E040E050E044
:1007000080E090E0A0E0B0E460E070E0EA14FB0478
:100710000C051D0540F0282B392B4A2B5B2BEA18C2
:10072000FB080C091D09B695A79597958795EE0CC2
:10073000FF1C001F111F6F5F7F4F6F31710531F775
:10074000DA01C9018F779070A070B0708034910584
:10075000A105B10561F427FD0AC0E114F10401050A
:10076000110529F0205C3F4F4F4F5F4F20782D87B8
:100770003E874F87588BBE01675F7F4FCB010E943A
:10078000FF056896EAE00C944224A8E1B0E0EBECA7
:10079000F3E00C942A2469837A838B839C832D83D2
:1007A0003E834F83588789E0E82EF12CEC0EFD1E26
:1007B000CE010196B7010E94D4068E010F5E1F4F35
:1007C000CE010596B8010E94D4068985823040F09A
:1007D0008989823028F0C701B8010E944C0701C006
:1007E00081E06896E6E00C944624A8E1B0E0EBEFE7
:1007F000F3E00C942A2469837A838B839C832D8372
:100800003E834F83588789E0E82EF12CEC0EFD1EC5
:10081000CE010196B7010E94D4068E010F5E1F4FD4
:10082000CE010596B8010E94D4068985823040F039
:100830008989823028F0C701B8010E944C0701C0A5
:100840008FEF6896E6E00C944624A8E1B0E0EBE276
:10085000F4E00C942A2469837A838B839C832D8310
:100860003E834F83588789E0E82EF12CEC0EFD1E65
:10087000CE010196B7010E94D4068E010F5E1F4F74
:10088000CE010596B8010E94D4068985823040F0D9
:100890008989823028F0C701B8010E944C0701C045
:1008A0008FEF6896E6E00C944624A8E1B0E0EBE513
:1008B000F4E00C942A2469837A838B839C832D83B0
:1008C0003E834F83588789E0E82EF12CEC0EFD1E05
:1008D000CE010196B7010E94D4068E010F5E1F4F14
:1008E000CE010596B8010E94D4068985823040F079
:1008F0008989823028F0C701B8010E944C0701C0E5
:1009000081E06896E6E00C944624A8E0B0E0EBE8CD
:10091000F4E00C9427249B01AC0183E08983DA0185
:10092000C9018827B7FD83959927AA27BB27B82E29
:10093000211531054105510519F482E089833AC03A
:100940008823A9F0203080E0380780E0480780E85D
:10095000580729F460E070E080E09FEC30C0EE249E
:10096000FF248701E21AF30A040B150B02C0790178
:100970008A018EE1C82ED12CDC82CB82ED82FE82F0
:100980000F831887C801B7010E94B0050197181698
:10099000190684F4082E04C0EE0CFF1C001F111F62
:1009A0000A94D2F7ED82FE820F831887C81AD90AFB
:1009B000DC82CB82BA82CE0101960E94FF05289686
:1009C000E9E00C944324ACE0B0E0E9EEF4E00C94F0
:1009D0002E2469837A838B839C83CE010196BE018A
:1009E0006B5F7F4F0E94D4068D81823061F182302F
:1009F00050F1843021F48E81882351F12EC02F8153
:100A0000388537FD20C06E812F3131051CF06623FB
:100A1000F9F023C08EE190E0821B930B29853A8583
:100A20004B855C8504C056954795379527958A95E3
:100A3000D2F76623B1F050954095309521953F4F00
:100A40004F4F5F4F0EC020E030E040E050E009C063
:100A50002FEF3FEF4FEF5FE704C020E030E040E0D2
:100A600050E8B901CA012C96E2E00C944A24A8E0AF
:100A7000B0E0EDE3F5E00C9426247B018C016115D8
:100A800071058105910519F482E0898360C083E0D6
:100A900089838EE1C82ED12CDC82CB82ED82FE824E
:100AA0000F831887C801B7010E94B005FC01319778
:100AB000F7FF3BC0222733272E1B3F0B570168014E
:100AC000022E04C0D694C794B794A7940A94D2F780
:100AD00040E050E060E070E081E090E0A0E0B0E055
:100AE00004C0880F991FAA1FBB1F2A95D2F7019730
:100AF000A109B1098E219F21A023B1230097A1054F
:100B0000B10521F041E050E060E070E04A295B2946
:100B10006C297D294D835E836F8378878EE190E019
:100B20008E1B9F0B9C838B8312C0309781F00E2EFF
:100B300004C0EE0CFF1C001F111F0A94D2F7ED82B7
:100B4000FE820F831887CE1ADF0ADC82CB821A82DC
:100B5000CE0101960E94FF052896EAE00C944224FB
:100B6000EF92FF920F931F937B018C0180E0E816B8
:100B700080E0F80681E0080780E0180788F48FEF2E
:100B8000E816F1040105110531F028F088E090E045
:100B9000A0E0B0E017C080E090E0A0E0B0E012C0BC
:100BA00080E0E81680E0F80680E0080781E018079A
:100BB00028F088E190E0A0E0B0E004C080E190E09F
:100BC000A0E0B0E020E230E040E050E0281B390B2C
:100BD0004A0B5B0B04C016950795F794E7948A952A
:100BE000D2F7F701E259FF4F8081281B31094109F3
:100BF0005109C9011F910F91FF90EF900895DF9265
:100C0000EF92FF920F931F93FC01E480F580068121
:100C10001781D1808081823048F480E090E0A0E1AB
:100C2000B0E0E82AF92A0A2B1B2BA5C0843009F46E
:100C30009FC0823021F4EE24FF24870105C0E11417
:100C4000F1040105110519F4E0E0F0E096C06281BD
:100C500073819FEF623879070CF05BC022E83FEFA9
:100C6000261B370B2A3131052CF020E030E040E024
:100C700050E02AC0B801A701022E04C076956795FE
:100C8000579547950A94D2F781E090E0A0E0B0E054
:100C900004C0880F991FAA1FBB1F2A95D2F701977E
:100CA000A109B1098E219F21A023B1230097A1059D
:100CB000B10521F081E090E0A0E0B0E09A01AB0145
:100CC000282B392B4A2B5B2BDA01C9018F779070C7
:100CD000A070B07080349105A105B10539F427FFEB
:100CE00009C0205C3F4F4F4F5F4F04C0215C3F4F16
:100CF0004F4F5F4FE0E0F0E02030A0E03A07A0E087
:100D00004A07A0E45A0710F0E1E0F0E079018A0117
:100D100027C06038710564F5FB01E158FF4FD80129
:100D2000C7018F779070A070B07080349105A105D5
:100D3000B10539F4E7FE0DC080E490E0A0E0B0E03A
:100D400004C08FE390E0A0E0B0E0E80EF91E0A1FB7
:100D50001B1F17FF05C016950795F794E79431966A
:100D600087E016950795F794E7948A95D1F705C023
:100D7000EE24FF248701EFEFF0E06E2F67956627E2
:100D80006795902F9F77D794DD24D7948E2F8695E3
:100D9000492F462B582F5D29B701CA011F910F918A
:100DA000FF90EF90DF900895FC01DB0140815181BD
:100DB0002281622F6F7770E0221F2227221F9381EA
:100DC000892F880F822B282F30E0991F9927991F90
:100DD00011969C93119721153105A9F541155105DF
:100DE0006105710511F482E037C082E89FEF139628
:100DF0009C938E9312979A01AB0167E0220F331FE9
:100E0000441F551F6A95D1F783E08C930DC0220FC4
:100E1000331F441F551F12968D919C911397019774
:100E200013969C938E931297203080E0380780E0D1
:100E3000480780E4580758F314962D933D934D933B
:100E40005C93179708952F3F310579F441155105AB
:100E50006105710519F484E08C93089564FF03C063
:100E600081E08C9312C01C9210C02F573040139613
:100E70003C932E93129783E08C9387E0440F551F89
:100E8000661F771F8A95D1F7706414964D935D9312
:100E90006D937C93179708951F93DC01FB019C9140
:100EA000923008F447C08081823008F443C0943007
:100EB00051F411961C91843099F58181682F70E06E
:100EC000611B71093FC0843021F0923031F48230CF
:100ED000B9F18181882389F12DC011961C91119758
:100EE0008230F1F081811817D9F412962D913C913E
:100EF0001397828193818217930794F028173907FB
:100F0000BCF014968D919D910D90BC91A02D2481E3
:100F1000358146815781281739074A075B0718F43E
:100F2000112341F00AC082179307A407B50740F4C4
:100F3000112319F061E070E005C06FEF7FEF02C090
:100F400060E070E0CB011F910895DF93CF930F9283
:100F5000CDB7DEB78983A1E4B0E0E1E4F0E08081C1
:100F6000887F8C93A1E4B0E0E1E4F0E09081898196
:100F7000892B8C930F90CF91DF910895DF93CF93BE
:100F8000CDB7DEB7A1E4B0E0E1E4F0E080818860B5
:100F90008C93CF91DF910895DF93CF93CDB7DEB7D8
:100FA000A1E4B0E0E1E4F0E0808188618C93E1E4C9
:100FB000F0E01082CF91DF910895DF93CF93CDB70A
:100FC000DEB7A895CF91DF910895DF93CF93CDB78A
:100FD000DEB7A3E5B0E0E3E5F0E0808180648C93C8
:100FE000A3E5B0E0E3E5F0E0808188608C93ECE578
:100FF000F0E080E48083A3E5B0E0E3E5F0E0808109
:101000008F7E8C93A3E5B0E0E3E5F0E08081806221
:101010008C93A3E5B0E0E3E5F0E080818E7F8C93D4
:10102000A3E5B0E0E3E5F0E0808182608C93A3E586
:10103000B0E0E3E5F0E080818E7F8C93CF91DF918B
:101040000895DF93CF930F92CDB7DEB78983ECE598
:10105000F0E0898180830F90CF91DF910895DF9335
:10106000CF9300D00F92CDB7DEB79B838A8381E008
:1010700089838A819B81009739F08A819B81909333
:10108000A3018093A20102C086E0898389810F9029
:101090000F900F90CF91DF910895DF93CF93CDB74D
:1010A000DEB7AEE4B0E0EEE4F0E08081887F8C93C0
:1010B000AEE4B0E0EEE4F0E0808183608C93CF9109
:1010C000DF910895DF93CF93CDB7DEB7AEE4B0E004
:1010D000EEE4F0E08081887F8C93CF91DF910895DA
:1010E000DF93CF9300D0CDB7DEB79A838983ECE44A
:1010F000F0E089819A81918380830F900F90CF9146
:10110000DF910895DF93CF93CDB7DEB7ECE4F0E045
:1011100080819181CF91DF910895DF93CF9300D0AB
:10112000CDB7DEB79A838983E6E4F0E089819A81BE
:10113000918380830F900F90CF91DF910895DF937B
:10114000CF9300D0CDB7DEB79A838983EAE4F0E08D
:1011500089819A81918380830F900F90CF91DF9145
:101160000895DF93CF93CDB7DEB7AEE4B0E0EEE401
:10117000F0E0808180648C93A9E5B0E0E9E5F0E0DF
:10118000808180628C93CF91DF910895DF93CF931C
:1011900000D0CDB7DEB78A8381E089838A81813030
:1011A00041F4AEE4B0E0EEE4F0E0808180648C9342
:1011B0000CC08A81882341F4AEE4B0E0EEE4F0E0B4
:1011C00080818F7B8C9301C0198289810F900F9051
:1011D000CF91DF910895DF93CF93CDB7DEB7A9E527
:1011E000B0E0E9E5F0E0808180628C93CF91DF91FF
:1011F0000895DF93CF93CDB7DEB7A9E5B0E0E9E579
:10120000F0E080818F7D8C93CF91DF910895DF9303
:10121000CF93CDB7DEB7E6E4F0E080819181CF9146
:10122000DF910895DF93CF93CDB7DEB7E8E5F0E027
:1012300080818295869587708170CF91DF91089526
:10124000DF93CF93CDB7DEB7A8E5B0E0E8E5F0E0F7
:10125000808180628C93CF91DF910895DF93CF934B
:10126000CDB7DEB7AEE4B0E0EEE4F0E080818068B8
:101270008C93CF91DF910895DF93CF9300D00F929D
:10128000CDB7DEB79B838A8381E089838A819B8186
:10129000009739F08A819B819093A5018093A401E6
:1012A00002C086E0898389810F900F900F90CF91C3
:1012B000DF9108951F920F920FB60F9211242F9372
:1012C0003F934F935F936F937F938F939F93AF93CE
:1012D000BF93EF93FF93DF93CF93CDB7DEB78091AA
:1012E000A2019091A301009729F0E091A201F09151
:1012F000A3010995CF91DF91FF91EF91BF91AF913C
:101300009F918F917F916F915F914F913F912F911D
:101310000F900FBE0F901F9018951F920F920FB64F
:101320000F9211242F933F934F935F936F937F936B
:101330008F939F93AF93BF93EF93FF93DF93CF93DD
:10134000CDB7DEB78091A4019091A501009729F057
:10135000E091A401F091A5010995CF91DF91FF9152
:10136000EF91BF91AF919F918F917F916F915F911D
:101370004F913F912F910F900FBE0F901F90189596
:10138000DF93CF93CDB7DEB7CF91DF910895DF9391
:10139000CF93CDB7DEB763970FB6F894DEBF0FBE1D
:1013A000CDBF6E877F87888B998B5B8B4A8B82E062
:1013B0008D878A899B899093A7018093A60180914C
:1013C000720190917301CC01A0E0B0E0BC01CD01AD
:1013D0000E943705DC01CB0189879A87AB87BC87E0
:1013E00069857A858B859C8520E030E040E851E472
:1013F0000E941903DC01CB018D839E83AF83B887E4
:101400008E859F85A889B98928EE33E040E050E0B9
:10141000BC01CD010E949B23DC01CB01BC01CD01AD
:101420000E943705DC01CB01BC01CD012D813E813D
:101430004F8158850E941903DC01CB01BC01CD010D
:101440000E944900DC01CB0189839A83AB83BC8372
:101450008D8563960FB6F894DEBF0FBECDBFCF91DA
:10146000DF910895DF93CF930F92CDB7DEB782E07F
:101470008983A3E5B0E0E3E5F0E08081887F8C9389
:10148000A3E5B0E0E3E5F0E0808183608C9389819F
:101490000F90CF91DF910895DF93CF930F92CDB747
:1014A000DEB782E08983A3E5B0E0E3E5F0E0808188
:1014B000887F8C9389810F90CF91DF910895DF937E
:1014C000CF93CDB7DEB7A3E5B0E0E3E5F0E08081F0
:1014D000887F8C93A3E5B0E0E3E5F0E0808186604F
:1014E0008C93CF91DF910895DF93CF93CDB7DEB783
:1014F000E2E5F0E08081CF91DF910895DF93CF9313
:10150000CDB7DEB7E2E5F0E08081CF91DF910895BD
:10151000DF93CF930F92CDB7DEB78983E2E5F0E09A
:10152000898180830F90CF91DF910895DF93CF93CE
:1015300000D000D0CDB7DEB7E2E5F0E01082E2E502
:10154000F0E08081282F30E040E050E08091A80159
:101550009091A901A091AA01B091AB01BA2FA92F36
:10156000982F8827820F931FA41FB51F89839A8302
:10157000AB83BC8389819A81AB81BC81BC01CD01E5
:101580000F900F900F900F90CF91DF910895DF9300
:10159000CF9300D00F92CDB7DEB789838981282FF2
:1015A00030E03B832A838A819B81009731F02A8136
:1015B0003B812130310549F00FC0A9E5B0E0E9E5F4
:1015C000F0E0808181608C9307C0A9E5B0E0E9E597
:1015D000F0E0808182608C930F900F900F90CF91FC
:1015E000DF910895DF93CF9300D00F92CDB7DEB790
:1015F00089838981282F30E03B832A838A819B81DC
:10160000009731F02A813B812130310549F00FC02C
:10161000A9E5B0E0E9E5F0E080818E7F8C9307C01A
:10162000A9E5B0E0E9E5F0E080818D7F8C930F9033
:101630000F900F90CF91DF910895DF93CF930F928A
:10164000CDB7DEB782E08983A3E5B0E0E3E5F0E063
:10165000808180648C93A3E5B0E0E3E5F0E08081D5
:1016600088608C93A3E5B0E0E3E5F0E080818F7EB5
:101670008C93A3E5B0E0E3E5F0E080818F7D8C936F
:10168000A3E5B0E0E3E5F0E080818F7E8C93A3E5F5
:10169000B0E0E3E5F0E0808180628C9389810F9077
:1016A000CF91DF910895DF93CF9300D0CDB7DEB710
:1016B0008A8382E08983ECE5F0E08A81882F90E0DC
:1016C000982F882724E630E0B9010E94BA23CB0185
:1016D0008150808389810F900F90CF91DF91089581
:1016E000DF93CF930F92CDB7DEB782E08983A3E576
:1016F000B0E0E3E5F0E08081887F8C93A3E5B0E083
:10170000E3E5F0E0808183608C9389810F90CF9135
:10171000DF910895DF93CF930F92CDB7DEB782E0CC
:101720008983A3E5B0E0E3E5F0E08081887F8C93D6
:1017300089810F90CF91DF910895DF93CF93CDB73B
:10174000DEB7AFE5B0E0EFE5F0E0808180688C9334
:10175000CF91DF910895DF93CF93CDB7DEB7AFE59B
:10176000B0E0EFE5F0E080818F778C93CF91DF914F
:101770000895DF93CF93CDB7DEB72D970FB6F894CA
:10178000DEBF0FBECDBF8A836B835D834C8381E058
:1017900089838A81282F30E03D872C878C859D8521
:1017A0008230910509F47EC02C853D8523303105BA
:1017B00009F4EAC08C859D858130910509F01AC134
:1017C0008C819D81009739F08C819D819093AD0132
:1017D0008093AC0102C086E089838B81282F30E0A2
:1017E0003B872A878A859B858230910529F12A8546
:1017F0003B852330310534F48A859B858130910502
:1018000061F047C02A853B852330310521F18A8567
:101810009B858430910571F13CC0A5E5B0E0E5E51C
:10182000F0E080818E7F8C93A5E5B0E0E5E5F0E007
:1018300080818D7F8C932EC0A5E5B0E0E5E5F0E0DA
:10184000808181608C93A5E5B0E0E5E5F0E08081E2
:101850008D7F8C931FC0A5E5B0E0E5E5F0E08081C9
:1018600082608C93A5E5B0E0E5E5F0E080818E7FB5
:101870008C9310C0A5E5B0E0E5E5F0E080818260E2
:101880008C93A5E5B0E0E5E5F0E0808181608C9384
:1018900001C01982ABE5B0E0EBE5F0E08081806447
:1018A0008C93A9C08C819D81009739F08C819D819A
:1018B0009093B1018093B00102C086E089838B814F
:1018C000282F30E0398728878885998582309105CF
:1018D00029F1288539852330310534F488859985A7
:1018E0008130910561F047C0288539852330310565
:1018F00021F1888599858430910571F13CC0A5E579
:10190000B0E0E5E5F0E080818B7F8C93A5E5B0E069
:10191000E5E5F0E08081877F8C932EC0A5E5B0E0FF
:10192000E5E5F0E0808184608C93A5E5B0E0E5E535
:10193000F0E08081877F8C931FC0A5E5B0E0E5E5EE
:10194000F0E0808188608C93A5E5B0E0E5E5F0E00B
:1019500080818B7F8C9310C0A5E5B0E0E5E5F0E0D9
:10196000808188608C93A5E5B0E0E5E5F0E08081BA
:1019700084608C9301C01982ABE5B0E0EBE5F0E048
:10198000808180688C9337C08C819D81009739F06D
:101990008C819D819093B3018093B20102C086E057
:1019A00089838B81282F30E03F832E838E819F8116
:1019B0008330910531F02E813F812430310549F08B
:1019C00010C0A4E5B0E0E4E5F0E080818F7B8C936B
:1019D00009C0A4E5B0E0E4E5F0E0808180648C9388
:1019E00001C01982ABE5B0E0EBE5F0E080818062F8
:1019F0008C9301C0198289812D960FB6F894DEBFB1
:101A00000FBECDBFCF91DF910895DF93CF9300D06C
:101A100000D0CDB7DEB78A8381E089838A81282F01
:101A200030E03C832B838B819C818230910591F047
:101A30002B813C8123303105A9F08B819C81813041
:101A40009105C1F4ABE5B0E0EBE5F0E080818F7B80
:101A50008C9311C0ABE5B0E0EBE5F0E080818F77CF
:101A60008C9309C0ABE5B0E0EBE5F0E080818F7DC1
:101A70008C9301C0198289810F900F900F900F9065
:101A8000CF91DF910895DF93CF9300D0CDB7DEB72C
:101A90009A83898389819A819093AF018093AE0163
:101AA0000F900F90CF91DF9108951F920F920FB674
:101AB0000F9211242F933F934F935F936F937F93D4
:101AC0008F939F93AF93BF93EF93FF93DF93CF9346
:101AD000CDB7DEB78091AC019091AD01009729F0B0
:101AE000E091AC01F091AD010995CF91DF91FF91AB
:101AF000EF91BF91AF919F918F917F916F915F9186
:101B00004F913F912F910F900FBE0F901F901895FE
:101B10001F920F920FB60F9211242F933F934F9362
:101B20005F936F937F938F939F93AF93BF93EF9345
:101B3000FF93DF93CF93CDB7DEB78091B001909143
:101B4000B101009729F0E091B001F091B101099540
:101B5000CF91DF91FF91EF91BF91AF919F918F91C5
:101B60007F916F915F914F913F912F910F900FBE99
:101B70000F901F9018951F920F920FB60F9211247D
:101B80002F933F934F935F936F937F938F939F9385
:101B9000AF93BF93EF93FF93DF93CF93CDB7DEB7B0
:101BA0008091B2019091B301009729F0E091B201C8
:101BB000F091B3010995CF91DF91FF91EF91BF9122
:101BC000AF919F918F917F916F915F914F913F91D5
:101BD0002F910F900FBE0F901F901895DF93CF930A
:101BE000CDB7DEB728970FB6F894DEBF0FBECDBFD6
:101BF0008A836B834C8381E089838B81883008F0F2
:101C0000F1C08C81882309F076C08A81282F30E0CA
:101C100038872F838F8198858130910559F12F81E5
:101C20003885223031052CF48F819885009769F032
:101C300060C02F8138852230310589F18F819885E8
:101C40008330910509F440C054C0AAE3B0E0EAE350
:101C5000F0E08081482F8B81282F30E081E090E0F8
:101C6000022E02C0880F991F0A94E2F78095842300
:101C70008C93B9C0A7E3B0E0E7E3F0E08081482FA0
:101C80008B81282F30E081E090E0022E02C0880F87
:101C9000991F0A94E2F7809584238C93A4C0A4E34F
:101CA000B0E0E4E3F0E08081482F8B81282F30E022
:101CB00081E090E0022E02C0880F991F0A94E2F79B
:101CC000809584238C938FC0A1E3B0E0E1E3F0E042
:101CD0008081482F8B81282F30E081E090E0022E18
:101CE00002C0880F991F0A94E2F7809584238C9391
:101CF0007AC0198278C08C81813009F071C08A81E4
:101D0000282F30E03E832D838D819E818130910587
:101D100049F12D813E81223031052CF48D819E8147
:101D2000009761F05BC02D813E812230310571F159
:101D30008D819E8183309105E9F150C0AAE3B0E026
:101D4000EAE3F0E08081482F8B81282F30E081E0AA
:101D500090E0022E02C0880F991F0A94E2F7842BAC
:101D60008C9341C0A7E3B0E0E7E3F0E08081482F27
:101D70008B81282F30E081E090E0022E02C0880F96
:101D8000991F0A94E2F7842B8C932DC0A4E3B0E052
:101D9000E4E3F0E08081482F8B81282F30E081E060
:101DA00090E0022E02C0880F991F0A94E2F7842B5C
:101DB0008C9319C0A1E3B0E0E1E3F0E08081482F0B
:101DC0008B81282F30E081E090E0022E02C0880F46
:101DD000991F0A94E2F7842B8C9305C0198203C0E3
:101DE000198201C01982898128960FB6F894DEBF46
:101DF0000FBECDBFCF91DF910895DF93CF9300D079
:101E000000D00F92CDB7DEB78A836B8381E08983E0
:101E10008A818430A8F58A81282F30E03D832C8385
:101E20008C819D8181309105D1F02C813D812230C2
:101E300031052CF48C819D81009761F01FC02C81AD
:101E40003D812230310581F08C819D818330910567
:101E500081F014C0EAE3F0E08B81808312C0E7E3F5
:101E6000F0E08B8180830DC0E4E3F0E08B81808320
:101E700008C0E1E3F0E08B81808303C0198201C0D8
:101E8000198289810F900F900F900F900F90CF9132
:101E9000DF910895DF93CF93CDB7DEB728970FB6C4
:101EA000F894DEBF0FBECDBF8A836B834C8381E085
:101EB00089838B81883008F0EFC08C81882309F0FA
:101EC00074C08A81282F30E038872F838F819885CE
:101ED0008130910559F12F813885223031052CF45C
:101EE0008F819885009769F0D8C02F81388522307E
:101EF000310589F18F8198858330910509F440C0BF
:101F0000CCC0ABE3B0E0EBE3F0E08081482F8B8105
:101F1000282F30E081E090E0022E02C0880F991F48
:101F20000A94E2F7809584238C93B7C0A8E3B0E0CD
:101F3000E8E3F0E08081482F8B81282F30E081E0BA
:101F400090E0022E02C0880F991F0A94E2F7809554
:101F500084238C93A2C0A5E3B0E0E5E3F0E08081A8
:101F6000482F8B81282F30E081E090E0022E02C0C4
:101F7000880F991F0A94E2F7809584238C938DC073
:101F8000A2E3B0E0E2E3F0E08081482F8B81282FCC
:101F900030E081E090E0022E02C0880F991F0A9481
:101FA000E2F7809584238C9378C08C81813009F08E
:101FB00071C08A81282F30E03E832D838D819E81E0
:101FC0008130910549F12D813E81223031052CF47B
:101FD0008D819E81009761F05BC02D813E81223012
:101FE000310571F18D819E8183309105E9F150C0F9
:101FF000ABE3B0E0EBE3F0E08081482F8B81282F4A
:1020000030E081E090E0022E02C0880F991F0A9410
:10201000E2F7842B8C9341C0A8E3B0E0E8E3F0E062
:102020008081482F8B81282F30E081E090E0022EC4
:1020300002C0880F991F0A94E2F7842B8C932DC05D
:10204000A5E3B0E0E5E3F0E08081482F8B81282F05
:1020500030E081E090E0022E02C0880F991F0A94C0
:10206000E2F7842B8C9319C0A2E3B0E0E2E3F0E046
:102070008081482F8B81282F30E081E090E0022E74
:1020800002C0880F991F0A94E2F7842B8C9305C035
:10209000198203C0198201C01982898128960FB65E
:1020A000F894DEBF0FBECDBFCF91DF910895DF93CF
:1020B000CF9300D000D00F92CDB7DEB78A836B8369
:1020C00081E089838A818430A8F58A81282F30E0D5
:1020D0003D832C838C819D8181309105D1F02C81B1
:1020E0003D81223031052CF48C819D81009761F077
:1020F0001FC02C813D812230310581F08C819D8172
:102100008330910581F014C0EBE3F0E08B81808394
:1021100012C0E8E3F0E08B8180830DC0E5E3F0E0DE
:102120008B81808308C0E2E3F0E08B81808303C071
:10213000198201C0198289810F900F900F900F9022
:102140000F90CF91DF910895DF93CF93CDB7DEB796
:1021500027970FB6F894DEBF0FBECDBF8A836B837F
:102160005D834C8381E089838C819D81009709F494
:1021700077C08B81883008F073C08A81282F30E0C7
:102180003F832E834E815F814130510559F18E810D
:102190009F818230910534F42E813F8121153105D4
:1021A00069F05CC04E815F814230510579F18E81CA
:1021B0009F818330910509F43DC050C0E9E3F0E010
:1021C0008081282F30E08B81882F90E0A90102C008
:1021D000559547958A95E2F7CA018170EC81FD819A
:1021E00080833FC0E6E3F0E08081282F30E08B81E0
:1021F000882F90E0A90102C0559547958A95E2F78E
:10220000CA018170EC81FD8180832BC0E3E3F0E0A3
:102210008081282F30E08B81882F90E0A90102C0B7
:10222000559547958A95E2F7CA018170EC81FD8149
:10223000808317C0E0E3F0E08081282F30E08B81BD
:10224000882F90E0A90102C0559547958A95E2F73D
:10225000CA018170EC81FD81808303C0198201C0B5
:102260001982898127960FB6F894DEBF0FBECDBFC5
:10227000CF91DF910895DF93CF9300D000D000D0AD
:10228000CDB7DEB78A837C836B8381E089838B81C2
:102290009C81009709F440C08A818430E8F58A81E6
:1022A000282F30E03E832D838D819E8181309105E2
:1022B000E1F02D813E81223031052CF48D819E810B
:1022C000009761F027C02D813E8122303105A1F0B9
:1022D0008D819E8183309105B1F01CC0E9E3F0E06F
:1022E0008081EB81FC81808318C0E6E3F0E080818F
:1022F000EB81FC81808311C0E3E3F0E08081EB811E
:10230000FC8180830AC0E0E3F0E08081EB81FC8106
:10231000808303C0198201C01982898126960FB675
:10232000F894DEBF0FBECDBFCF91DF910895DF934C
:10233000CF93CDB7DEB727970FB6F894DEBF0FBEA9
:10234000CDBF8A836B835D834C8381E089838C81DD
:102350009D81009709F449C08A81843008F045C006
:102360008A81282F30E03F832E838E819F818130A8
:102370009105F1F02E813F81223031052CF48E81C0
:102380009F81009761F02FC02E813F81223031055F
:10239000C1F08E819F8183309105E1F024C0EBE391
:1023A000F0E090818B818923EC81FD8180831EC0C8
:1023B000E8E3F0E090818B818923EC81FD818083CB
:1023C00015C0E5E3F0E090818B818923EC81FD81EC
:1023D00080830CC0E2E3F0E090818B818923EC8163
:1023E000FD81808303C0198201C0198289812796EB
:1023F0000FB6F894DEBF0FBECDBFCF91DF91089529
:10240000DF93CF9300D000D00F92CDB7DEB78A8391
:102410006B8381E089838A81843008F075C08B8169
:10242000883008F071C08A81282F30E03D832C83EA
:102430008C819D818130910549F12C813D81223033
:1024400031052CF48C819D81009761F05BC02C815B
:102450003D812230310571F18C819D818330910560
:10246000E9F150C0ABE3B0E0EBE3F0E08081482F4E
:102470008B81282F30E081E090E0022E02C0880F8F
:10248000991F0A94E2F784278C933FC0A8E3B0E039
:10249000E8E3F0E08081482F8B81282F30E081E055
:1024A00090E0022E02C0880F991F0A94E2F7842759
:1024B0008C932BC0A5E3B0E0E5E3F0E08081482FEA
:1024C0008B81282F30E081E090E0022E02C0880F3F
:1024D000991F0A94E2F784278C9317C0A2E3B0E017
:1024E000E2E3F0E08081482F8B81282F30E081E00B
:1024F00090E0022E02C0880F991F0A94E2F7842709
:102500008C9303C0198201C0198289810F900F90AA
:102510000F900F900F90CF91DF910895DF93CF939D
:10252000CDB7DEB7A7E2B0E0E7E2F0E080818F73DD
:102530008C93A7E2B0E0E7E2F0E0808180648C93C6
:10254000A7E2B0E0E7E2F0E080818F7D8C93A7E224
:10255000B0E0E7E2F0E080818C93A6E2B0E0E6E252
:10256000F0E0808180628C93A0E5B0E0E0E5F0E0EF
:1025700080818F718C93A0E5B0E0E0E5F0E0808190
:102580008C93A6E2B0E0E6E2F0E08081887F8C9355
:10259000A6E2B0E0E6E2F0E0808187608C93A6E2FC
:1025A000B0E0E6E2F0E0808180688C93CF91DF912B
:1025B0000895DF93CF93CDB7DEB728970FB6F89481
:1025C000DEBF0FBECDBF8E8378876F8381E08D83A2
:1025D00019821A821B821C828091B401882309F01F
:1025E00054C081E08093B401A7E2B0E0E7E2F0E0FC
:1025F0008081807E8C93A7E2B0E0E7E2F0E09081FA
:102600008E81892B8C930BC089819A81AB81BC818F
:102610000196A11DB11D89839A83AB83BC83E6E239
:10262000F0E0808182958F70882F90E081709070AB
:10263000009761F489819A81AB81BC81803523EC5C
:10264000920720E0A20720E0B207F1F6E6E2F0E010
:10265000808182958F70882F90E0817090708823A0
:1026600081F0A6E2B0E0E6E2F0E0808180618C9348
:10267000E4E2F0E080819181EF81F88591838083AD
:1026800001C01D821092B40102C087E08D838D814C
:1026900028960FB6F894DEBF0FBECDBFCF91DF9165
:1026A0000895DF93CF9300D000D000D0CDB7DEB730
:1026B0008A837C836B835E834D8381E089838091F1
:1026C000B401882351F581E08093B4011092BF01D9
:1026D0008B819C819093B8018093B7018D819E81FD
:1026E0009093B6018093B501A7E2B0E0E7E2F0E095
:1026F0008081807E8C93A7E2B0E0E7E2F0E09081F9
:102700008A81892B8C93A6E2B0E0E6E2F0E080813A
:1027100080648C930E94FA1302C087E089838981C8
:1027200026960FB6F894DEBF0FBECDBFCF91DF91D6
:102730000895DF93CF9300D00F92CDB7DEB79B8380
:102740008A8381E089838A819B81009719F486E0DE
:10275000898349C08091B401882309F042C081E097
:102760008093B40181E08093BF01EA81FB81828183
:1027700093819093BC018093BB01EA81FB818081AE
:1027800091819093BA018093B901EA81FB818481A0
:102790008093BD01EA81FB81858196819093B6018A
:1027A0008093B5011092BE01A7E2B0E0E7E2F0E04D
:1027B0008081807E8C93A7E2B0E0E7E2F0E0408188
:1027C000EA81FB81228133818091BE01882F90E0D4
:1027D000F901E80FF91F8081842B8C930E94FA1372
:1027E00002C087E0898389810F900F900F90CF916D
:1027F000DF910895DF93CF93CDB7DEB7A6E2B0E0C7
:10280000E6E2F0E0808188608C93CF91DF910895BB
:10281000DF93CF93CDB7DEB7A6E2B0E0E6E2F0E01B
:102820008081877F8C93CF91DF9108951F920F92C3
:102830000FB60F9211242F933F934F935F936F9393
:102840007F938F939F93AF93BF93EF93FF93DF9308
:10285000CF93CDB7DEB78091BF01882391F4A091CB
:10286000B701B091B801E4E2F0E0808191818D93ED
:102870009C931092B401E091B501F091B6010995D5
:102880004FC08091BF01813009F04AC02091B7014B
:102890003091B8018091BE01882F90E0880F991F78
:1028A000D901A80FB91FE4E2F0E08081918111966F
:1028B0009C938E938091BE018F5F8093BE01909117
:1028C000BE018091BD01981751F41092B401E091BE
:1028D000B501F091B60109950E94081421C0A7E244
:1028E000B0E0E7E2F0E08081807E8C93A7E2B0E088
:1028F000E7E2F0E040812091BB013091BC01809182
:10290000BE01882F90E0F901E80FF91F8081842B28
:102910008C93A6E2B0E0E6E2F0E0808180648C93E4
:10292000CF91DF91FF91EF91BF91AF919F918F91E7
:102930007F916F915F914F913F912F910F900FBEBB
:102940000F901F901895DF93CF93CDB7DEB783E03C
:1029500067E041E00E94EE0D83E066E040E00E9407
:10296000EE0D0E942009CF91DF910895DF93CF9360
:10297000CDB7DEB72E970FB6F894DEBF0FBECDBF32
:1029800083E067E041E00E944A0F80E090E0A8E425
:10299000B2E48B879C87AD87BE876B857C858D85F0
:1029A0009E8520E030E04AE755E40E941F02DC01EA
:1029B000CB018F839887A987BA876F8178858985AE
:1029C0009A8520E030E040E85FE30E9455048823C8
:1029D0002CF481E090E09E838D833FC06F817885E9
:1029E00089859A8520E03FEF4FE757E40E94F50381
:1029F00018164CF56B857C858D859E8520E030E032
:102A000040E251E40E941F02DC01CB01BC01CD0178
:102A10000E944900DC01CB019E838D830FC080E9B9
:102A200091E09C838B838B819C810197F1F79C8340
:102A30008B838D819E8101979E838D838D819E8165
:102A4000009769F714C06F81788589859A850E94FF
:102A50004900DC01CB019E838D838D819E819A8309
:102A6000898389819A810197F1F79A83898383E029
:102A700067E040E00E944A0F2E960FB6F894DEBF42
:102A80000FBECDBFCF91DF910895DF93CF93CDB728
:102A9000DEB781E00E94C6080E942E090E946208EB
:102AA0000E9412098823E1F30E9407099093C10153
:102AB0008093C0010E942009CF91DF910895DF9398
:102AC000CF93CDB7DEB781E00E94C6080E942E09E1
:102AD0000E9462080E9412098823E1F30E940709FC
:102AE0009093C1018093C0010E94200980E090E092
:102AF0000E9470080E946208CF91DF910895DF93D1
:102B0000CF93CDB7DEB728970FB6F894DEBF0FBED0
:102B1000CDBF2091C2013091C3018091C00190913D
:102B2000C101A901481B590BCA01CC01A0E0B0E0CA
:102B30008D839E83AF83B88719821A821B821C8281
:102B40008D819E81AF81B88528E237E840E050E072
:102B5000BC01CD010E949B23DC01CB0120E038E4C5
:102B600048EE51E0BC01CD010E94CD23DA01C9013C
:102B700089839A83AB83BC8389819A81AB81BC8131
:102B8000BC01CD0128960FB6F894DEBF0FBECDBFB5
:102B9000CF91DF910895DF93CF930F92CDB7DEB73A
:102BA00081E0898381E060E041E00E94EE0D81E0F8
:102BB00061E041E00E94EE0D81E062E041E00E94B0
:102BC000EE0D81E064E041E00E94EE0D80E063E004
:102BD00041E00E94EE0D80E062E041E00E94EE0DD7
:102BE00081E065E041E00E94EE0D81E066E041E0B9
:102BF0000E94EE0D89810F90CF91DF910895DF93B0
:102C0000CF9300D0CDB7DEB78A8381E089838A81F4
:102C1000982F917081E060E0492F0E944A0F8A81CD
:102C20008695982F917081E061E0492F0E944A0FAC
:102C30008A8186958695982F917081E062E0492F70
:102C40000E944A0F8A81869586958695982F917065
:102C500081E064E0492F0E944A0F89810F900F9014
:102C6000CF91DF9108950F931F93DF93CF93CDB74B
:102C7000DEB7C254D0400FB6F894DEBF0FBECDBF52
:102C8000FE01FF96608371838283938381E08EAF20
:102C9000FE01FF9680819181A281B3812AE030E01C
:102CA00040E050E0BC01CD010E94CD23DC01CB010E
:102CB0008DAF8E01015C1F4FFE01FF9680819181D7
:102CC000A281B3812AE030E040E050E0BC01CD01B8
:102CD0000E94CD23DA01C901F80180839183A28388
:102CE000B383FE01FF9680819181A281B3812AE0A6
:102CF00030E040E050E0BC01CD010E94CD23DC017A
:102D0000CB018CAF8E01015C1F4FFE01FF968081CD
:102D10009181A281B3812AE030E040E050E0BC0123
:102D2000CD010E94CD23DA01C901F801808391838E
:102D3000A283B383FE01FF9680819181A281B3813A
:102D40002AE030E040E050E0BC01CD010E94CD23FC
:102D5000DC01CB018BAF8E01015C1F4FFE01FF96A2
:102D600080819181A281B3812AE030E040E050E08F
:102D7000BC01CD010E94CD23DA01C901F801808395
:102D80009183A283B383FE01FF9680818AAF19AE3F
:102D900019AE3BC280E063E040E00E944A0F80E051
:102DA00062E041E00E944A0F81E065E041E00E945C
:102DB0004A0F81E066E041E00E944A0F8DAD0E941B
:102DC000FF1580E090E0A0EAB0E48DAB9EABAFAB26
:102DD000B8AF6DA97EA98FA998AD20E030E04AE791
:102DE00055E40E941F02DC01CB0189AB9AABABAB6F
:102DF000BCAB69A97AA98BA99CA920E030E040E886
:102E00005FE30E94550488232CF481E090E098ABA6
:102E10008FA73FC069A97AA98BA99CA920E03FEFA1
:102E20004FE757E40E94F50318164CF56DA97EA9EB
:102E30008FA998AD20E030E040E251E40E941F02EB
:102E4000DC01CB01BC01CD010E944900DC01CB01BA
:102E500098AB8FA70FC080E991E09EA78DA78DA5A5
:102E60009EA50197F1F79EA78DA78FA598A9019719
:102E700098AB8FA78FA598A9009769F714C069A987
:102E80007AA98BA99CA90E944900DC01CB0198ABCF
:102E90008FA78FA598A99CA78BA78BA59CA5019709
:102EA000F1F79CA78BA780E063E041E00E944A0F06
:102EB00080E062E040E00E944A0F81E065E041E08E
:102EC0000E944A0F81E066E041E00E944A0F8CAD0B
:102ED0000E94FF1580E090E0A0EAB0E48FA398A7DD
:102EE000A9A7BAA76FA178A589A59AA520E030E087
:102EF0004AE755E40E941F02DC01CB018BA39CA38F
:102F0000ADA3BEA36BA17CA18DA19EA120E030E06A
:102F100040E85FE30E94550488232CF481E090E0B0
:102F20009AA389A33FC06BA17CA18DA19EA120E0A3
:102F30003FEF4FE757E40E94F50318164CF56FA1D9
:102F400078A589A59AA520E030E040E251E40E94EE
:102F50001F02DC01CB01BC01CD010E944900DC0154
:102F6000CB019AA389A30FC080E991E098A38F8F2A
:102F70008F8D98A10197F1F798A38F8F89A19AA1BE
:102F800001979AA389A389A19AA1009769F714C010
:102F90006BA17CA18DA19EA10E944900DC01CB0107
:102FA0009AA389A389A19AA19E8F8D8F8D8D9E8DC5
:102FB0000197F1F79E8F8D8F80E063E041E00E94E2
:102FC0004A0F80E062E041E00E944A0F81E065E044
:102FD00040E00E944A0F81E066E041E00E944A0F13
:102FE0008BAD0E94FF1580E090E0A0EAB0E4898FED
:102FF0009A8FAB8FBC8F698D7A8D8B8D9C8D20E0E5
:1030000030E04AE755E40E941F02DC01CB018D8BC2
:103010009E8BAF8BB88F6D897E898F89988D20E0CC
:1030200030E040E85FE30E94550488232CF481E0FF
:1030300090E09C8B8B8B3FC06D897E898F89988DAA
:1030400020E03FEF4FE757E40E94F50318164CF5D8
:10305000698D7A8D8B8D9C8D20E030E040E251E4CB
:103060000E941F02DC01CB01BC01CD010E9449007E
:10307000DC01CB019C8B8B8B0FC080E991E09A8B9C
:10308000898B89899A890197F1F79A8B898B8B892A
:103090009C8901979C8B8B8B8B899C89009769F706
:1030A00014C06D897E898F89988D0E944900DC014A
:1030B000CB019C8B8B8B8B899C89988B8F878F8581
:1030C00098890197F1F7988B8F8780E063E041E062
:1030D0000E944A0F80E062E041E00E944A0F81E0D6
:1030E00065E041E00E944A0F81E066E040E00E9416
:1030F0004A0F8AAD0E94FF1580E090E0A0EAB0E49C
:103100008B879C87AD87BE876B857C858D859E85EB
:1031100020E030E04AE755E40E941F02DC01CB01C9
:103120008F839887A987BA876F81788589859A85E3
:1031300020E030E040E85FE30E94550488232CF44F
:1031400081E090E09E838D833FC06F817885898583
:103150009A8520E03FEF4FE757E40E94F5031816E9
:103160004CF56B857C858D859E8520E030E040E2C6
:1031700051E40E941F02DC01CB01BC01CD010E9481
:103180004900DC01CB019E838D830FC080E991E073
:103190009C838B838B819C810197F1F79C838B832C
:1031A0008D819E8101979E838D838D819E81009765
:1031B00069F714C06F81788589859A850E944900D6
:1031C000DC01CB019E838D838D819E819A838983CF
:1031D00089819A810197F1F79A83898380E063E07E
:1031E00041E00E944A0F80E062E041E00E944A0F05
:1031F00081E065E041E00E944A0F81E066E041E045
:103200000E944A0F89AD8F5F89AF89AD8C3308F476
:10321000C1CD8EADCE5BDF4F0FB6F894DEBF0FBED3
:10322000CDBFCF91DF911F910F910895DF93CF9381
:1032300000D0CDB7DEB79A838983E981FA81808196
:10324000E981FA819181692F40E00E94EE0D0F9093
:103250000F90CF91DF910895DF93CF93CDB7DEB775
:1032600063970FB6F894DEBF0FBECDBF998B888BE6
:103270007B8B6A8BE889F9898081E889F98991815A
:103280009E01215F3F4F692FA9010E94A410E88988
:10329000F98992818F85981709F09FC080E090E0AE
:1032A000A0EAB1E48B879C87AD87BE876B857C8560
:1032B0008D859E8520E030E04AE755E40E941F029C
:1032C000DC01CB018F839887A987BA876F817885C6
:1032D00089859A8520E030E040E85FE30E9455044C
:1032E00088232CF481E090E09E838D833FC06F8122
:1032F000788589859A8520E03FEF4FE757E40E9463
:10330000F50318164CF56B857C858D859E8520E030
:1033100030E040E251E40E941F02DC01CB01BC011D
:10332000CD010E944900DC01CB019E838D830FC03B
:1033300080E991E09C838B838B819C810197F1F7DD
:103340009C838B838D819E8101979E838D838D814C
:103350009E81009769F714C06F81788589859A8569
:103360000E944900DC01CB019E838D838D819E816B
:103370009A83898389819A810197F1F79A83898356
:10338000E889F9898081E889F98991819E01215F25
:103390003F4F692FA9010E94A410E889F989928101
:1033A0008F859817A1F48091C401882341F481E0AE
:1033B0008093C401EA89FB8981E0808313C08091F6
:1033C000C401813079F4EA89FB8910820BC0EA8953
:1033D000FB8910821092C40105C0EA89FB89108222
:1033E0001092C40163960FB6F894DEBF0FBECDBF36
:1033F000CF91DF910895DF93CF9300D00F92CDB797
:10340000DEB789838981282F30E03B832A838A8134
:103410009B8181309105D9F02A813B812230310591
:103420002CF48A819B81009761F022C02A813B8124
:103430002230310591F08A819B818330910599F08A
:1034400017C080E066E041E00E94EE0D11C080E010
:1034500064E041E00E94EE0D0BC081E067E041E0D6
:103460000E94EE0D05C080E065E041E00E94EE0D97
:103470000F900F900F90CF91DF910895DF93CF932E
:1034800000D00F92CDB7DEB789838981282F30E035
:103490003B832A838A819B8181309105D9F02A81DF
:1034A0003B81223031052CF48A819B81009761F0A9
:1034B00022C02A813B812230310591F08A819B8193
:1034C0008330910599F017C080E066E041E00E94EA
:1034D0004A0F11C080E064E041E00E944A0F0BC037
:1034E00081E067E041E00E944A0F05C080E065E0AE
:1034F00041E00E944A0F0F900F900F90CF91DF9103
:103500000895DF93CF9300D00F92CDB7DEB78983B4
:103510008981282F30E03B832A838A819B818130F7
:103520009105D9F02A813B81223031052CF48A8122
:103530009B81009761F022C02A813B8122303105B6
:1035400091F08A819B818330910599F017C080E0CA
:1035500066E040E00E944A0F11C080E064E040E075
:103560000E944A0F0BC081E067E040E00E944A0FD2
:1035700005C080E065E040E00E944A0F0F900F9088
:103580000F90CF91DF910895DF93CF9300D00F92EA
:10359000CDB7DEB789838981282F30E03B832A832A
:1035A0008A819B8181309105D1F02A813B81223033
:1035B00031052CF48A819B81009761F01EC02A811D
:1035C0003B812230310581F08A819B8183309105D6
:1035D00081F013C080E066E00E9400120EC080E01F
:1035E00064E00E94001209C081E067E00E940012BE
:1035F00004C080E065E00E9400120F900F900F90D1
:10360000CF91DF910895DF93CF93CDB7DEB783E0FD
:1036100067E040E00E94EE0D83E067E040E00E943A
:10362000EE0D83E067E040E00E94EE0D83E067E08E
:1036300040E00E94EE0D83E067E041E00E944A0F07
:1036400083E067E041E00E944A0F83E067E041E0E9
:103650000E944A0F83E067E041E00E944A0F82E047
:1036600065E041E00E94EE0D82E064E041E00E94EE
:10367000EE0D82E063E041E00E94EE0D82E062E048
:1036800041E00E94EE0DCF91DF910895DF93CF933B
:10369000CDB7DEB763970FB6F894DEBF0FBECDBFD0
:1036A0009B8B8A8BEA89FB898FEF8083188A1F8620
:1036B00081E0898B1F8605C18F85882F90E0FC01F2
:1036C000EE57FE4F20818F85882F90E0FC01EA574E
:1036D000FE4F9081822F692F40E00E944A0F188A86
:1036E000D6C08889882F90E0FC01E657FE4F4081C4
:1036F0008889882F90E0FC01E257FE4F90819E015F
:103700002F5E3F4F842F692FA9010E94A410898941
:10371000882309F0B9C080E090E0A8ECB1E48B8781
:103720009C87AD87BE876B857C858D859E8520E0D7
:1037300030E04AE755E40E941F02DC01CB018F8391
:103740009887A987BA876F81788589859A8520E0CF
:1037500030E040E85FE30E94550488232CF481E0C8
:1037600090E09E838D833FC06F81788589859A859F
:1037700020E03FEF4FE757E40E94F50318164CF5A1
:103780006B857C858D859E8520E030E040E251E4AC
:103790000E941F02DC01CB01BC01CD010E94490047
:1037A000DC01CB019E838D830FC080E991E09C8377
:1037B0008B838B819C810197F1F79C838B838D8117
:1037C0009E8101979E838D838D819E81009769F7ED
:1037D00014C06F81788589859A850E944900DC0133
:1037E000CB019E838D838D819E819A83898389817C
:1037F0009A810197F1F79A8389838889882F90E0CD
:10380000FC01E657FE4F40818889882F90E0FC013B
:10381000E257FE4F90819E012F5E3F4F842F692F0C
:10382000A9010E94A4108989882371F516C088898E
:10383000882F90E0FC01E657FE4F40818889882F51
:1038400090E0FC01E257FE4F90819E012F5E3F4FBA
:10385000842F692FA9010E94A4108989882339F334
:103860008F85482F50E08889282F30E0CA01880FC3
:10387000991F880F991F820F931FFC01EE56FE4F70
:103880008081EA89FB89808388898F5F888B88891A
:10389000853008F426CF8F85882F90E0FC01EE5705
:1038A000FE4F20818F85882F90E0FC01EA57FE4F64
:1038B0009081822F692F41E00E944A0F8F858F5F90
:1038C0008F878F85853008F4F7CEEA89FB89808160
:1038D0008F3F09F4EFCE63960FB6F894DEBF0FBEAC
:1038E000CDBFCF91DF910895DF93CF930F92CDB7E6
:1038F000DEB788E089830E941D0B81E063E041E030
:103900000E94EE0D81E065E041E00E94EE0D81E055
:1039100066E041E00E94EE0D89810F90CF91DF912A
:103920000895DF93CF9300D0CDB7DEB78A8388E0C8
:1039300089838A81813031F481E065E041E00E9431
:103940004A0F08C08A81823029F481E065E040E0B6
:103950000E944A0F89810F900F90CF91DF910895B7
:10396000DF93CF9300D0CDB7DEB78A8388E0898319
:103970008A810E94530B89810F900F90CF91DF9124
:103980000895DF93CF930F92CDB7DEB788E0898398
:103990000E94700B89810F90CF91DF910895DF9382
:1039A000CF930F92CDB7DEB788E0898380E00E9485
:1039B000530B81E063E040E00E944A0F0E948A0BB3
:1039C00089810F90CF91DF910895DF93CF9300D03D
:1039D000CDB7DEB78A8388E0898381E00E94911C9D
:1039E0008A810E94B01C0E94C11C89810F900F9097
:1039F000CF91DF910895DF93CF9300D0CDB7DEB79D
:103A00008A8388E0898381E00E94911C8A810E94D8
:103A1000B01C0E94C11C89810F900F90CF91DF9143
:103A20000895DF93CF9300D0CDB7DEB78A8381E0CE
:103A3000898380E063E040E00E944A0F80E060E01C
:103A400040E00E944A0F8A810E94472089810F909E
:103A50000F90CF91DF910895DF93CF9300D0CDB732
:103A6000DEB78A8381E089838091C501882311F4C0
:103A70000E94232080E063E041E00E944A0F80E042
:103A800060E040E00E944A0F8A810E9447208981BD
:103A90000F900F90CF91DF910895DF93CF93CDB723
:103AA000DEB72F970FB6F894DEBF0FBECDBF81E013
:103AB0008F8781E060E041E00E94EE0D81E061E0EF
:103AC00041E00E94EE0D81E062E041E00E94EE0DD7
:103AD00081E064E041E00E94EE0D80E063E041E0BF
:103AE0000E94EE0D80E062E041E00E94EE0D80E079
:103AF00090E0A0E2B2E48B879C87AD87BE876B85A0
:103B00007C858D859E8520E030E04AE755E40E9463
:103B10001F02DC01CB018F839887A987BA876F8149
:103B2000788589859A8520E030E040E85FE30E944F
:103B3000550488232CF481E090E09E838D833FC060
:103B40006F81788589859A8520E03FEF4FE757E4BC
:103B50000E94F50318164CF56B857C858D859E8536
:103B600020E030E040E251E40E941F02DC01CB0182
:103B7000BC01CD010E944900DC01CB019E838D83F5
:103B80000FC080E991E09C838B838B819C8101979E
:103B9000F1F79C838B838D819E8101979E838D831A
:103BA0008D819E81009769F714C06F817885898522
:103BB0009A850E944900DC01CB019E838D838D8113
:103BC0009E819A83898389819A810197F1F79A83EB
:103BD000898383E30E94111D82E30E94111D88E204
:103BE0000E94111D8CE00E94111D82E00E94111D97
:103BF00086E00E94111D81E00E94111D8F852F9685
:103C00000FB6F894DEBF0FBECDBFCF91DF91089500
:103C1000DF93CF930F92CDB7DEB781E0898381E048
:103C20000E94111D89810F90CF91DF910895DF933C
:103C3000CF9300D000D0CDB7DEB79C838B8381E0DB
:103C40008A8319820EC08981282F30E08B819C8164
:103C5000FC01E20FF31F80810E942C1D89818F5F80
:103C600089838981282F30E08B819C81FC01E20FC0
:103C7000F31F8081882339F78A810F900F900F906E
:103C80000F90CF91DF9108950F931F93DF93CF9300
:103C9000CDB7DEB76E970FB6F894DEBF0FBECDBFBF
:103CA0006B8F7C8F8D8F9E8F81E08E836B8D7C8D53
:103CB0008D8D9E8D0E94E304DC01CB018A839B8362
:103CC000AC83BD838A819B81AC81BD810097A105B6
:103CD000B10521F480E30E942C1D18C08A819B81CC
:103CE000AC81BD81BB2394F48DE20E942C1D8A819E
:103CF0009B81AC81BD81B095A095909581959F4F9A
:103D0000AF4FBF4F8A839B83AC83BD8384E1FE01A9
:103D10003796DF01982F1D929A95E9F719822FC0E7
:103D20008981082F112707FD10958A819B81AC811D
:103D3000BD812AE030E040E050E0BC01CD010E94AE
:103D4000EF23DC01CB01282FCE010796FC01E00F09
:103D5000F11F20838A819B81AC81BD812AE030E004
:103D600040E050E0BC01CD010E94EF23DA01C9011F
:103D70008A839B83AC83BD8389818F5F89838A819A
:103D80009B81AC81BD810097A105B10549F6898170
:103D90008150898311C08981282F332727FD3095D1
:103DA000CE010796FC01E20FF31F8081805D0E9427
:103DB0002C1D8981815089838981882364F78E81B4
:103DC0006E960FB6F894DEBF0FBECDBFCF91DF91D8
:103DD0001F910F910895DF93CF93CDB7DEB728974A
:103DE0000FB6F894DEBF0FBECDBF6D837E838F8389
:103DF00098876D817E818F81988520E030E040E05A
:103E000050E00E94C503882339F460E070E080E050
:103E100090E00E94441E89C06D817E818F819885CB
:103E20000E94E304DC01CB0189839A83AB83BC83CA
:103E300069817A818B819C810E948504DC01CB01A0
:103E4000BC01CD010E94441E69817A818B819C81D5
:103E50000E9485049B01AC016D817E818F819885D4
:103E60000E94C101DC01CB018D839E83AF83B887A3
:103E70006D817E818F81988520E030E040E050E0C8
:103E80000E94F50318160CF050C08EE20E942C1D03
:103E90006D817E818F81988520E030E543EC57E489
:103EA0000E941F02DC01CB018D839E83AF83B88704
:103EB0006D817E818F8198850E94E304DC01CB01B6
:103EC00089839A83AB83BC8312C089819A81AB8139
:103ED000BC812AE030E040E050E0BC01CD010E940E
:103EE000EF23DA01C90189839A83AB83BC8389817B
:103EF0009A81AB81BC812AE030E040E050E0BC0117
:103F0000CD010E94EF23DC01CB010097A105B10593
:103F1000E1F269817A818B819C810E948504DC01B8
:103F2000CB01BC01CD010E94441E28960FB6F89427
:103F3000DEBF0FBECDBFCF91DF910895DF93CF934A
:103F4000CDB7DEB728970FB6F894DEBF0FBECDBF52
:103F50009D838C836E834F83288781E08B8381E0F0
:103F60008093C5011A8219828E81882F90E0880F74
:103F7000991F880F991F880F991F8A838A81805CF7
:103F80000E94111D19820EC08981282F30E08C817A
:103F90009D81FC01E20FF31F80810E942C1D89810D
:103FA0008F5F89838981883078F38F8168850E944B
:103FB000E81F8E810E942C1D1092C5018B812896CE
:103FC0000FB6F894DEBF0FBECDBFCF91DF9108953D
:103FD000DF93CF93CDB7DEB728970FB6F894DEBF47
:103FE0000FBECDBF8F83688781E08A831982888561
:103FF0008093C7018F818093C6011B8280E48C83EC
:1040000084E18D8384E58E838F81843088F48F8171
:10401000282F30E0CE010396FC01E20FF31F9081C0
:104020008885890F8983898180680E94111D01C05C
:104030001A828A8128960FB6F894DEBF0FBECDBFD4
:10404000CF91DF910895DF93CF93CDB7DEB7809105
:10405000C7018431A0F08091C6018F5F8093C601B3
:104060008091C601843010F01092C6011092C701F1
:104070008091C6019091C701692F0E94E81F80912D
:10408000C7018F5F8093C701CF91DF910895DF93C0
:10409000CF93CDB7DEB7E9970FB6F894DEBF0FBE6A
:1040A000CDBF89AF89AD82958F70982F917081E0D7
:1040B00060E0492F0E944A0F89AD829586958770EE
:1040C000982F917081E061E0492F0E944A0F89ADDD
:1040D0008295869586958370982F917081E062E035
:1040E000492F0E944A0F89AD982F991F9927991F30
:1040F00081E064E0492F0E944A0F80E062E041E0E5
:104100000E944A0F80E090E0A0E0B0E48DAB9EAB4F
:10411000AFABB8AF6DA97EA98FA998AD20E030E014
:104120004AE755E40E941F02DC01CB0189AB9AAB40
:10413000ABABBCAB69A97AA98BA99CA920E030E004
:1041400040E85FE30E94550488232CF481E090E06E
:1041500098AB8FA73FC069A97AA98BA99CA920E039
:104160003FEF4FE757E40E94F50318164CF56DA991
:104170007EA98FA998AD20E030E040E251E40E9492
:104180001F02DC01CB01BC01CD010E944900DC0112
:10419000CB0198AB8FA70FC080E991E09EA78DA7B8
:1041A0008DA59EA50197F1F79EA78DA78FA598A92C
:1041B000019798AB8FA78FA598A9009769F714C0AE
:1041C00069A97AA98BA99CA90E944900DC01CB01AD
:1041D00098AB8FA78FA598A99CA78BA78BA59CA50B
:1041E0000197F1F79CA78BA780E062E040E00E9476
:1041F0004A0F80E090E0A0EAB0E48FA398A7A9A7B7
:10420000BAA76FA178A589A59AA520E030E04AE772
:1042100055E40E941F02DC01CB018BA39CA3ADA33C
:10422000BEA36BA17CA18DA19EA120E030E040E85F
:104230005FE30E94550488232CF481E090E09AA368
:1042400089A33FC06BA17CA18DA19EA120E03FEF7F
:104250004FE757E40E94F50318164CF56FA178A5B7
:1042600089A59AA520E030E040E251E40E941F02B7
:10427000DC01CB01BC01CD010E944900DC01CB0176
:104280009AA389A30FC080E991E098A38F8F8F8DA7
:1042900098A10197F1F798A38F8F89A19AA101970F
:1042A0009AA389A389A19AA1009769F714C06BA169
:1042B0007CA18DA19EA10E944900DC01CB019AA3A3
:1042C00089A389A19AA19E8F8D8F8D8D9E8D019737
:1042D000F1F79E8F8D8F89AD982F917081E060E00E
:1042E000492F0E944A0F89AD8695982F917081E0E1
:1042F00061E0492F0E944A0F89AD86958695982FD7
:10430000917081E062E0492F0E944A0F89AD869545
:1043100086958695982F917081E064E0492F0E94E0
:104320004A0F80E062E041E00E944A0F80E090E0A6
:10433000A0E0B0E4898F9A8FAB8FBC8F698D7A8DA6
:104340008B8D9C8D20E030E04AE755E40E941F02EF
:10435000DC01CB018D8B9E8BAF8BB88F6D897E89F5
:104360008F89988D20E030E040E85FE30E9455049B
:1043700088232CF481E090E09C8B8B8B3FC06D896F
:104380007E898F89988D20E03FEF4FE757E40E94A8
:10439000F50318164CF5698D7A8D8B8D9C8D20E078
:1043A00030E040E251E40E941F02DC01CB01BC017D
:1043B000CD010E944900DC01CB019C8B8B8B0FC08F
:1043C00080E991E09A8B898B89899A890197F1F725
:1043D0009A8B898B8B899C8901979C8B8B8B8B8982
:1043E0009C89009769F714C06D897E898F89988DA3
:1043F0000E944900DC01CB019C8B8B8B8B899C89B3
:10440000988B8F878F8598890197F1F7988B8F8785
:1044100080E062E040E00E944A0F80E090E0A0EA85
:10442000B0E48B879C87AD87BE876B857C858D8547
:104430009E8520E030E04AE755E40E941F02DC013F
:10444000CB018F839887A987BA876F817885898503
:104450009A8520E030E040E85FE30E94550488231D
:104460002CF481E090E09E838D833FC06F8178853E
:1044700089859A8520E03FEF4FE757E40E94F503D6
:1044800018164CF56B857C858D859E8520E030E087
:1044900040E251E40E941F02DC01CB01BC01CD01CE
:1044A0000E944900DC01CB019E838D830FC080E90F
:1044B00091E09C838B838B819C810197F1F79C8396
:1044C0008B838D819E8101979E838D838D819E81BB
:1044D000009769F714C06F81788589859A850E9455
:1044E0004900DC01CB019E838D838D819E819A835F
:1044F000898389819A810197F1F79A838983E99663
:104500000FB6F894DEBF0FBECDBFCF91DF910895F7
:10451000DF93CF93CDB7DEB76C970FB6F894DEBFBD
:104520000FBECDBF0E949D0B0E944D1D83E00E94D7
:10453000FB1982E00E94FB1980E00E94FB1980E6D3
:1045400090E00E94171E83E00E943E1A80E090E0F7
:10455000AAEFB3E4898F9A8FAB8FBC8F698D7A8D68
:104560008B8D9C8D20E030E04AE755E40E941F02CD
:10457000DC01CB018D8B9E8BAF8BB88F6D897E89D3
:104580008F89988D20E030E040E85FE30E94550479
:1045900088232CF481E090E09C8B8B8B3FC06D894D
:1045A0007E898F89988D20E03FEF4FE757E40E9486
:1045B000F50318164CF5698D7A8D8B8D9C8D20E056
:1045C00030E040E251E40E941F02DC01CB01BC015B
:1045D000CD010E944900DC01CB019C8B8B8B0FC06D
:1045E00080E991E09A8B898B89899A890197F1F703
:1045F0009A8B898B8B899C8901979C8B8B8B8B8960
:104600009C89009769F714C06D897E898F89988D80
:104610000E944900DC01CB019C8B8B8B8B899C8990
:10462000988B8F878F8598890197F1F7988B8F8763
:1046300083E00E94811A0E94BE0787E00E94A507BE
:1046400080E690E00E94171E80E090E8ABE3B5E4BE
:104650008B879C87AD87BE876B857C858D859E8586
:1046600020E030E04AE755E40E941F02DC01CB0164
:104670008F839887A987BA876F81788589859A857E
:1046800020E030E040E85FE30E94550488232CF4EA
:1046900081E090E09E838D833FC06F81788589851E
:1046A0009A8520E03FEF4FE757E40E94F503181684
:1046B0004CF56B857C858D859E8520E030E040E261
:1046C00051E40E941F02DC01CB01BC01CD010E941C
:1046D0004900DC01CB019E838D830FC080E991E00E
:1046E0009C838B838B819C810197F1F79C838B83C7
:1046F0008D819E8101979E838D838D819E81009700
:1047000069F714C06F81788589859A850E94490070
:10471000DC01CB019E838D838D819E819A83898369
:1047200089819A810197F1F79A8389830E94081EF3
:104730000E94DD0785CF629FD001739FF001829FA9
:10474000E00DF11D649FE00DF11D929FF00D839F20
:10475000F00D749FF00D659FF00D9927729FB00DBD
:10476000E11DF91F639FB00DE11DF91FBD01CF01D0
:104770001124089597FB092E07260AD077FD04D04F
:1047800049D006D000201AF4709561957F4F0895A6
:10479000F6F7909581959F4F0895A1E21A2EAA1BD6
:1047A000BB1BFD010DC0AA1FBB1FEE1FFF1FA217E1
:1047B000B307E407F50720F0A21BB30BE40BF50BDE
:1047C000661F771F881F991F1A9469F76095709567
:1047D000809590959B01AC01BD01CF01089597FB99
:1047E000092E05260ED057FD04D0D7DF0AD0001CB5
:1047F00038F450954095309521953F4F4F4F5F4F7E
:104800000895F6F790958095709561957F4F8F4F3D
:104810009F4F0895AA1BBB1B51E107C0AA1FBB1FD6
:10482000A617B70710F0A61BB70B881F991F5A953C
:10483000A9F780959095BC01CD0108952F923F92E4
:104840004F925F926F927F928F929F92AF92BF92A0
:10485000CF92DF92EF92FF920F931F93CF93DF934C
:10486000CDB7DEB7CA1BDB0B0FB6F894DEBF0FBEA9
:10487000CDBF09942A88398848885F846E847D84F6
:104880008C849B84AA84B984C884DF80EE80FD80F8
:104890000C811B81AA81B981CE0FD11D0FB6F8946E
:0E48A000DEBF0FBECDBFED010895F894FFCF2F
:1048AE0048656C6C6F000000000000000000000105
:1048BE0002020303030304040404040404040505B0
:1048CE000505050505050505050505050505060688
:1048DE00060606060606060606060606060606066A
:1048EE000606060606060606060606060606070758
:1048FE00070707070707070707070707070707073A
:10490E000707070707070707070707070707070729
:10491E000707070707070707070707070707070719
:10492E000707070707070707070707070707080807
:10493E0008080808080808080808080808080808E9
:10494E0008080808080808080808080808080808D9
:10495E0008080808080808080808080808080808C9
:10496E0008080808080808080808080808080808B9
:10497E0008080808080808080808080808080808A9
:10498E000808080808080808080808080808080899
:10499E000808080808080808080808080808080889
:1049AE000808080808080808080808080808010088
:1049BE0008004000000100047E0CB69ECCDAFA0E10
:1049CE00FEDE0202020205040302030303030706CE
:1049DE000503070809FF040506FF010203FF0A008D
:0249EE000BFFBD
:00000001FF
