:100000000C942A000C9447000C9447000C94470071
:100010000C9447000C9447000C9447000C9467170D
:100020000C9447000C9447000C9447000C94470034
:100030000C9447000C9447000C9447000C94470024
:100040000C9447000C9447000C9447000C94470014
:100050000C94470011241FBECFE5D8E0DEBFCDBF12
:1000600011E0A0E6B0E0E6EDF6E402C005900D92E6
:10007000A238B107D9F716E0A2E8B1E001C01D929D
:10008000A230B107E1F70E9444140C9469230C9448
:100090000000EF92FF920F931F937B018C0120E0F1
:1000A00030E040E05FE40E94790388238CF0C801CF
:1000B000B70120E030E040E05FE40E94C1010E940F
:1000C00037049B01AC01205030404040504806C0EE
:1000D000C801B7010E9437049B01AC01B901CA01F4
:1000E0001F910F91FF90EF900895A0E0B0E0EBE733
:1000F000F0E00C941323DC012B01FA019C91923067
:1001000008F439C1EB018881823008F433C194309E
:1001100069F4843009F02FC111969C91119789815F
:10012000981709F428C1A7E7B0E025C1843009F485
:1001300021C18230A9F4923009F01DC19A01AD01AC
:1001400088E0EA010990AE01E90109929E0181501F
:10015000C1F7E201898111969C918923818308C1AD
:10016000923009F407C112962D903C901397EB0141
:100170008A819B811496AD90BD90CD90DC901797AD
:10018000EC80FD800E811F819101281B390BB90184
:1001900037FF04C066277727621B730B6032710537
:1001A0000CF061C0121613066CF537014801062EDB
:1001B00004C096948794779467940A94D2F721E0C8
:1001C00030E040E050E004C0220F331F441F551FB1
:1001D0006A95D2F721503040404050402E213F21B7
:1001E00040235123211531054105510521F021E01E
:1001F00030E040E050E079018A01E628F72808293C
:1002000019293CC0232BD1F1260E371E350146019A
:10021000062E04C096948794779467940A94D2F734
:1002200021E030E040E050E004C0220F331F441FC3
:10023000551F6A95D2F721503040404050402A2146
:100240003B214C215D21211531054105510521F04E
:1002500021E030E040E050E059016A01A628B728CB
:10026000C828D9280BC0821593052CF01C01AA249C
:10027000BB24650103C0EE24FF24870111969C91E5
:10028000D20111968C91981709F445C0992339F041
:10029000A80197012A193B094C095D0906C0A6016E
:1002A00095012E193F09400B510B57FD08C01182D3
:1002B0003382228224833583468357831DC081E0A5
:1002C00081833382228288279927DC01821B930B4A
:1002D000A40BB50B84839583A683B7830DC0220F2F
:1002E000331F441F551F24833583468357838281E0
:1002F000938101979383828324813581468157813D
:10030000DA01C9010197A109B1098F5F9F4FAF4F72
:10031000BF4328F30BC0918333822282EA0CFB1C7B
:100320000C1D1D1DE482F5820683178383E0808304
:10033000248135814681578157FF1AC0C901AA27F8
:1003400097FDA095BA2F81709070A070B0705695EF
:10035000479537952795822B932BA42BB52B848318
:100360009583A683B7838281938101969383828349
:10037000DF0101C0D201CD01CDB7DEB7E2E10C94BF
:100380002F23A0E2B0E0E7ECF1E00C941F23698397
:100390007A838B839C832D833E834F835887E9E048
:1003A000EE2EF12CEC0EFD1ECE010196B7010E943F
:1003B000AF058E010F5E1F4FCE010596B8010E945A
:1003C000AF058A8991E089278A8BC701B801AE0100
:1003D000475E5F4F0E9475000E94DA04A096E6E037
:1003E0000C943B23A0E2B0E0E8EFF1E00C941F2373
:1003F00069837A838B839C832D833E834F835887C5
:10040000F9E0EF2EF12CEC0EFD1ECE010196B701A6
:100410000E94AF058E010F5E1F4FCE010596B801F9
:100420000E94AF05C701B801AE01475E5F4F0E9451
:1004300075000E94DA04A096E6E00C943B23A0E24B
:10044000B0E0E5E2F2E00C94132369837A838B83B6
:100450009C832D833E834F835887CE010196BE0136
:10046000675F7F4F0E94AF05CE010596BE016F5EAC
:100470007F4F0E94AF059985923088F0898982303C
:10048000C8F0943019F4823051F404C0843029F457
:10049000923081F487E790E0C6C0923049F420E0C2
:1004A0009A858A89981321E02A87CE010996BBC0D4
:1004B000823049F420E09A858A89981321E02A8BBA
:1004C000CE014196B0C02D843E844F8458886D88FB
:1004D0007E888F88988CEE24FF248701AA24BB2471
:1004E000650140E050E060E070E0E0E0F0E0C10174
:1004F00081709070892BE9F0E60CF71C081D191D1E
:100500009A01AB012A0D3B1D4C1D5D1D80E090E062
:10051000A0E0B0E0E614F7040805190520F481E036
:1005200090E0A0E0B0E0BA01A901480F591F6A1F8E
:100530007B1FAA0CBB1CCC1CDD1C97FE08C081E0F5
:1005400090E0A0E0B0E0A82AB92ACA2ADB2A3196B6
:10055000E032F10549F0660C771C881C991C569412
:10056000479437942794C3CFFA85EA892B893C892D
:100570008B859C85280F391F2E5F3F4F17C0CA01FE
:1005800081709070892B61F016950795F794E79428
:1005900080E090E0A0E0B0E8E82AF92A0A2B1B2BC3
:1005A00076956795579547952F5F3F4F77FDE7CF36
:1005B0000CC0440F551F661F771F17FD4160EE0CDE
:1005C000FF1C001F111F21503040403090E05907A0
:1005D00090E0690790E4790760F32B8F3C8FDB0193
:1005E000CA018F779070A070B07080349105A1051A
:1005F000B10561F447FD0AC0E114F10401051105DC
:1006000029F0405C5F4F6F4F7F4F40781A8EFE1786
:1006100011F081E08A8F4D8F5E8F6F8F78A383E01A
:10062000898FCE0149960E94DA04A096E2E10C94EB
:100630002F23A8E1B0E0EFE1F3E00C941F236983DE
:100640007A838B839C832D833E834F83588789E0F5
:10065000E82EF12CEC0EFD1ECE010196B7010E9492
:10066000AF058E010F5E1F4FCE010596B8010E94A7
:10067000AF058985823040F08989823028F0C70132
:10068000B8010E94270601C081E06896E6E00C945C
:100690003B23A8E1B0E0EFE4F3E00C941F2369836F
:1006A0007A838B839C832D833E834F83588789E095
:1006B000E82EF12CEC0EFD1ECE010196B7010E9432
:1006C000AF058E010F5E1F4FCE010596B8010E9447
:1006D000AF058985823040F08989823028F0C701D2
:1006E000B8010E94270601C08FEF6896E6E00C94DF
:1006F0003B23A8E1B0E0EFE7F3E00C941F2369830C
:100700007A838B839C832D833E834F83588789E034
:10071000E82EF12CEC0EFD1ECE010196B7010E94D1
:10072000AF058E010F5E1F4FCE010596B8010E94E6
:10073000AF058985823040F08989823028F0C70171
:10074000B8010E94270601C08FEF6896E6E00C947E
:100750003B23A8E1B0E0EFEAF3E00C941F236983A8
:100760007A838B839C832D833E834F83588789E0D4
:10077000E82EF12CEC0EFD1ECE010196B7010E9471
:10078000AF058E010F5E1F4FCE010596B8010E9486
:10079000AF058985823040F08989823028F0C70111
:1007A000B8010E94270601C081E06896E6E00C943B
:1007B0003B23A8E0B0E0EFEDF3E00C941C239B0199
:1007C000AC0183E08983DA01C9018827B7FD8395ED
:1007D0009927AA27BB27B82E2115310541055105B8
:1007E00019F482E089833AC08823A9F0203080E0A0
:1007F000380780E0480780E8580729F460E070E097
:1008000080E09FEC30C0EE24FF248701E21AF30A57
:10081000040B150B02C079018A018EE1C82ED12C80
:10082000DC82CB82ED82FE820F831887C801B7017C
:100830000E948B0401971816190684F4082E04C030
:10084000EE0CFF1C001F111F0A94D2F7ED82FE82EE
:100850000F831887C81AD90ADC82CB82BA82CE01EC
:1008600001960E94DA042896E9E00C943823ACE063
:10087000B0E0EDE3F4E00C94232369837A838B8367
:100880009C83CE010196BE016B5F7F4F0E94AF0536
:100890008D81823061F1823050F1843021F48E817B
:1008A000882351F12EC02F81388537FD20C06E81FD
:1008B0002F3131051CF06623F9F023C08EE190E062
:1008C000821B930B29853A854B855C8504C0569520
:1008D0004795379527958A95D2F76623B1F05095BD
:1008E0004095309521953F4F4F4F5F4F0EC020E010
:1008F00030E040E050E009C02FEF3FEF4FEF5FE7FF
:1009000004C020E030E040E050E8B901CA012C9674
:10091000E2E00C943F23EF92FF920F931F937B0131
:100920008C0180E0E81680E0F80681E0080780E0AE
:10093000180788F48FEFE816F1040105110531F06E
:1009400028F088E090E0A0E0B0E017C080E090E000
:10095000A0E0B0E012C080E0E81680E0F80680E099
:10096000080781E0180728F088E190E0A0E0B0E0F7
:1009700004C080E190E0A0E0B0E020E230E040E0A0
:1009800050E0281B390B4A0B5B0B04C016950795EA
:10099000F794E7948A95D2F7F701E158FF4F8081E9
:1009A000281B310941095109C9011F910F91FF907D
:1009B000EF900895DF92EF92FF920F931F93FC0147
:1009C000E480F58006811781D1808081823048F4EF
:1009D00080E090E0A0E1B0E0E82AF92A0A2B1B2B86
:1009E000A5C0843009F49FC0823021F4EE24FF2496
:1009F000870105C0E114F1040105110519F4E0E0D7
:100A0000F0E096C0628173819FEF623879070CF045
:100A10005BC022E83FEF261B370B2A3131052CF053
:100A200020E030E040E050E02AC0B801A701022EEB
:100A300004C076956795579547950A94D2F781E05B
:100A400090E0A0E0B0E004C0880F991FAA1FBB1F70
:100A50002A95D2F70197A109B1098E219F21A023E0
:100A6000B1230097A105B10521F081E090E0A0E05D
:100A7000B0E09A01AB01282B392B4A2B5B2BDA0112
:100A8000C9018F779070A070B07080349105A10576
:100A9000B10539F427FF09C0205C3F4F4F4F5F4F2E
:100AA00004C0215C3F4F4F4F5F4FE0E0F0E020304B
:100AB000A0E03A07A0E04A07A0E45A0710F0E1E0FE
:100AC000F0E079018A0127C06038710564F5FB0107
:100AD000E158FF4FD801C7018F779070A070B070B8
:100AE00080349105A105B10539F4E7FE0DC080E41D
:100AF00090E0A0E0B0E004C08FE390E0A0E0B0E0C0
:100B0000E80EF91E0A1F1B1F17FF05C01695079553
:100B1000F794E794319687E016950795F794E79454
:100B20008A95D1F705C0EE24FF248701EFEFF0E0AE
:100B30006E2F679566276795902F9F77D794DD2452
:100B4000D7948E2F8695492F462B582F5D29B701B4
:100B5000CA011F910F91FF90EF90DF900895FC0163
:100B6000DB01408151812281622F6F7770E0221F6B
:100B70002227221F9381892F880F822B282F30E074
:100B8000991F9927991F11969C931197211531054B
:100B9000A9F5411551056105710511F482E037C0D1
:100BA00082E89FEF13969C938E9312979A01AB0164
:100BB00067E0220F331F441F551F6A95D1F783E06A
:100BC0008C930DC0220F331F441F551F12968D9119
:100BD0009C911397019713969C938E9312972030B4
:100BE00080E0380780E0480780E4580758F31496FF
:100BF0002D933D934D935C93179708952F3F3105A7
:100C000079F4411551056105710519F484E08C935F
:100C1000089564FF03C081E08C9312C01C9210C041
:100C20002F57304013963C932E93129783E08C936A
:100C300087E0440F551F661F771F8A95D1F77064B0
:100C400014964D935D936D937C93179708951F931E
:100C5000DC01FB019C91923008F447C08081823016
:100C600008F443C0943051F411961C91843099F5E6
:100C70008181682F70E0611B71093FC0843021F0D1
:100C8000923031F48230B9F18181882389F12DC00D
:100C900011961C9111978230F1F081811817D9F4C7
:100CA00012962D913C91139782819381821793071D
:100CB00094F028173907BCF014968D919D910D90F2
:100CC000BC91A02D24813581468157812817390791
:100CD0004A075B0718F4112341F00AC082179307F3
:100CE000A407B50740F4112319F061E070E005C0D6
:100CF0006FEF7FEF02C060E070E0CB011F910895BD
:100D00001F93DF93CF93CDB7DEB7EA970FB6F89472
:100D1000DEBF0FBECDBF8AAF80E061E040E00E9441
:100D20005F0D8AAD8695182F187780E067E80E94DE
:100D3000570F812B89AF80E069AD0E94710E80E072
:100D400062E041E00E945F0D80E090E0A0E0B0E44E
:100D50008DAB9EABAFABB8AF6DA97EA98FA998AD97
:100D600020E030E04AE755E40E941F02DC01CB019D
:100D700089AB9AABABABBCAB69A97AA98BA99CA98F
:100D800020E030E040E85FE30E94A90388232CF4D0
:100D900081E090E098AB8FA73FC069A97AA98BA9A1
:100DA0009CA920E03FEF4FE757E40E944903181643
:100DB0004CF56DA97EA98FA998AD20E030E040E206
:100DC00051E40E941F02DC01CB01BC01CD010E9455
:100DD0004900DC01CB0198AB8FA70FC080E991E0FF
:100DE0009EA78DA78DA59EA50197F1F79EA78DA71C
:100DF0008FA598A9019798AB8FA78FA598A9009761
:100E000069F714C069A97AA98BA99CA90E94490015
:100E1000DC01CB0198AB8FA78FA598A99CA78BA7C6
:100E20008BA59CA50197F1F79CA78BA780E062E0BA
:100E300040E00E945F0D80E090E0A0EAB0E48FA364
:100E400098A7A9A7BAA76FA178A589A59AA520E018
:100E500030E04AE755E40E941F02DC01CB018BA37E
:100E60009CA3ADA3BEA36BA17CA18DA19EA120E0FC
:100E700030E040E85FE30E94A90388232CF481E07E
:100E800090E09AA389A33FC06BA17CA18DA19EA1F4
:100E900020E03FEF4FE757E40E94490318164CF556
:100EA0006FA178A589A59AA520E030E040E251E441
:100EB0000E941F02DC01CB01BC01CD010E94490050
:100EC000DC01CB019AA389A30FC080E991E098A32C
:100ED0008F8F8F8D98A10197F1F798A38F8F89A19C
:100EE0009AA101979AA389A389A19AA1009769F76A
:100EF00014C06BA17CA18DA19EA10E944900DC01C0
:100F0000CB019AA389A389A19AA19E8F8D8F8D8DE4
:100F10009E8D0197F1F79E8F8D8F8AAD882F90E07F
:100F2000880F991F880F991F880F991F182F80E02D
:100F300067E80E94570F812B89AF80E069AD0E945E
:100F4000710E80E062E041E00E945F0D80E090E081
:100F5000A0E0B0E4898F9A8FAB8FBC8F698D7A8DBA
:100F60008B8D9C8D20E030E04AE755E40E941F0203
:100F7000DC01CB018D8B9E8BAF8BB88F6D897E8909
:100F80008F89988D20E030E040E85FE30E94A9035C
:100F900088232CF481E090E09C8B8B8B3FC06D8983
:100FA0007E898F89988D20E03FEF4FE757E40E94BC
:100FB000490318164CF5698D7A8D8B8D9C8D20E038
:100FC00030E040E251E40E941F02DC01CB01BC0191
:100FD000CD010E944900DC01CB019C8B8B8B0FC0A3
:100FE00080E991E09A8B898B89899A890197F1F739
:100FF0009A8B898B8B899C8901979C8B8B8B8B8996
:101000009C89009769F714C06D897E898F89988DB6
:101010000E944900DC01CB019C8B8B8B8B899C89C6
:10102000988B8F878F8598890197F1F7988B8F8799
:1010300080E062E040E00E945F0D80E090E0A0EA86
:10104000B0E48B879C87AD87BE876B857C858D855B
:101050009E8520E030E04AE755E40E941F02DC0153
:10106000CB018F839887A987BA876F817885898517
:101070009A8520E030E040E85FE30E94A9038823DE
:101080002CF481E090E09E838D833FC06F81788552
:1010900089859A8520E03FEF4FE757E40E94490396
:1010A00018164CF56B857C858D859E8520E030E09B
:1010B00040E251E40E941F02DC01CB01BC01CD01E2
:1010C0000E944900DC01CB019E838D830FC080E923
:1010D00091E09C838B838B819C810197F1F79C83AA
:1010E0008B838D819E8101979E838D838D819E81CF
:1010F000009769F714C06F81788589859A850E9469
:101100004900DC01CB019E838D838D819E819A8372
:10111000898389819A810197F1F79A838983EA9675
:101120000FB6F894DEBF0FBECDBFCF91DF911F91F8
:1011300008951F93DF93CF93CDB7DEB7EA970FB62D
:10114000F894DEBF0FBECDBF8AAF8091830180319E
:10115000C8F080918201843010F01092820180E00A
:1011600064E041E00E945F0D109283018091820152
:101170008F5F809382018091820190918301692F1A
:101180000E94970B809183018F5F8093830180E0A1
:1011900061E041E00E945F0D8AAD8695182F1877B7
:1011A00080E067E80E94570F812B89AF80E069AD2E
:1011B0000E94710E80E062E041E00E945F0D80E0DD
:1011C00090E0A0E0B0E48DAB9EABAFABB8AF6DA943
:1011D0007EA98FA998AD20E030E04AE755E40E944F
:1011E0001F02DC01CB0189AB9AABABABBCAB69A9ED
:1011F0007AA98BA99CA920E030E040E85FE30E9437
:10120000A90388232CF481E090E098AB8FA73FC01E
:1012100069A97AA98BA99CA920E03FEF4FE757E481
:101220000E94490318164CF56DA97EA98FA998ADA7
:1012300020E030E040E251E40E941F02DC01CB01DB
:10124000BC01CD010E944900DC01CB0198AB8FA706
:101250000FC080E991E09EA78DA78DA59EA501975F
:10126000F1F79EA78DA78FA598A9019798AB8FA797
:101270008FA598A9009769F714C069A97AA98BA9C5
:101280009CA90E944900DC01CB0198AB8FA78FA5D8
:1012900098A99CA78BA78BA59CA50197F1F79CA764
:1012A0008BA780E062E040E00E945F0D80E090E06C
:1012B000A0EAB0E48FA398A7A9A7BAA76FA178A5C1
:1012C00089A59AA520E030E04AE755E40E941F0274
:1012D000DC01CB018BA39CA3ADA3BEA36BA17CA11E
:1012E0008DA19EA120E030E040E85FE30E94A903C9
:1012F00088232CF481E090E09AA389A33FC06BA1DE
:101300007CA18DA19EA120E03FEF4FE757E40E9412
:10131000490318164CF56FA178A589A59AA520E078
:1013200030E040E251E40E941F02DC01CB01BC012D
:10133000CD010E944900DC01CB019AA389A30FC013
:1013400080E991E098A38F8F8F8D98A10197F1F795
:1013500098A38F8F89A19AA101979AA389A389A1A4
:101360009AA1009769F714C06BA17CA18DA19EA1E1
:101370000E944900DC01CB019AA389A389A19AA10B
:101380009E8F8D8F8D8D9E8D0197F1F79E8F8D8F06
:101390008AAD882F90E0880F991F880F991F880FBA
:1013A000991F182F80E067E80E94570F812B89AFA3
:1013B00080E069AD0E94710E80E062E041E00E9431
:1013C0005F0D80E090E0A0E0B0E4898F9A8FAB8F52
:1013D000BC8F698D7A8D8B8D9C8D20E030E04AE743
:1013E00055E40E941F02DC01CB018D8B9E8BAF8BDD
:1013F000B88F6D897E898F89988D20E030E040E834
:101400005FE30E94A90388232CF481E090E09C8B89
:101410008B8B3FC06D897E898F89988D20E03FEF4F
:101420004FE757E40E94490318164CF5698D7A8DF1
:101430008B8D9C8D20E030E040E251E40E941F0241
:10144000DC01CB01BC01CD010E944900DC01CB01D4
:101450009C8B8B8B0FC080E991E09A8B898B89895B
:101460009A890197F1F79A8B898B8B899C890197CF
:101470009C8B8B8B8B899C89009769F714C06D8935
:101480007E898F89988D0E944900DC01CB019C8B5D
:101490008B8B8B899C89988B8F878F8598890197F7
:1014A000F1F7988B8F8780E062E040E00E945F0D4B
:1014B00080E090E0A0EAB0E48B879C87AD87BE8790
:1014C0006B857C858D859E8520E030E04AE755E47C
:1014D0000E941F02DC01CB018F839887A987BA87FE
:1014E0006F81788589859A8520E030E040E85FE368
:1014F0000E94A90388232CF481E090E09E838D83D1
:101500003FC06F81788589859A8520E03FEF4FE75E
:1015100057E40E94490318164CF56B857C858D8530
:101520009E8520E030E040E251E40E941F02DC0191
:10153000CB01BC01CD010E944900DC01CB019E839F
:101540008D830FC080E991E09C838B838B819C818C
:101550000197F1F79C838B838D819E8101979E83F8
:101560008D838D819E81009769F714C06F81788586
:1015700089859A850E944900DC01CB019E838D8379
:101580008D819E819A83898389819A810197F1F760
:101590009A838983EA960FB6F894DEBF0FBECDBF5B
:1015A000CF91DF911F910895DF93CF93CDB7DEB731
:1015B0002E970FB6F894DEBF0FBECDBF80E090E04F
:1015C000A0E2B2E48B879C87AD87BE876B857C8564
:1015D0008D859E8520E030E04AE755E40E941F0299
:1015E000DC01CB018F839887A987BA876F817885C3
:1015F00089859A8520E030E040E85FE30E94A903F6
:1016000088232CF481E090E09E838D833FC06F811E
:10161000788589859A8520E03FEF4FE757E40E945F
:10162000490318164CF56B857C858D859E8520E0D9
:1016300030E040E251E40E941F02DC01CB01BC011A
:10164000CD010E944900DC01CB019E838D830FC038
:1016500080E991E09C838B838B819C810197F1F7DA
:101660009C838B838D819E8101979E838D838D8149
:101670009E81009769F714C06F81788589859A8566
:101680000E944900DC01CB019E838D838D819E8168
:101690009A83898389819A810197F1F79A83898353
:1016A00083E30E94800682E30E94800688E20E9413
:1016B00080068CE00E94800682E00E94800686E020
:1016C0000E94800681E00E9480062E960FB6F89454
:1016D000DEBF0FBECDBFCF91DF910895DF93CF93D3
:1016E00000D00F92CDB7DEB79B838A8319820EC0DC
:1016F0008981282F30E08A819B81FC01E20FF31F52
:1017000080810E94990889818F5F89838981282F30
:1017100030E08A819B81FC01E20FF31F80818823E6
:1017200039F70F900F900F90CF91DF910895DF93CD
:10173000CF9300D00F92CDB7DEB78A836B83198227
:101740008B81809383018A81809382018A8188239F
:1017500019F48B81898314C08A81813021F48B81B3
:10176000805C89830DC08A81823021F48B81805F07
:10177000898306C08A81833019F48B81805B8983D9
:10178000898180580E9480060F900F900F90CF9112
:10179000DF910895DF93CF93CDB7DEB727970FB6CC
:1017A000F894DEBF0FBECDBF9C838B836D834E83C9
:1017B0002F831A828D81882F90E0880F991F880FC0
:1017C000991F880F991F8A838A81805C0E948006F6
:1017D00019820EC08981282F30E08B819C81FC0109
:1017E000E20FF31F80810E94990889818F5F8983AE
:1017F0008981883078F38E816F810E94970B8D816B
:101800000E94990827960FB6F894DEBF0FBECDBF91
:10181000CF91DF9108950F931F93DF93CF93CDB7AF
:10182000DEB76D970FB6F894DEBF0FBECDBF6A8FDF
:101830007B8F8C8F9D8F6A8D7B8D8C8D9D8D0E9473
:101840003704DC01CB018A839B83AC83BD838A810F
:101850009B81AC81BD810097A105B10521F480E396
:101860000E94990818C08A819B81AC81BD81BB23ED
:1018700094F48DE20E9499088A819B81AC81BD819C
:10188000B095A095909581959F4FAF4FBF4F8A839C
:101890009B83AC83BD8384E1FE013696DF01982FE4
:1018A0001D929A95E9F719822FC08981082F112777
:1018B00007FD10958A819B81AC81BD812AE030E0D3
:1018C00040E050E0BC01CD010E94D622DC01CB01FA
:1018D000282FCE010696FC01E00FF11F20838A819C
:1018E0009B81AC81BD812AE030E040E050E0BC014A
:1018F000CD010E94D622DA01C9018A839B83AC8381
:10190000BD8389818F5F89838A819B81AC81BD8101
:101910000097A105B10549F689818150898311C0DD
:101920008981282F332727FD3095CE010696FC01AB
:10193000E20FF31F8081805D0E94990889818150A8
:1019400089838981882364F76D960FB6F894DEBF8A
:101950000FBECDBFCF91DF911F910F910895DF93FF
:10196000CF93CDB7DEB728970FB6F894DEBF0FBE82
:10197000CDBF6D837E838F8398876D817E818F81BC
:10198000988520E030E040E050E00E941903882371
:1019900039F460E070E080E090E00E940B0C7CC0C5
:1019A0006D817E818F8198850E943704DC01CB0197
:1019B00089839A83AB83BC8369817A818B819C8183
:1019C0000E94D903DC01CB01BC01CD010E940B0CAC
:1019D0008EE20E94990869817A818B819C810E94A4
:1019E000D9039B01AC016D817E818F8198850E9416
:1019F000C101DC01CB018D839E83AF83B8876D81EC
:101A00007E818F81988520E030E543EC57E40E9489
:101A10001F02DC01CB018D839E83AF83B8876D816C
:101A20007E818F8198850E943704DC01CB018983F8
:101A30009A83AB83BC8312C089819A81AB81BC81BC
:101A40002AE030E040E050E0BC01CD010E94D62207
:101A5000DA01C90189839A83AB83BC8389819A8126
:101A6000AB81BC812AE030E040E050E0BC01CD0118
:101A70000E94D622DC01CB010097A105B105E1F25D
:101A800069817A818B819C810E94D903DC01CB0121
:101A9000BC01CD010E940B0C28960FB6F894DEBF56
:101AA0000FBECDBFCF91DF910895DF93CF93CDB718
:101AB000DEB781E00E948006CF91DF910895DF9329
:101AC000CF93CDB7DEB728970FB6F894DEBF0FBE21
:101AD000CDBF8A836B834C8319828B81883008F059
:101AE000F4C08C81882309F077C08A81282F30E0E8
:101AF00038872F838F8198858130910559F12F8107
:101B00003885223031052CF48F819885009769F053
:101B100060C02F8138852230310589F18F81988509
:101B20008330910509F440C054C0ABE3B0E0EBE36F
:101B3000F0E08081482F8B81282F30E081E090E019
:101B4000022E02C0880F991F0A94E2F78095842321
:101B50008C93BDC0A8E3B0E0E8E3F0E08081482FBB
:101B60008B81282F30E081E090E0022E02C0880FA8
:101B7000991F0A94E2F7809584238C93A8C0A5E36B
:101B8000B0E0E5E3F0E08081482F8B81282F30E042
:101B900081E090E0022E02C0880F991F0A94E2F7BC
:101BA000809584238C9393C0A2E3B0E0E2E3F0E05D
:101BB0008081482F8B81282F30E081E090E0022E39
:101BC00002C0880F991F0A94E2F7809584238C93B2
:101BD0007EC081E089837BC08C81813009F072C036
:101BE0008A81282F30E03E832D838D819E81813034
:101BF000910549F12D813E81223031052CF48D81F2
:101C00009E81009761F05BC02D813E8122303105BD
:101C100071F18D819E8183309105E9F150C0ABE374
:101C2000B0E0EBE3F0E08081482F8B81282F30E09B
:101C300081E090E0022E02C0880F991F0A94E2F71B
:101C4000842B8C9344C0A8E3B0E0E8E3F0E080810B
:101C5000482F8B81282F30E081E090E0022E02C0D7
:101C6000880F991F0A94E2F7842B8C9330C0A5E368
:101C7000B0E0E5E3F0E08081482F8B81282F30E051
:101C800081E090E0022E02C0880F991F0A94E2F7CB
:101C9000842B8C931CC0A2E3B0E0E2E3F0E08081EF
:101CA000482F8B81282F30E081E090E0022E02C087
:101CB000880F991F0A94E2F7842B8C9308C081E067
:101CC000898305C081E0898302C081E0898389819D
:101CD00028960FB6F894DEBF0FBECDBFCF91DF912F
:101CE0000895DF93CF9300D000D00F92CDB7DEB729
:101CF0008A836B8319828A818430B0F58A81282F88
:101D000030E03D832C838C819D8181309105D1F021
:101D10002C813D81223031052CF48C819D810097EE
:101D200061F01FC02C813D812230310581F08C8112
:101D30009D818330910581F014C0EBE3F0E08B814D
:101D4000808314C0E8E3F0E08B8180830FC0E5E37B
:101D5000F0E08B8180830AC0E2E3F0E08B81808336
:101D600005C081E0898302C081E0898389810F9069
:101D70000F900F900F900F90CF91DF910895DF9308
:101D8000CF93CDB7DEB727970FB6F894DEBF0FBE5F
:101D9000CDBF8A836B835D834C8319828C819D8147
:101DA000009709F478C08B81883008F074C08A816C
:101DB000282F30E03F832E834E815F8141305105D3
:101DC00059F18E819F818230910534F42E813F81BB
:101DD0002115310569F05CC04E815F8142305105AB
:101DE00079F18E819F818330910509F43DC050C007
:101DF000E9E3F0E08081282F30E08B81882F90E0AC
:101E0000A90102C0559547958A95E2F7CA018170EC
:101E1000EC81FD81808341C0E6E3F0E08081282FE2
:101E200030E08B81882F90E0A90102C0559547953D
:101E30008A95E2F7CA018170EC81FD8180832DC013
:101E4000E3E3F0E08081282F30E08B81882F90E061
:101E5000A90102C0559547958A95E2F7CA0181709C
:101E6000EC81FD81808319C0E0E3F0E08081282FC0
:101E700030E08B81882F90E0A90102C055954795ED
:101E80008A95E2F7CA018170EC81FD81808305C0EB
:101E900081E0898302C081E08983898127960FB61A
:101EA000F894DEBF0FBECDBFCF91DF910895DF93D1
:101EB000CF9300D000D00F92CDB7DEB78A836B836B
:101EC00019828A81282F30E03D832C838C819D816B
:101ED00081309105E1F02C813D81223031052CF4D7
:101EE0008C819D81009761F026C02C813D8122303C
:101EF0003105A1F08C819D8183309105B1F01BC02B
:101F0000EBE3F0E090818B818923898314C0E8E3BF
:101F1000F0E090818B81892389830DC0E5E3F0E0B7
:101F200090818B818923898306C0E2E3F0E0908170
:101F30008B818923898389810F900F900F900F9057
:101F40000F90CF91DF910895DF93CF93CDB7DEB798
:101F5000EAE3F0E08EEF8083E7E3F0E01082E4E371
:101F6000F0E087E08083E1E3F0E01082EBE3F0E073
:101F70001082E8E3F0E01082E5E3F0E01082E2E3B3
:101F8000F0E01082CF91DF910895DF93CF93CDB72A
:101F9000DEB727970FB6F894DEBF0FBECDBF9D8387
:101FA0008C836E834F838AE190E00E949D129A8316
:101FB000898389819A81009709F46FC08091840197
:101FC00090918501009741F489819A8190938501D0
:101FD000809384010E942C128E81823010F081E067
:101FE0008E83E981FA81118E108EE981FA818E81CA
:101FF000868BE981FA818F81878BE981FA818C81D7
:102000009D819183808389819A8102960E943313F6
:1020100089819A810C960E943313E981FA81898122
:102020009A8191878087E981FA8189819A81938B4E
:10203000828B8E81282F30E084E090E0821B930B0E
:10204000E981FA8195878487E981FA81968980916F
:102050008601891728F4E981FA81868980938601AF
:10206000E981FA818689282F30E0C901880F991FFC
:10207000880F991F880F991F820F931FAC01435738
:102080005E4F89819A819C012E5F3F4FCA01B90141
:102090000E94431381E08B8302C08FEF8B838B817F
:1020A00027960FB6F894DEBF0FBECDBFCF91DF915C
:1020B0000895DF93CF9300D000D000D0CDB7DEB726
:1020C0009C838B837E836D8320918701309188016F
:1020D0008B819C81820F931F9A83898380918401D5
:1020E0009091850102960E94FB13E0918401F0918A
:1020F000850189819A819383828320918701309120
:10210000880189819A818217930770F48091B301C5
:102110009091B40120918401309185012E5F3F4F51
:10212000B9010E948F130DC08091B1019091B2014D
:1021300020918401309185012E5F3F4FB9010E94AB
:102140008F138D819E81009761F080918401909121
:1021500085019C01245F3F4F8D819E81B9010E94C2
:102160008F1326960FB6F894DEBF0FBECDBFCF916A
:10217000DF910895DF93CF9300D0CDB7DEB73AC09B
:10218000F894E091BA01F091BB01868197819A831E
:10219000898389819A810C960E94FB1378948981A6
:1021A0009A8102960E94FB13E981FA8196898091B7
:1021B0008601891728F4E981FA818689809386014E
:1021C000E981FA818689282F30E0C901880F991F9B
:1021D000880F991F880F991F820F931FAC014357D7
:1021E0005E4F89819A819C012E5F3F4FCA01B901E0
:1021F0000E9443138091B501882309F0C1CF0F904D
:102200000F90CF91DF910895DF93CF9300D000D04E
:10221000CDB7DEB70E94BD1E2091890130918A01A1
:10222000821B930B90938C0180938B0185C08091CE
:10223000870190918801019690938801809387018E
:1022400080918B0190918C01019790938C018093E8
:102250008B018091870190918801009709F064C0FB
:102260008091B1019091B2019A8389838091B301E9
:102270009091B4019093B2018093B10189819A81C8
:102280009093B4018093B3014FC0E091B101F091FC
:10229000B2010580F681E02D868197819C838B8336
:1022A000EB81FC81228133818091870190918801AB
:1022B0008217930708F440C0F8948B819C810296A2
:1022C0000E94FB13EB81FC8184899589009729F09A
:1022D0008B819C810C960E94FB137894EB81FC818E
:1022E000968980918601891728F4EB81FC81868983
:1022F00080938601EB81FC818689282F30E0C9011B
:10230000880F991F880F991F880F991F820F931F9D
:10231000AC0143575E4F8B819C819C012E5F3F4FE8
:10232000CA01B9010E944313E091B101F091B201D9
:102330008081882309F0A9CF80918B0190918C0135
:10234000009709F074CF8091870190918801909354
:102350008A01809389010F900F900F900F90CF9179
:10236000DF910895DF93CF9300D0CDB7DEB70E9401
:10237000BA100E9404110AC080918601882309F4D2
:1023800066C080918601815080938601809186018C
:10239000282F30E0C901880F991F880F991F880FD7
:1023A000991F820F931FFC01E357FE4F8081882302
:1023B00019F380918601282F30E0C901880F991FF9
:1023C000880F991F880F991F820F931F83579E4F65
:1023D0009A838983E981FA810180F281E02D8281EB
:1023E0009381E981FA8192838183E981FA81218154
:1023F000328189819A8103962817390759F4E98136
:10240000FA810180F281E02D82819381E981FA8154
:1024100092838183E981FA810180F281E02D8681B6
:1024200097819093850180938401E0918401F091DC
:102430008501408151818091840190918501E091D5
:102440008401F09185012789622FFA0109950F9087
:102450000F90CF91DF910895DF93CF930F92CDB777
:10246000DEB7198213C08981282F30E0C901880F97
:10247000991F880F991F880F991F820F931F8357E9
:102480009E4F0E94091389818F5F898389818230E1
:1024900050F38FE991E00E94091388EA91E00E94CD
:1024A000091385EB91E00E9409138FE991E0909365
:1024B000B2018093B10188EA91E09093B4018093D6
:1024C000B3010F90CF91DF910895DF93CF9300D0A8
:1024D00000D00F92CDB7DEB79D838C83EC81FD8158
:1024E0000580F681E02D868197819B838A838A818E
:1024F0009B810C960E94FB138A819B819C01245F27
:102500003F4F85EB91E0B9010E944313EA81FB81C3
:102510009689E0918401F09185018689981718F0D9
:1025200081E0898301C0198289810F900F900F90FB
:102530000F900F90CF91DF910895DF93CF9300D04C
:1025400000D0CDB7DEB79C838B831A8219820E949C
:10255000271E8091BE019091BF012B813C81820F8B
:10256000931F23E0883E920718F52091BE01309119
:10257000BF018B819C81280F391F8091BE019091F2
:10258000BF0182179307A0F48091BE019091BF0113
:1025900080549E4F9A8389832091BE013091BF0160
:1025A0008B819C81820F931F9093BF018093BE010A
:1025B0000E94331E89819A810F900F900F900F9087
:1025C000CF91DF910895DF93CF9300D0CDB7DEB7E1
:1025D0009A8389830F900F90CF91DF910895DF93B5
:1025E000CF93CDB7DEB71092BF011092BE01CF914D
:1025F000DF910895DF93CF93CDB7DEB72091BE0171
:102600003091BF0188EE93E0821B930BCF91DF9155
:102610000895DF93CF9300D0CDB7DEB79A83898337
:1026200089819A810396E981FA8192838183E98184
:10263000FA818FEF9FEF9483838389819A81039638
:10264000E981FA819683858389819A810396E9815C
:10265000FA8190878783E981FA8110820F900F9029
:10266000CF91DF910895DF93CF9300D0CDB7DEB740
:102670009A838983E981FA81118610860F900F90E1
:10268000CF91DF910895DF93CF9300D000D000D099
:10269000CDB7DEB79C838B837E836D83EB81FC811A
:1026A000818192819A838983E981FA8182819381F0
:1026B000ED81FE8193838283EB81FC818181928114
:1026C000ED81FE8195838483E981FA810280F38123
:1026D000E02D8D819E81958384838D819E81E9810A
:1026E000FA81938382838D819E81EB81FC81928329
:1026F0008183ED81FE818B819C8191878087EB8135
:10270000FC8180818F5FEB81FC81808326960FB6F0
:10271000F894DEBF0FBECDBFCF91DF910895DF9358
:10272000CF93CDB7DEB728970FB6F894DEBF0FBEB4
:10273000CDBF9E838D8378876F83EF81F8858081FD
:1027400091819A83898389819A812FEF8F3F9207A4
:1027500039F4ED81FE81878190859C838B8318C03D
:102760008D819E8103969C838B8306C0EB81FC81C7
:10277000828193819C838B83EB81FC810280F38136
:10278000E02D2081318189819A818217930770F72A
:10279000EB81FC8182819381EF81F8859383828331
:1027A000EF81F8850280F381E02D8F8198859583F4
:1027B0008483EF81F8858B819C81958384838F81CD
:1027C0009885EB81FC8193838283EF81F8858D81ED
:1027D0009E8191878087ED81FE8180818F5FED8171
:1027E000FE81808328960FB6F894DEBF0FBECDBF62
:1027F000CF91DF910895DF93CF9300D000D0CDB774
:10280000DEB79C838B83EB81FC81A281B381EB815A
:10281000FC818481958115969C938E931497EB810E
:10282000FC81A481B581EB81FC8182819381139627
:102830009C938E931297EB81FC81808591859A837E
:102840008983E981FA81218132818B819C812817DA
:10285000390741F4EB81FC8184819581E981FA811A
:1028600092838183EB81FC8111861086E981FA8154
:1028700080818150E981FA8180830F900F900F90C1
:102880000F90CF91DF910895AF92BF92CF92DF92D8
:10289000EF92FF920F93DF93CF93CDB7DEB70E94F5
:1028A000A40F0E94D40A88E794E160E070E04AEF48
:1028B00050E020E030E000E0EE24FF24CC24DD24D2
:1028C000AA24BB240E94EB1B88E894E160E070E03E
:1028D0004AEF50E020E030E000E0EE24FF24CC247A
:1028E000DD24AA24BB240E94EB1B0E94E41DFFCF21
:1028F000DF93CF9300D0CDB7DEB79A83898380E68C
:1029000090E00E946E0B88EE93E00E94AF1DF7CF1F
:10291000DF93CF9300D0CDB7DEB79A83898389E662
:1029200090E00E946E0B88EE93E00E94AF1DF7CFFF
:10293000DF93CF93CDB7DEB728970FB6F894DEBFFD
:102940000FBECDBF9C838B837E836D8358874F835F
:10295000EB81FC8181E180838B819C8101979C8349
:102960008B83EB81FC8182E280838B819C81019748
:102970009C838B83EB81FC8183E380838B819C81AF
:1029800001979C838B838D819E819A838983898122
:10299000EB81FC8180838B819C8101979C838B835D
:1029A00089819A81892F99279A8389838981EB81EB
:1029B000FC8180838B819C8101979C838B83EB813D
:1029C000FC8110828B819C8101979C838B83EB819E
:1029D000FC8180E880838B819C8101979C838B8321
:1029E000EB81FC8110828B819C8101979C838B837E
:1029F000EB81FC8182E080838B819C8101979C83A9
:102A00008B83EB81FC8183E080838B819C810197A8
:102A10009C838B83EB81FC8184E080838B819C8110
:102A200001979C838B83EB81FC8185E080838B8184
:102A30009C8101979C838B83EB81FC8186E0808362
:102A40008B819C8101979C838B83EB81FC8187E048
:102A500080838B819C8101979C838B83EB81FC819C
:102A600088E080838B819C8101979C838B83EB81A1
:102A7000FC8189E080838B819C8101979C838B837F
:102A8000EB81FC8180E180838B819C8101979C8319
:102A90008B83EB81FC8181E180838B819C81019719
:102AA0009C838B83EB81FC8182E180838B819C8181
:102AB00001979C838B83EB81FC8183E180838B81F5
:102AC0009C8101979C838B83EB81FC8184E18083D3
:102AD0008B819C8101979C838B83EB81FC8185E1B9
:102AE00080838B819C8101979C838B83EB81FC810C
:102AF00086E180838B819C8101979C838B83EB8112
:102B0000FC8187E180838B819C8101979C838B83EF
:102B1000EB81FC8188E180838B819C8101979C8380
:102B20008B83EB81FC8189E180838B819C81019780
:102B30009C838B83EB81FC8180E280838B819C81F1
:102B400001979C838B83EB81FC8181E280838B8165
:102B50009C8101979C838B83EB81FC8182E2808343
:102B60008B819C8101979C838B83EB81FC8183E229
:102B700080838B819C8101979C838B838F81988537
:102B80009A8389838981EB81FC8180838B819C81FD
:102B900001979C838B8389819A81892F99279A83B6
:102BA00089838981EB81FC8180838B819C81019762
:102BB0009C838B83EB81FC8186E280838B819C816B
:102BC00001979C838B83EB81FC8187E280838B81DF
:102BD0009C8101979C838B83EB81FC8188E28083BD
:102BE0008B819C8101979C838B83EB81FC8189E2A3
:102BF00080838B819C8101979C838B83EB81FC81FB
:102C000080E380838B819C8101979C838B83EB8104
:102C1000FC8181E380838B819C8101979C838B83E2
:102C20008B819C8128960FB6F894DEBF0FBECDBF76
:102C3000CF91DF910895DF93CF93CDB7DEB70E9498
:102C40000B17A091A805B091A905CD91CDBFDD913D
:102C5000DEBFFF91EF91DF91CF91BF91AF919F9137
:102C60008F917F916F915F914F913F912F911F9124
:102C70000F91FF90EF90DF90CF90BF90AF909F901B
:102C80008F907F906F905F904F903F902F901F900C
:102C90000F900FBE0F90089581E0CF91DF910895BE
:102CA000DF93CF93CDB7DEB7CF91DF9108950F9229
:102CB0000FB6F8940F921F9211242F923F924F92C9
:102CC0005F926F927F928F929F92AF92BF92CF92BC
:102CD000DF92EF92FF920F931F932F933F934F93A7
:102CE0005F936F937F938F939F93AF93BF93CF9394
:102CF000DF93EF93FF93A091A805B091A9050DB6BE
:102D00000D920EB60D920E94C71FA091A805B0911A
:102D1000A905CD91CDBFDD91DEBFFF91EF91DF9190
:102D2000CF91BF91AF919F918F917F916F915F9163
:102D30004F913F912F911F910F91FF90EF90DF9056
:102D4000CF90BF90AF909F908F907F906F905F904B
:102D50004F903F902F901F900F900FBE0F900895AF
:102D60000F920FB6F8940F921F9211242F923F9258
:102D70004F925F926F927F928F929F92AF92BF928B
:102D8000CF92DF92EF92FF920F931F932F933F9377
:102D90004F935F936F937F938F939F93AF93BF9363
:102DA000CF93DF93EF93FF93A091A805B091A9056E
:102DB0000DB60D920EB60D920E94F21E0E94C71F14
:102DC000A091A805B091A905CD91CDBFDD91DEBF41
:102DD000FF91EF91DF91CF91BF91AF919F918F9133
:102DE0007F916F915F914F913F912F911F910F9123
:102DF000FF90EF90DF90CF90BF90AF909F908F901B
:102E00007F906F905F904F903F902F901F900F900A
:102E10000FBE0F900895DF93CF9300D000D000D065
:102E2000CDB7DEB780E89EE3A0E0B0E08B839C8363
:102E3000AD83BE838B819C81AD81BE81689415F882
:102E4000B695A795979587951694D1F78B839C8314
:102E5000AD83BE838B819C81AD81BE810197A10929
:102E6000B1098B839C83AD83BE838B8189838B81E6
:102E70009C81AD81BE81892F9A2FAB2FBB278B837D
:102E80009C83AD83BE838B818A83EBE4F0E08A81EF
:102E90008083EAE4F0E0898180838BE08983EEE43B
:102EA000F0E089818083E9E5F0E080818983898190
:102EB00080618983E9E5F0E08981808326960FB6F9
:102EC000F894DEBF0FBECDBFCF91DF9108950E9471
:102ED000B0161895DF93CF93CDB7DEB728970FB60E
:102EE000F894DEBF0FBECDBF8F8368871A82198228
:102EF0008F81882309F48CC08FE190E00E949D129D
:102F00009E838D838D819E81009709F481C08F817E
:102F1000282F30E08885882F90E0AC01249FC001E5
:102F2000259F900D349F900D112401969C838B83D7
:102F30008B819C810E949D12ED81FE819183808313
:102F4000ED81FE8180819181009709F45DC0ED8162
:102F5000FE81408151818F81282F30E08885882F24
:102F600090E0BC01269FC001279F900D369F900DD9
:102F70001124840F951FED81FE8193838283ED815F
:102F8000FE81128EED81FE8180819181ED81FE8135
:102F900095838483ED81FE81408151818F81882FCB
:102FA00090E09C01215030408885882F90E0BC0142
:102FB000269FC001279F900D369F900D1124840FEE
:102FC000951FED81FE8197838683ED81FE818F8140
:102FD000838FED81FE818885848FED81FE818FEF67
:102FE000858FED81FE818FEF868F8D819E81089682
:102FF0000E9409138D819E8141960E9409138D8143
:103000009E819A83898304C08D819E810E94E312F0
:1030100089819A8128960FB6F894DEBF0FBECDBF86
:10302000CF91DF910895DF93CF93CDB7DEB72C9783
:103030000FB6F894DEBF0FBECDBF9E838D83788719
:103040006F835A8749872B8719820FB6F8940F929E
:10305000ED81FE81928DED81FE81838D9817D8F4EC
:103060008D819E812F813885B9014B850E944E1A32
:10307000ED81FE818189882349F08D819E81419671
:103080000E946320813011F40E9457160F900FBEEA
:1030900081E08C875CC089859A85009721F40F9028
:1030A0000FBE1C8654C08981882331F4CE0102965C
:1030B0000E94CB2081E089830F900FBE0E94271EC3
:1030C0000FB6F8940F92ED81FE81858D8F3F19F434
:1030D000ED81FE81158EED81FE81868D8F3F19F485
:1030E000ED81FE81168E0F900FBECE0102969E01DD
:1030F000275F3F4FB9010E94E420882309F58D81A5
:103100009E810E94B21B8823A1F08D819E8108962A
:1031100029853A85B9010E942D208D819E810E94CA
:103120002B1B0E94331E882309F08FCF0E94571655
:103130008CCF8D819E810E942B1B0E94331E85CFD8
:103140008D819E810E942B1B0E94331E1C868C85C4
:103150002C960FB6F894DEBF0FBECDBFCF91DF9196
:103160000895DF93CF93CDB7DEB729970FB6F894C4
:10317000DEBF0FBECDBF9C838B837E836D8358875C
:103180004F8329871982EB81FC81928DEB81FC8131
:10319000838D981740F58B819C812D813E81B901EB
:1031A00049850E944E1AEB81FC81868D8F3F89F400
:1031B000EB81FC818189882399F08B819C814196E8
:1031C0000E946320882361F0EF81F88581E080838D
:1031D00007C0EB81FC81868D8F5FEB81FC81868F40
:1031E00081E08A8301C01A828A8129960FB6F894F9
:1031F000DEBF0FBECDBFCF91DF910895DF93CF9398
:10320000CDB7DEB72E970FB6F894DEBF0FBECDBF99
:1032100098878F837A8769875C874B872D871B8286
:103220000FB6F8940F92EF81F885828D882309F408
:103230003FC0EF81F885868197819A8389838F814A
:10324000988529853A85B9010E94E31A8D858823DE
:10325000B1F4EF81F885828D8150EF81F885828FFE
:10326000EF81F88580858823F1F08F819885089615
:103270000E9463208130B9F40E94571614C0EF8178
:10328000F88589819A8197838683EF81F885818982
:10329000882349F08F81988541960E946320882376
:1032A00011F00E9457160F900FBE81E08E875CC010
:1032B0008B859C85009721F40F900FBE1E8654C00D
:1032C0008B81882331F4CE0104960E94CB2081E0CB
:1032D0008B830F900FBE0E94271E0FB6F8940F929B
:1032E000EF81F885858D8F3F19F4EF81F885158E74
:1032F000EF81F885868D8F3F19F4EF81F885168E62
:103300000F900FBECE0104969E01255F3F4FB9017D
:103310000E94E420882309F58F8198850E947F1BF5
:103320008823A1F08F81988541962B853C85B90132
:103330000E942D208F8198850E942B1B0E94331E96
:10334000882309F06DCF0E9457166ACF8F81988528
:103350000E942B1B0E94331E63CF8F8198850E9491
:103360002B1B0E94331E1E868E852E960FB6F89458
:10337000DEBF0FBECDBFCF91DF910895DF93CF9316
:10338000CDB7DEB728970FB6F894DEBF0FBECDBF1E
:103390009C838B837E836D8358874F831982EB8157
:1033A000FC81828D882371F18B819C812D813E81EE
:1033B000B9010E94E31AEB81FC81828D8150EB817F
:1033C000FC81828FEB81FC81858D8F3F89F4EB81BD
:1033D000FC818085882399F08B819C8108960E94CE
:1033E0006320882361F0EF81F88581E0808307C046
:1033F000EB81FC81858D8F5FEB81FC81858F81E086
:103400008A8301C01A828A8128960FB6F894DEBF9B
:103410000FBECDBFCF91DF910895DF93CF9300D042
:103420000F92CDB7DEB79B838A830FB6F8940F92C5
:10343000EA81FB81828D89830F900FBE89810F9075
:103440000F900F90CF91DF910895DF93CF9300D02D
:103450000F92CDB7DEB79B838A83EA81FB81828D91
:10346000898389810F900F900F90CF91DF910895FC
:10347000DF93CF9300D0CDB7DEB79A838983E981FC
:10348000FA81808191810E94E31289819A810E9450
:10349000E3120F900F90CF91DF910895DF93CF93B8
:1034A00000D000D00F92CDB7DEB79A8389837C839A
:1034B0006B834D83E981FA81848D882309F474C07C
:1034C0008D81882399F5E981FA8164817581E9818B
:1034D000FA81848D482F50E02B813C81CB01B901CA
:1034E0000E944A23E981FA8124813581E981FA81A8
:1034F000848D882F90E0820F931FE981FA81958354
:103500008483E981FA8124813581E981FA8182818C
:1035100093812817390708F447C0E981FA8180812F
:103520009181E981FA81958384833EC0E981FA81A2
:1035300066817781E981FA81848D482F50E02B8163
:103540003C81CB01B9010E944A23E981FA8126819D
:103550003781E981FA81848D882F90E0909581955B
:103560009F4F820F931FE981FA8197838683E981B8
:10357000FA8126813781E981FA818081918128173A
:10358000390790F4E981FA8122813381E981FA8156
:10359000848D882F90E0909581959F4F820F931F87
:1035A000E981FA8197838683E981FA81828D8F5F31
:1035B000E981FA81828F0F900F900F900F900F90FA
:1035C000CF91DF910895DF93CF9300D000D0CDB796
:1035D000DEB79A8389837C836B83E981FA8180815A
:1035E0009181009789F1E981FA8126813781E9810A
:1035F000FA81848D882F90E0820F931FE981FA81F0
:1036000097838683E981FA8126813781E981FA816E
:10361000828193812817390740F0E981FA818081FE
:103620009181E981FA8197838683E981FA814681D4
:103630005781E981FA81848D282F30E08B819C812C
:10364000BA01A9010E944A230F900F900F900F908A
:10365000CF91DF910895DF93CF9300D0CDB7DEB740
:103660009A8389830FB6F8940F9215C0E981FA8185
:1036700081898823A9F089819A8141960E946320DB
:10368000882311F00E944121E981FA81868D8150C1
:10369000E981FA81868FE981FA81868D181634F3E3
:1036A000E981FA818FEF868F0F900FBE0FB6F894E5
:1036B0000F9215C0E981FA8180858823A9F089815C
:1036C0009A8108960E946320882311F00E9441216C
:1036D000E981FA81858D8150E981FA81858FE981BF
:1036E000FA81858D181634F3E981FA818FEF858F81
:1036F0000F900FBE0F900F90CF91DF910895DF9341
:10370000CF9300D00F92CDB7DEB79B838A830FB6DD
:10371000F8940F92EA81FB81828D1982882311F43B
:1037200081E089830F900FBE89810F900F900F90D9
:10373000CF91DF910895DF93CF9300D00F92CDB753
:10374000DEB79B838A83EA81FB81828D198288237D
:1037500011F481E0898389810F900F900F90CF91B0
:10376000DF910895DF93CF9300D00F92CDB7DEB7EE
:103770009B838A830FB6F8940F92EA81FB81928D26
:10378000EA81FB81838D1982981711F481E0898386
:103790000F900FBE89810F900F900F90CF91DF9106
:1037A0000895DF93CF9300D00F92CDB7DEB79B8300
:1037B0008A83EA81FB81928DEA81FB81838D198264
:1037C000981711F481E0898389810F900F900F90F1
:1037D000CF91DF910895AF92BF92CF92DF92EF9297
:1037E000FF920F931F93DF93CF93CDB7DEB764970C
:1037F0000FB6F894DEBF0FBECDBF9F838E8379874F
:1038000068875B874A873D872C870E87F88AEF8613
:10381000DA8AC98ABC8AAB8A8A859B8529893A89D2
:10382000B9010E9470229C838B838B819C810097BD
:1038300009F499C0EB81FC812789308D8A859B85AD
:103840000197820F931F9A8389838B819C8128859E
:103850003985EB89FC89AA85BB85B9014E859F0115
:103860008D010E94552189819A812E813F814C854D
:103870005D85B9010E949814EB81FC81918380835E
:103880008F859889009731F0EF85F8898B819C812D
:10389000918380830FB6F8940F928091AB058F5F70
:1038A0008093AB058091A8059091A905009769F4D4
:1038B0008B819C819093A9058093A8058091AB058D
:1038C0008130A9F40E94AC2112C08091B0058823F8
:1038D00071F4E091A805F091A90596898E85891764
:1038E00030F08B819C819093A9058093A805EB8192
:1038F000FC8196898091AE05891728F4EB81FC81C3
:1039000086898093AE058091B5058F5F8093B5055C
:10391000EB81FC8196898091AF05891728F4EB81B2
:10392000FC8186898093AF05EB81FC818689282FF5
:1039300030E0C901880F991F880F991F880F991FC0
:10394000820F931FAC014A545A4F8B819C819C017A
:103950002E5F3F4FCA01B9010E94431381E08D835E
:103960000F900FBE02C08FEF8D838D81813071F477
:103970008091B005882351F0E091A805F091A90548
:1039800096898E85981710F40E9457168D8164963B
:103990000FB6F894DEBF0FBECDBFCF91DF911F9160
:1039A0000F91FF90EF90DF90CF90BF90AF90089570
:1039B000DF93CF9300D000D000D0CDB7DEB79C838B
:1039C0008B830FB6F8940F922091A8053091A9052A
:1039D0008B819C818217930711F41C821B828B813F
:1039E0009C81009739F48091A8059091A9059E8348
:1039F0008D8304C08B819C819E838D838D819E816C
:103A00009A83898389819A8102960E94FB13E981B6
:103A1000FA8184899589009729F089819A810C9689
:103A20000E94FB1389819A819C012E5F3F4F89EF91
:103A300095E0B9010E9443138091AA058F5F80939E
:103A4000AA058091B5058F5F8093B5050F900FBED5
:103A50008091B005882331F08B819C81009711F40F
:103A60000E94571626960FB6F894DEBF0FBECDBF44
:103A7000CF91DF910895DF93CF93CDB7DEB728972D
:103A80000FB6F894DEBF0FBECDBF9E838D837887BF
:103A90006F8319820E94271EED81FE812081318172
:103AA0008F819885820F931F9C838B83ED81FE818C
:103AB000208131818091AC059091AD0582179307EB
:103AC000A8F4ED81FE81208131818B819C81821758
:103AD000930700F52091AC053091AD058B819C8159
:103AE00028173907B8F481E0898314C0ED81FE817D
:103AF000208131818B819C818217930748F020912E
:103B0000AC053091AD058B819C812817390710F4E5
:103B100081E08983ED81FE818B819C81918380830B
:103B20008981882359F08091A8059091A905029672
:103B30000E94FB138B819C810E9427220E94331ECE
:103B40008A838A81882311F40E94571628960FB61B
:103B5000F894DEBF0FBECDBFCF91DF910895DF9304
:103B6000CF9300D000D00F92CDB7DEB79D838C836A
:103B700019828C819D810097D1F00E94271E20918F
:103B8000AC053091AD058C819D81820F931F9B8385
:103B90008A838091A8059091A90502960E94FB1343
:103BA0008A819B810E9427220E94331E89838981FA
:103BB000882311F40E9457160F900F900F900F90CA
:103BC0000F90CF91DF910895AF92BF92CF92DF9285
:103BD000EF92FF920F93DF93CF930F92CDB7DEB7A3
:103BE00022E730E08BE491E2B9014AEF50E020E0B7
:103BF00030E000E0EE24FF24CC24DD24AA24BB2402
:103C00000E94EB1B89838981813051F4F89481E013
:103C10008093B0051092AD051092AC050E941B1662
:103C20000F90CF91DF910F91FF90EF90DF90CF90A9
:103C3000BF90AF900895DF93CF93CDB7DEB7F894E0
:103C40001092B0050E945016CF91DF910895DF9336
:103C5000CF93CDB7DEB78091B1058F5F8093B1056B
:103C6000CF91DF910895DF93CF9300D000D0CDB7EF
:103C7000DEB71A820FB6F8940F928091B105815089
:103C80008093B1058091B105882309F06CC08091C3
:103C9000AB05882309F467C0198241C0E091F5059E
:103CA000F091F605868197819C838B838B819C8123
:103CB0000C960E94FB138B819C8102960E94FB1341
:103CC000EB81FC8196898091AF05891728F4EB81FF
:103CD000FC8186898093AF05EB81FC818689282F42
:103CE00030E0C901880F991F880F991F880F991F0D
:103CF000820F931F8A549A4F2B813C812E5F3F4F36
:103D0000B9010E944313EB81FC819689E091A805DB
:103D1000F091A9058689981710F081E08983809138
:103D2000F005882309F0BACF8091B205882371F09D
:103D300007C00E94F21E8091B20581508093B205A7
:103D40008091B2058823A9F781E089838981813038
:103D500021F08091B305813031F481E08A831092A3
:103D6000B3050E9457160F900FBE8A810F900F90D7
:103D70000F900F90CF91DF910895DF93CF9300D0F4
:103D8000CDB7DEB70FB6F8940F928091AC05909145
:103D9000AD059A8389830F900FBE89819A810F9018
:103DA0000F90CF91DF910895DF93CF9300D00F92C2
:103DB000CDB7DEB719828091AC059091AD059B839C
:103DC0008A838A819B810F900F900F90CF91DF9112
:103DD0000895DF93CF93CDB7DEB78091AB05CF9138
:103DE000DF910895DF93CF9300D000D000D0CDB7FE
:103DF000DEB78091B105882309F0BBC08091AC0586
:103E00009091AD0501969093AD058093AC0580919E
:103E1000AC059091AD050097D1F58091EC0590919E
:103E2000ED059C838B838091EE059091EF05909337
:103E3000ED058093EC058B819C819093EF05809339
:103E4000EE058091B4058F5F8093B405E091EC0599
:103E5000F091ED058081882339F48FEF9FEF9093E7
:103E6000800180937F0113C0E091EC05F091ED0596
:103E70000580F681E02D868197819E838D83ED817B
:103E8000FE81828193819093800180937F012091B4
:103E9000AC053091AD0580917F019091800128178C
:103EA000390708F46BC0E091EC05F091ED058081D5
:103EB000882339F48FEF9FEF9093800180937F01E7
:103EC0005DC0E091EC05F091ED050580F681E02DF7
:103ED000868197819E838D83ED81FE81828193818E
:103EE0009A8389832091AC053091AD0589819A81AF
:103EF0002817390738F489819A819093800180933B
:103F00007F013CC08D819E8102960E94FB13ED8152
:103F1000FE8184899589009729F08D819E810C9678
:103F20000E94FB13ED81FE8196898091AF05891770
:103F300028F4ED81FE8186898093AF05ED81FE81B5
:103F40008689282F30E0C901880F991F880F991F93
:103F5000880F991F820F931FAC014A545A4F8D81CD
:103F60009E819C012E5F3F4FCA01B9010E944313FD
:103F70009ACF8091B2058F5F8093B20526960FB6D7
:103F8000F894DEBF0FBECDBFCF91DF910895DF93D0
:103F9000CF9300D0CDB7DEB78091B105882349F02B
:103FA00081E08093B30554C08091AF058150809328
:103FB000AF058091AF05282F30E0C901880F991F08
:103FC000880F991F880F991F820F931FFC01EA54D5
:103FD000FA4F8081882341F38091AF05282F30E08C
:103FE000C901880F991F880F991F880F991F820F89
:103FF000931F8A549A4F9A838983E981FA810180B9
:10400000F281E02D82819381E981FA81928381831B
:10401000E981FA812181328189819A810396281769
:10402000390759F4E981FA810180F281E02D82811A
:104030009381E981FA8192838183E981FA81018008
:10404000F281E02D868197819093A9058093A80540
:104050000F900F90CF91DF910895DF93CF9300D011
:1040600000D000D0CDB7DEB79C838B837E836D8379
:104070004B815C818091A8059091A9059C01245FEA
:104080003F4FCA01B9010E948F138091A8059091FA
:10409000A90502960E94FB132091AC053091AD0555
:1040A0008D819E81820F931F9A83898389819A8152
:1040B0000E94272226960FB6F894DEBF0FBECDBF12
:1040C000CF91DF910895DF93CF9300D000D00F926E
:1040D000CDB7DEB79D838C83EC81FD810580F681B1
:1040E000E02D868197819B838A838A819B810C96B0
:1040F0000E94FB138091B105882361F58A819B8121
:1041000002960E94FB13EA81FB8196898091AF059C
:10411000891728F4EA81FB8186898093AF05EA81BB
:10412000FB818689282F30E0C901880F991F880FED
:10413000991F880F991F820F931FAC014A545A4F41
:104140008A819B819C012E5F3F4FCA01B9010E9469
:1041500043130AC08A819B819C01245F3F4F80EFFB
:1041600095E0B9010E944313EA81FB819689E091B1
:10417000A805F091A9058689981718F081E0898330
:1041800001C0198289810F900F900F900F900F90AE
:10419000CF91DF910895DF93CF9300D0CDB7DEB7F5
:1041A0009A8389838091B405E981FA818083809123
:1041B000AC059091AD05E981FA81928381830F90DE
:1041C0000F90CF91DF910895DF93CF9300D000D06F
:1041D0000F92CDB7DEB79B838A837D836C830FB646
:1041E000F8940F92EA81FB8190818091B405981731
:1041F00071F0EA81FB81218132818091AC0590913F
:10420000AD058217930718F081E089832FC02091B4
:10421000AC053091AD05EA81FB8181819281281B3B
:10422000390BEC81FD818081918128173907E0F4F9
:10423000EC81FD8140815181EA81FB8121813281C4
:104240008091AC059091AD05B901681B790BCB014C
:10425000840F951FEC81FD81918380838A819B81EE
:104260000E94CB20198202C081E089830F900FBE8B
:1042700089810F900F900F900F900F90CF91DF9149
:104280000895DF93CF93CDB7DEB781E08093B30578
:10429000CF91DF910895DF93CF9300D0CDB7DEB7F4
:1042A0009A8389830E94E921FDCF0F931F93DF93A7
:1042B000CF93CDB7DEB729970FB6F894DEBF0FBE08
:1042C000CDBF9A8389837C836B834D833F832E8309
:1042D0001987088789819A8149962B813C81B90188
:1042E00048E050E00E945A23E981FA8110A28D81B2
:1042F000843010F083E08D83E981FA818D81868B93
:1043000089819A8102960E94331389819A810C9641
:104310000E943313E981FA8189819A81918780878C
:104320008D81282F30E084E090E0821B930BE9819F
:10433000FA8195878487E981FA8189819A81938BB3
:10434000828B29960FB6F894DEBF0FBECDBFCF91FA
:10435000DF911F910F910895DF93CF930F92CDB707
:10436000DEB7198213C08981282F30E0C901880F78
:10437000991F880F991F880F991F820F931F8A54C6
:104380009A4F0E94091389818F5F898389818430C4
:1043900050F38AED95E00E94091383EE95E00E94A8
:1043A000091380EF95E00E94091389EF95E00E94C0
:1043B00009138AED95E09093ED058093EC0583EE6B
:1043C00095E09093EF058093EE050F90CF91DF91EC
:1043D0000895DF93CF9300D00F92CDB7DEB78091D1
:1043E000AA05882371F10E94271E8091F9051B827E
:1043F000882311F481E08B830E94331E8B818823F4
:1044000001F50FB6F8940F92E091FE05F091FF05CB
:10441000868197819A83898389819A8102960E94F5
:10442000FB138091AB0581508093AB058091AA0569
:1044300081508093AA050F900FBE89819A810E94B6
:10444000C0220F900F900F90CF91DF910895DF93CE
:10445000CF9300D0CDB7DEB79A838983E091A805CA
:10446000F091A90589819A81938382832091AC057B
:104470003091AD0589819A818217930770F48091FC
:10448000EE059091EF052091A8053091A9052E5FCA
:104490003F4FB9010E948F131EC04091EC0550910F
:1044A000ED058091A8059091A9059C012E5F3F4FD5
:1044B000CA01B9010E948F1320917F0130918001C0
:1044C00089819A818217930730F489819A81909328
:1044D000800180937F010F900F90CF91DF9108951D
:1044E000DF93CF93CDB7DEB728970FB6F894DEBF32
:1044F0000FBECDBF9C838B837E836D8381E290E072
:104500000E949D129A83898389819A81009769F11B
:104510008D819E81009739F48B819C810E949D1230
:1045200098878F8304C08D819E8198878F83E981CE
:10453000FA818F819885908F878BE981FA818789AD
:10454000908D009739F489819A810E94E3121A8232
:1045500019820BC0E981FA818789908D2B813C817A
:1045600065EA70E0A9010E94532389819A81289607
:104570000FB6F894DEBF0FBECDBFCF91DF91089587
:10458000DF93CF9300D0CDB7DEB79A838983E981DB
:10459000FA818789908D0E94E31289819A810E9415
:1045A000E3120F900F90CF91DF91089597FB092EA2
:1045B00005260ED057FD04D014D00AD0001C38F4C4
:1045C00050954095309521953F4F4F4F5F4F08953F
:1045D000F6F790958095709561957F4F8F4F9F4F1F
:1045E0000895A1E21A2EAA1BBB1BFD010DC0AA1F34
:1045F000BB1FEE1FFF1FA217B307E407F50720F04C
:10460000A21BB30BE40BF50B661F771F881F991FC6
:104610001A9469F760957095809590959B01AC010F
:10462000BD01CF0108952F923F924F925F926F92FA
:104630007F928F929F92AF92BF92CF92DF92EF9232
:10464000FF920F931F93CF93DF93CDB7DEB7CA1BB3
:10465000DB0B0FB6F894DEBF0FBECDBF09942A88DE
:10466000398848885F846E847D848C849B84AA8486
:10467000B984C884DF80EE80FD800C811B81AA8113
:10468000B981CE0FD11D0FB6F894DEBF0FBECDBFDE
:10469000ED010895FB01DC0102C001900D92415033
:1046A0005040D8F70895DC0101C06D93415050404F
:1046B000E0F70895FB01DC014150504048F00190C3
:1046C0000D920020C9F701C01D9241505040E0F703
:0646D0000895F894FFCFED
:1046D60049414D5441536B310049414D5441536B4F
:1046E600320049444C450000000000000000000074
:1046F600010202030303030404040404040404057E
:104706000505050505050505050505050505050652
:104716000606060606060606060606060606060633
:104726000606060606060606060606060606060722
:104736000707070707070707070707070707070703
:1047460007070707070707070707070707070707F3
:1047560007070707070707070707070707070707E3
:1047660007070707070707070707070707070708D2
:1047760008080808080808080808080808080808B3
:1047860008080808080808080808080808080808A3
:104796000808080808080808080808080808080893
:1047A6000808080808080808080808080808080883
:1047B6000808080808080808080808080808080873
:1047C6000808080808080808080808080808080863
:1047D6000808080808080808080808080808080853
:1047E600080808080808080808080808080808FF4C
:0247F600FF00C2
:00000001FF
