:100000000C942A000C943F000C943F000C943F0089
:100010000C943F000C943F000C943F000C943F0064
:100020000C943F000C943F000C943F000C943F0054
:100030000C943F000C943F000C943F000C943F0044
:100040000C943F000C943F000C943F000C943F0034
:100050000C943F0011241FBECFE5D8E0DEBFCDBF1A
:1000600011E0A0E6B0E0E8E9F5E202C005900D92EB
:10007000A836B107D9F70E94D9100C94CA120C9473
:100080000000EF92FF920F931F937B018C0120E001
:1000900030E040E05FE40E94710388238CF0C801E7
:1000A000B70120E030E040E05FE40E94B9010E9427
:1000B0002F049B01AC01205030404040504806C006
:1000C000C801B7010E942F049B01AC01B901CA010C
:1000D0001F910F91FF90EF900895A0E0B0E0E3E74B
:1000E000F0E00C949312DC012B01FA019C91923008
:1000F00008F439C1EB018881823008F433C19430AF
:1001000069F4843009F02FC111969C91119789816F
:10011000981709F428C1A0E6B0E025C1843009F49D
:1001200021C18230A9F4923009F01DC19A01AD01BC
:1001300088E0EA010990AE01E90109929E0181502F
:10014000C1F7E201898111969C918923818308C1BD
:10015000923009F407C112962D903C901397EB0151
:100160008A819B811496AD90BD90CD90DC901797BD
:10017000EC80FD800E811F819101281B390BB90194
:1001800037FF04C066277727621B730B6032710547
:100190000CF061C0121613066CF537014801062EEB
:1001A00004C096948794779467940A94D2F721E0D8
:1001B00030E040E050E004C0220F331F441F551FC1
:1001C0006A95D2F721503040404050402E213F21C7
:1001D00040235123211531054105510521F021E02E
:1001E00030E040E050E079018A01E628F72808294C
:1001F00019293CC0232BD1F1260E371E35014601AB
:10020000062E04C096948794779467940A94D2F744
:1002100021E030E040E050E004C0220F331F441FD3
:10022000551F6A95D2F721503040404050402A2156
:100230003B214C215D21211531054105510521F05E
:1002400021E030E040E050E059016A01A628B728DB
:10025000C828D9280BC0821593052CF01C01AA24AC
:10026000BB24650103C0EE24FF24870111969C91F5
:10027000D20111968C91981709F445C0992339F051
:10028000A80197012A193B094C095D0906C0A6017E
:1002900095012E193F09400B510B57FD08C01182E3
:1002A0003382228224833583468357831DC081E0B5
:1002B00081833382228288279927DC01821B930B5A
:1002C000A40BB50B84839583A683B7830DC0220F3F
:1002D000331F441F551F24833583468357838281F0
:1002E000938101979383828324813581468157814D
:1002F000DA01C9010197A109B1098F5F9F4FAF4F83
:10030000BF4328F30BC0918333822282EA0CFB1C8B
:100310000C1D1D1DE482F5820683178383E0808314
:10032000248135814681578157FF1AC0C901AA2708
:1003300097FDA095BA2F81709070A070B0705695FF
:10034000479537952795822B932BA42BB52B848328
:100350009583A683B7838281938101969383828359
:10036000DF0101C0D201CD01CDB7DEB7E2E10C94CF
:10037000AF12A0E2B0E0EFEBF1E00C949F126983C2
:100380007A838B839C832D833E834F835887E9E058
:10039000EE2EF12CEC0EFD1ECE010196B7010E944F
:1003A00020068E010F5E1F4FCE010596B8010E94F8
:1003B00020068A8991E089278A8BC701B801AE019E
:1003C000475E5F4F0E946D000E944B05A096E6E0DD
:1003D0000C94BB12A0E2B0E0E0EFF1E00C949F12AD
:1003E00069837A838B839C832D833E834F835887D5
:1003F000F9E0EF2EF12CEC0EFD1ECE010196B701B7
:100400000E9420068E010F5E1F4FCE010596B80197
:100410000E942006C701B801AE01475E5F4F0E94EF
:100420006D000E944B05A096E6E00C94BB12A0E282
:10043000B0E0EDE1F2E00C94931269837A838B8350
:100440009C832D833E834F835887CE010196BE0146
:10045000675F7F4F0E942006CE010596BE016F5E4A
:100460007F4F0E9420069985923088F089898230DA
:10047000C8F0943019F4823051F404C0843029F467
:10048000923081F480E690E0C6C0923049F420E0DA
:100490009A858A89981321E02A87CE010996BBC0E4
:1004A000823049F420E09A858A89981321E02A8BCA
:1004B000CE014196B0C02D843E844F8458886D880B
:1004C0007E888F88988CEE24FF248701AA24BB2481
:1004D000650140E050E060E070E0E0E0F0E0C10184
:1004E00081709070892BE9F0E60CF71C081D191D2E
:1004F0009A01AB012A0D3B1D4C1D5D1D80E090E073
:10050000A0E0B0E0E614F7040805190520F481E046
:1005100090E0A0E0B0E0BA01A901480F591F6A1F9E
:100520007B1FAA0CBB1CCC1CDD1C97FE08C081E005
:1005300090E0A0E0B0E0A82AB92ACA2ADB2A3196C6
:10054000E032F10549F0660C771C881C991C569422
:10055000479437942794C3CFFA85EA892B893C893D
:100560008B859C85280F391F2E5F3F4F17C0CA010E
:1005700081709070892B61F016950795F794E79438
:1005800080E090E0A0E0B0E8E82AF92A0A2B1B2BD3
:1005900076956795579547952F5F3F4F77FDE7CF46
:1005A0000CC0440F551F661F771F17FD4160EE0CEE
:1005B000FF1C001F111F21503040403090E05907B0
:1005C00090E0690790E4790760F32B8F3C8FDB01A3
:1005D000CA018F779070A070B07080349105A1052A
:1005E000B10561F447FD0AC0E114F10401051105EC
:1005F00029F0405C5F4F6F4F7F4F40781A8EFE1797
:1006000011F081E08A8F4D8F5E8F6F8F78A383E02A
:10061000898FCE0149960E944B05A096E2E10C9489
:10062000AF12A8E1B0E0E7E1F3E00C949F12698318
:100630007A838B839C832D833E834F83588789E005
:10064000E82EF12CEC0EFD1ECE010196B7010E94A2
:1006500020068E010F5E1F4FCE010596B8010E9445
:1006600020068985823040F08989823028F0C701D0
:10067000B8010E94980601C081E06896E6E00C94FB
:10068000BB12A8E1B0E0E7E4F3E00C949F126983A9
:100690007A838B839C832D833E834F83588789E0A5
:1006A000E82EF12CEC0EFD1ECE010196B7010E9442
:1006B00020068E010F5E1F4FCE010596B8010E94E5
:1006C00020068985823040F08989823028F0C70170
:1006D000B8010E94980601C08FEF6896E6E00C947E
:1006E000BB12A8E1B0E0E7E7F3E00C949F12698346
:1006F0007A838B839C832D833E834F83588789E045
:10070000E82EF12CEC0EFD1ECE010196B7010E94E1
:1007100020068E010F5E1F4FCE010596B8010E9484
:1007200020068985823040F08989823028F0C7010F
:10073000B8010E94980601C08FEF6896E6E00C941D
:10074000BB12A8E1B0E0E7EAF3E00C949F126983E2
:100750007A838B839C832D833E834F83588789E0E4
:10076000E82EF12CEC0EFD1ECE010196B7010E9481
:1007700020068E010F5E1F4FCE010596B8010E9424
:1007800020068985823040F08989823028F0C701AF
:10079000B8010E94980601C081E06896E6E00C94DA
:1007A000BB12A8E0B0E0E7EDF3E00C949C129B01D3
:1007B000AC0183E08983DA01C9018827B7FD8395FD
:1007C0009927AA27BB27B82E2115310541055105C8
:1007D00019F482E089833AC08823A9F0203080E0B0
:1007E000380780E0480780E8580729F460E070E0A7
:1007F00080E09FEC30C0EE24FF248701E21AF30A68
:10080000040B150B02C079018A018EE1C82ED12C90
:10081000DC82CB82ED82FE820F831887C801B7018C
:100820000E94FC0401971816190684F4082E04C0CF
:10083000EE0CFF1C001F111F0A94D2F7ED82FE82FE
:100840000F831887C81AD90ADC82CB82BA82CE01FC
:1008500001960E944B052896E9E00C94B812ACE092
:10086000B0E0E5E3F4E00C94A31269837A838B8310
:100870009C83CE010196BE016B5F7F4F0E942006D4
:100880008D81823061F1823050F1843021F48E818B
:10089000882351F12EC02F81388537FD20C06E810D
:1008A0002F3131051CF06623F9F023C08EE190E072
:1008B000821B930B29853A854B855C8504C0569530
:1008C0004795379527958A95D2F76623B1F05095CD
:1008D0004095309521953F4F4F4F5F4F0EC020E020
:1008E00030E040E050E009C02FEF3FEF4FEF5FE70F
:1008F00004C020E030E040E050E8B901CA012C9685
:10090000E2E00C94BF12A8E0B0E0E9E8F4E00C9457
:100910009B127B018C01611571058105910519F40C
:1009200082E0898360C083E089838EE1C82ED12C68
:10093000DC82CB82ED82FE820F831887C801B7016B
:100940000E94FC04FC013197F7FF3BC022273327AC
:100950002E1B3F0B57016801022E04C0D694C7948A
:10096000B794A7940A94D2F740E050E060E070E0BA
:1009700081E090E0A0E0B0E004C0880F991FAA1FBA
:10098000BB1F2A95D2F70197A109B1098E219F219A
:10099000A023B1230097A105B10521F041E050E06B
:1009A00060E070E04A295B296C297D294D835E83D4
:1009B0006F8378878EE190E08E1B9F0B9C838B83E7
:1009C00012C0309781F00E2E04C0EE0CFF1C001FE9
:1009D000111F0A94D2F7ED82FE820F831887CE1A78
:1009E000DF0ADC82CB821A82CE0101960E944B057F
:1009F0002896EAE00C94B712EF92FF920F931F93A0
:100A00007B018C0180E0E81680E0F80681E00807B1
:100A100080E0180788F48FEFE816F104010511054E
:100A200031F028F088E090E0A0E0B0E017C080E06E
:100A300090E0A0E0B0E012C080E0E81680E0F806A8
:100A400080E0080781E0180728F088E190E0A0E046
:100A5000B0E004C080E190E0A0E0B0E020E230E04F
:100A600040E050E0281B390B4A0B5B0B04C0169585
:100A70000795F794E7948A95D2F7F701E859FF4F65
:100A80008081281B310941095109C9011F910F912A
:100A9000FF90EF900895DF92EF92FF920F931F93D4
:100AA000FC01E480F58006811781D180808182304D
:100AB00048F480E090E0A0E1B0E0E82AF92A0A2BAF
:100AC0001B2BA5C0843009F49FC0823021F4EE2492
:100AD000FF24870105C0E114F1040105110519F493
:100AE000E0E0F0E096C0628173819FEF62387907A1
:100AF0000CF05BC022E83FEF261B370B2A31310593
:100B00002CF020E030E040E050E02AC0B801A7011E
:100B1000022E04C076956795579547950A94D2F7AB
:100B200081E090E0A0E0B0E004C0880F991FAA1F08
:100B3000BB1F2A95D2F70197A109B1098E219F21E8
:100B4000A023B1230097A105B10521F081E090E039
:100B5000A0E0B0E09A01AB01282B392B4A2B5B2B8C
:100B6000DA01C9018F779070A070B0708034910560
:100B7000A105B10539F427FF09C0205C3F4F4F4F55
:100B80005F4F04C0215C3F4F4F4F5F4FE0E0F0E00C
:100B90002030A0E03A07A0E04A07A0E45A0710F08E
:100BA000E1E0F0E079018A0127C06038710564F561
:100BB000FB01E158FF4FD801C7018F779070A070FB
:100BC000B07080349105A105B10539F4E7FE0DC080
:100BD00080E490E0A0E0B0E004C08FE390E0A0E00B
:100BE000B0E0E80EF91E0A1F1B1F17FF05C016957F
:100BF0000795F794E794319687E016950795F79453
:100C0000E7948A95D1F705C0EE24FF248701EFEF22
:100C1000F0E06E2F679566276795902F9F77D794A2
:100C2000DD24D7948E2F8695492F462B582F5D298A
:100C3000B701CA011F910F91FF90EF90DF900895C7
:100C4000FC01DB01408151812281622F6F7770E0CE
:100C5000221F2227221F9381892F880F822B282F62
:100C600030E0991F9927991F11969C931197211590
:100C70003105A9F5411551056105710511F482E0B1
:100C800037C082E89FEF13969C938E9312979A0138
:100C9000AB0167E0220F331F441F551F6A95D1F740
:100CA00083E08C930DC0220F331F441F551F1296F3
:100CB0008D919C911397019713969C938E93129705
:100CC000203080E0380780E0480780E4580758F378
:100CD00014962D933D934D935C93179708952F3F52
:100CE000310579F4411551056105710519F484E068
:100CF0008C93089564FF03C081E08C9312C01C9212
:100D000010C02F57304013963C932E93129783E0D8
:100D10008C9387E0440F551F661F771F8A95D1F784
:100D2000706414964D935D936D937C93179708951B
:100D30001F93DC01FB019C91923008F447C0808135
:100D4000823008F443C0943051F411961C918430E1
:100D500099F58181682F70E0611B71093FC0843073
:100D600021F0923031F48230B9F18181882389F108
:100D70002DC011961C9111978230F1F081811817C6
:100D8000D9F412962D913C91139782819381821709
:100D9000930794F028173907BCF014968D919D9114
:100DA0000D90BC91A02D2481358146815781281753
:100DB00039074A075B0718F4112341F00AC082176C
:100DC0009307A407B50740F4112319F061E070E020
:100DD00005C06FEF7FEF02C060E070E0CB011F91B4
:100DE0000895DF93CF93CDB7DEB7A7E2B0E0E7E297
:100DF000F0E080818F738C93A7E2B0E0E7E2F0E04F
:100E0000808180648C93A7E2B0E0E7E2F0E080812B
:100E10008F7D8C93A7E2B0E0E7E2F0E08081806212
:100E20008C93A6E2B0E0E6E2F0E08081887F8C93CC
:100E3000A6E2B0E0E6E2F0E0808187608C93A6E273
:100E4000B0E0E6E2F0E0808180688C93CF91DF91A2
:100E50000895DF93CF930F92CDB7DEB78983A7E2D2
:100E6000B0E0E7E2F0E08081807E8C93A7E2B0E022
:100E7000E7E2F0E090818981892B8C93A6E2B0E0D3
:100E8000E6E2F0E0808180648C93E6E2F0E080812D
:100E900082958F70882F90E0817090700097A9F3F1
:100EA000A6E2B0E0E6E2F0E0808180618C93E5E2CA
:100EB000F0E08081882F90E00F90CF91DF9108952E
:100EC0001F93DF93CF93CDB7DEB7EA970FB6F894B1
:100ED000DEBF0FBECDBF8AAF80E061E040E00E9480
:100EE000570E8AAD8695182F187780E067E80E9424
:100EF0004F10812B89AF80E069AD0E94690F80E0BF
:100F000062E041E00E94570E80E090E0A0E0B0E493
:100F10008DAB9EABAFABB8AF6DA97EA98FA998ADD5
:100F200020E030E04AEF54E40E941702DC01CB01DC
:100F300089AB9AABABABBCAB69A97AA98BA99CA9CD
:100F400020E030E040E85FE30E94A10388232CF416
:100F500081E090E098AB8FA73FC069A97AA98BA9DF
:100F60009CA920E03FEF4FE757E40E944103181689
:100F70004CF56DA97EA98FA998AD20E030E040E244
:100F800051E40E941702DC01CB01BC01CD010E949B
:100F90004100DC01CB0198AB8FA70FC088EC90E03B
:100FA0009EA78DA78DA59EA50197F1F79EA78DA75A
:100FB0008FA598A9019798AB8FA78FA598A900979F
:100FC00069F714C069A97AA98BA99CA90E9441005C
:100FD000DC01CB0198AB8FA78FA598A99CA78BA705
:100FE0008BA59CA50197F1F79CA78BA780E062E0F9
:100FF00040E00E94570E80E090E0A0EAB0E48FA3AA
:1010000098A7A9A7BAA76FA178A589A59AA520E056
:1010100030E04AEF54E40E941702DC01CB018BA3BD
:101020009CA3ADA3BEA36BA17CA18DA19EA120E03A
:1010300030E040E85FE30E94A10388232CF481E0C4
:1010400090E09AA389A33FC06BA17CA18DA19EA132
:1010500020E03FEF4FE757E40E94410318164CF59C
:101060006FA178A589A59AA520E030E040E251E47F
:101070000E941702DC01CB01BC01CD010E9441009E
:10108000DC01CB019AA389A30FC088EC90E098A360
:101090008F8F8F8D98A10197F1F798A38F8F89A1DA
:1010A0009AA101979AA389A389A19AA1009769F7A8
:1010B00014C06BA17CA18DA19EA10E944100DC0106
:1010C000CB019AA389A389A19AA19E8F8D8F8D8D23
:1010D0009E8D0197F1F79E8F8D8F8AAD882F90E0BE
:1010E000880F991F880F991F880F991F182F80E06C
:1010F00067E80E944F10812B89AF80E069AD0E94A4
:10110000690F80E062E041E00E94570E80E090E0CD
:10111000A0E0B0E4898F9A8FAB8FBC8F698D7A8DF8
:101120008B8D9C8D20E030E04AEF54E40E94170242
:10113000DC01CB018D8B9E8BAF8BB88F6D897E8947
:101140008F89988D20E030E040E85FE30E94A103A2
:1011500088232CF481E090E09C8B8B8B3FC06D89C1
:101160007E898F89988D20E03FEF4FE757E40E94FA
:10117000410318164CF5698D7A8D8B8D9C8D20E07E
:1011800030E040E251E40E941702DC01CB01BC01D7
:10119000CD010E944100DC01CB019C8B8B8B0FC0E9
:1011A00088EC90E09A8B898B89899A890197F1F76D
:1011B0009A8B898B8B899C8901979C8B8B8B8B89D4
:1011C0009C89009769F714C06D897E898F89988DF5
:1011D0000E944100DC01CB019C8B8B8B8B899C890D
:1011E000988B8F878F8598890197F1F7988B8F87D8
:1011F00080E062E040E00E94570E80E090E0A0EACC
:10120000B0E48B879C87AD87BE876B857C858D8599
:101210009E8520E030E04AEF54E40E941702DC0192
:10122000CB018F839887A987BA876F817885898555
:101230009A8520E030E040E85FE30E94A103882324
:101240002CF481E090E09E838D833FC06F81788590
:1012500089859A8520E03FEF4FE757E40E944103DC
:1012600018164CF56B857C858D859E8520E030E0D9
:1012700040E251E40E941702DC01CB01BC01CD0128
:101280000E944100DC01CB019E838D830FC088EC5E
:1012900090E09C838B838B819C810197F1F79C83E9
:1012A0008B838D819E8101979E838D838D819E810D
:1012B000009769F714C06F81788589859A850E94A7
:1012C0004100DC01CB019E838D838D819E819A83B9
:1012D000898389819A810197F1F79A838983EA96B4
:1012E0000FB6F894DEBF0FBECDBFCF91DF911F9137
:1012F00008951F93DF93CF93CDB7DEB7EA970FB66C
:10130000F894DEBF0FBECDBF8AAF80E061E041E060
:101310000E94570E8AAD8695182F187780E067E8EF
:101320000E944F10812B89AF80E069AD0E94690F48
:1013300080E062E041E00E94570E80E090E0A0E093
:10134000B0E48DAB9EABAFABB8AF6DA97EA98FA952
:1013500098AD20E030E04AEF54E40E941702DC012F
:10136000CB0189AB9AABABABBCAB69A97AA98BA912
:101370009CA920E030E040E85FE30E94A1038823BD
:101380002CF481E090E098AB8FA73FC069A97AA9BF
:101390008BA99CA920E03FEF4FE757E40E9441034F
:1013A00018164CF56DA97EA98FA998AD20E030E004
:1013B00040E251E40E941702DC01CB01BC01CD01E7
:1013C0000E944100DC01CB0198AB8FA70FC088ECD5
:1013D00090E09EA78DA78DA59EA50197F1F79EA7EA
:1013E0008DA78FA598A9019798AB8FA78FA598A9CE
:1013F000009769F714C069A97AA98BA99CA90E94D2
:101400004100DC01CB0198AB8FA78FA598A99CA7C1
:101410008BA78BA59CA50197F1F79CA78BA780E0D4
:1014200062E040E00E94570E80E090E0A0EAB0E465
:101430008FA398A7A9A7BAA76FA178A589A59AA5F0
:1014400020E030E04AEF54E40E941702DC01CB01B7
:101450008BA39CA3ADA3BEA36BA17CA18DA19EA1D8
:1014600020E030E040E85FE30E94A10388232CF4F1
:1014700081E090E09AA389A33FC06BA17CA18DA1DC
:101480009EA120E03FEF4FE757E40E94410318166A
:101490004CF56FA178A589A59AA520E030E040E23F
:1014A00051E40E941702DC01CB01BC01CD010E9476
:1014B0004100DC01CB019AA389A30FC088EC90E026
:1014C00098A38F8F8F8D98A10197F1F798A38F8F95
:1014D00089A19AA101979AA389A389A19AA10097AA
:1014E00069F714C06BA17CA18DA19EA10E9441004F
:1014F000DC01CB019AA389A389A19AA19E8F8D8F2C
:101500008D8D9E8D0197F1F79E8F8D8F8AAD882FDF
:1015100090E0880F991F880F991F880F991F182F27
:1015200080E067E80E944F10812B89AF80E069ADB1
:101530000E94690F80E062E041E00E94570E80E067
:1015400090E0A0E0B0E4898F9A8FAB8FBC8F698D5B
:101550007A8D8B8D9C8D20E030E04AEF54E40E9420
:101560001702DC01CB018D8B9E8BAF8BB88F6D8901
:101570007E898F89988D20E030E040E85FE30E940B
:10158000A10388232CF481E090E09C8B8B8B3FC0DF
:101590006D897E898F89988D20E03FEF4FE757E472
:1015A0000E94410318164CF5698D7A8D8B8D9C8DA8
:1015B00020E030E040E251E40E941702DC01CB0160
:1015C000BC01CD010E944100DC01CB019C8B8B8BC7
:1015D0000FC088EC90E09A8B898B89899A89019752
:1015E000F1F79A8B898B8B899C8901979C8B8B8BCC
:1015F0008B899C89009769F714C06D897E898F89D2
:10160000988D0E944100DC01CB019C8B8B8B8B89D8
:101610009C89988B8F878F8598890197F1F7988B94
:101620008F8780E062E040E00E94570E80E090E00B
:10163000A0EAB0E48B879C87AD87BE876B857C85ED
:101640008D859E8520E030E04AEF54E40E94170229
:10165000DC01CB018F839887A987BA876F81788552
:1016600089859A8520E030E040E85FE30E94A1038D
:1016700088232CF481E090E09E838D833FC06F81AE
:10168000788589859A8520E03FEF4FE757E40E94EF
:10169000410318164CF56B857C858D859E8520E071
:1016A00030E040E251E40E941702DC01CB01BC01B2
:1016B000CD010E944100DC01CB019E838D830FC0D0
:1016C00088EC90E09C838B838B819C810197F1F760
:1016D0009C838B838D819E8101979E838D838D81D9
:1016E0009E81009769F714C06F81788589859A85F6
:1016F0000E944100DC01CB019E838D838D819E8100
:101700009A83898389819A810197F1F79A838983E2
:10171000EA960FB6F894DEBF0FBECDBFCF91DF9132
:101720001F910895DF93CF93CDB7DEB72E970FB6F5
:10173000F894DEBF0FBECDBF80E090E0A0E2B2E43F
:101740008B879C87AD87BE876B857C858D859E85C5
:1017500020E030E04AEF54E40E941702DC01CB01A4
:101760008F839887A987BA876F81788589859A85BD
:1017700020E030E040E85FE30E94A10388232CF4DE
:1017800081E090E09E838D833FC06F81788589855D
:101790009A8520E03FEF4FE757E40E944103181677
:1017A0004CF56B857C858D859E8520E030E040E2A0
:1017B00051E40E941702DC01CB01BC01CD010E9463
:1017C0004100DC01CB019E838D830FC088EC90E04B
:1017D0009C838B838B819C810197F1F79C838B8306
:1017E0008D819E8101979E838D838D819E8100973F
:1017F00069F714C06F81788589859A850E944100B8
:10180000DC01CB019E838D838D819E819A838983A8
:1018100089819A810197F1F79A83898383E30E94F2
:10182000600782E30E94600788E20E9460078CE004
:101830000E94600782E00E94600786E00E946007C5
:1018400081E00E9460072E960FB6F894DEBF0FBEAF
:10185000CDBFCF91DF910895DF93CF9300D00F924A
:10186000CDB7DEB79B838A8319820EC08981282F6A
:1018700030E08A819B81FC01E20FF31F80810E948E
:10188000790989818F5F89838981282F30E08A8156
:101890009B81FC01E20FF31F8081882339F70F90B1
:1018A0000F900F90CF91DF910895DF93CF9300D0E9
:1018B0000F92CDB7DEB78A836B8319828A81882322
:1018C00019F48B81898306C08A81813019F48B8158
:1018D000805C8983898180580E9460070F900F90F7
:1018E0000F90CF91DF910895DF93CF93CDB7DEB7FF
:1018F00027970FB6F894DEBF0FBECDBF9C838B83B6
:101900006D834E832F831A828D81882F90E0880FFC
:10191000991F880F991F880F991F8A838A81805C7D
:101920000E94600719820EC08981282F30E08B81C8
:101930009C81FC01E20FF31F80810E94790989815B
:101940008F5F89838981883078F38E816F810E94CF
:10195000550C8D810E94790927960FB6F894DEBF49
:101960000FBECDBFCF91DF9108950F931F93DF93EB
:10197000CF93CDB7DEB76D970FB6F894DEBF0FBE2D
:10198000CDBF6A8F7B8F8C8F9D8F6A8D7B8D8C8D69
:101990009D8D0E942F04DC01CB018A839B83AC8345
:1019A000BD838A819B81AC81BD810097A105B10572
:1019B00021F480E30E94790918C08A819B81AC815F
:1019C000BD81BB2394F48DE20E9479098A819B81B9
:1019D000AC81BD81B095A095909581959F4FAF4FFB
:1019E000BF4F8A839B83AC83BD8384E1FE0136961F
:1019F000DF01982F1D929A95E9F719822FC08981EE
:101A0000082F112707FD10958A819B81AC81BD812C
:101A10002AE030E040E050E0BC01CD010E945612C7
:101A2000DC01CB01282FCE010696FC01E00FF11F4F
:101A300020838A819B81AC81BD812AE030E040E037
:101A400050E0BC01CD010E945612DA01C9018A831F
:101A50009B83AC83BD8389818F5F89838A819B81CE
:101A6000AC81BD810097A105B10549F689818150FE
:101A7000898311C08981282F332727FD3095CE0116
:101A80000696FC01E20FF31F8081805D0E947909B8
:101A90008981815089838981882364F76D960FB687
:101AA000F894DEBF0FBECDBFCF91DF911F910F9194
:101AB0000895DF93CF93CDB7DEB728970FB6F8948C
:101AC000DEBF0FBECDBF6D837E838F8398876D8110
:101AD0007E818F81988520E030E040E050E00E94D8
:101AE0001103882339F460E070E080E090E00E9408
:101AF000B50C7CC06D817E818F8198850E942F04FA
:101B0000DC01CB0189839A83AB83BC8369817A81B1
:101B10008B819C810E94D103DC01CB01BC01CD01F2
:101B20000E94B50C8EE20E94790969817A818B81CD
:101B30009C810E94D1039B01AC016D817E818F81CC
:101B400098850E94B901DC01CB018D839E83AF8310
:101B5000B8876D817E818F81988520E030E543ECE8
:101B600057E40E941702DC01CB018D839E83AF8373
:101B7000B8876D817E818F8198850E942F04DC015A
:101B8000CB0189839A83AB83BC8312C089819A81FC
:101B9000AB81BC812AE030E040E050E0BC01CD01E7
:101BA0000E945612DA01C90189839A83AB83BC83F0
:101BB00089819A81AB81BC812AE030E040E050E02D
:101BC000BC01CD010E945612DC01CB010097A1059A
:101BD000B105E1F269817A818B819C810E94D103F8
:101BE000DC01CB01BC01CD010E94B50C28960FB6DB
:101BF000F894DEBF0FBECDBFCF91DF910895DF9384
:101C0000CF93CDB7DEB781E00E946007CF91DF911F
:101C10000895DF93CF9300D000D00F92CDB7DEB7F9
:101C20008A836B8319828A818430B0F58A81282F58
:101C300030E03D832C838C819D8181309105D1F0F2
:101C40002C813D81223031052CF48C819D810097BF
:101C500061F01FC02C813D812230310581F08C81E3
:101C60009D818330910581F014C0EAE3F0E08B811F
:101C7000808314C0E7E3F0E08B8180830FC0E4E34E
:101C8000F0E08B8180830AC0E1E3F0E08B81808308
:101C900005C081E0898302C081E0898389810F903A
:101CA0000F900F900F900F90CF91DF910895DF93D9
:101CB000CF93CDB7DEB728970FB6F894DEBF0FBE2F
:101CC000CDBF8A836B834C8319828B81883008F067
:101CD000F4C08C81882309F077C08A81282F30E0F6
:101CE00038872F838F8198858130910559F12F8115
:101CF0003885223031052CF48F819885009769F062
:101D000060C02F8138852230310589F18F81988517
:101D10008330910509F440C054C0ABE3B0E0EBE37D
:101D2000F0E08081482F8B81282F30E081E090E027
:101D3000022E02C0880F991F0A94E2F7809584232F
:101D40008C93BDC0A8E3B0E0E8E3F0E08081482FC9
:101D50008B81282F30E081E090E0022E02C0880FB6
:101D6000991F0A94E2F7809584238C93A8C0A5E379
:101D7000B0E0E5E3F0E08081482F8B81282F30E050
:101D800081E090E0022E02C0880F991F0A94E2F7CA
:101D9000809584238C9393C0A2E3B0E0E2E3F0E06B
:101DA0008081482F8B81282F30E081E090E0022E47
:101DB00002C0880F991F0A94E2F7809584238C93C0
:101DC0007EC081E089837BC08C81813009F072C044
:101DD0008A81282F30E03E832D838D819E81813042
:101DE000910549F12D813E81223031052CF48D8100
:101DF0009E81009761F05BC02D813E8122303105CC
:101E000071F18D819E8183309105E9F150C0ABE382
:101E1000B0E0EBE3F0E08081482F8B81282F30E0A9
:101E200081E090E0022E02C0880F991F0A94E2F729
:101E3000842B8C9344C0A8E3B0E0E8E3F0E0808119
:101E4000482F8B81282F30E081E090E0022E02C0E5
:101E5000880F991F0A94E2F7842B8C9330C0A5E376
:101E6000B0E0E5E3F0E08081482F8B81282F30E05F
:101E700081E090E0022E02C0880F991F0A94E2F7D9
:101E8000842B8C931CC0A2E3B0E0E2E3F0E08081FD
:101E9000482F8B81282F30E081E090E0022E02C095
:101EA000880F991F0A94E2F7842B8C9308C081E075
:101EB000898305C081E0898302C081E089838981AB
:101EC00028960FB6F894DEBF0FBECDBFCF91DF913D
:101ED0000895DF93CF9300D000D00F92CDB7DEB737
:101EE0008A836B8319828A818430B0F58A81282F96
:101EF00030E03D832C838C819D8181309105D1F030
:101F00002C813D81223031052CF48C819D810097FC
:101F100061F01FC02C813D812230310581F08C8120
:101F20009D818330910581F014C0EBE3F0E08B815B
:101F3000808314C0E8E3F0E08B8180830FC0E5E389
:101F4000F0E08B8180830AC0E2E3F0E08B81808344
:101F500005C081E0898302C081E0898389810F9077
:101F60000F900F900F900F90CF91DF910895DF9316
:101F7000CF93CDB7DEB727970FB6F894DEBF0FBE6D
:101F8000CDBF8A836B835D834C8319828C819D8155
:101F9000009709F478C08B81883008F074C08A817A
:101FA000282F30E03F832E834E815F8141305105E1
:101FB00059F18E819F818230910534F42E813F81C9
:101FC0002115310569F05CC04E815F8142305105B9
:101FD00079F18E819F818330910509F43DC050C015
:101FE000E9E3F0E08081282F30E08B81882F90E0BA
:101FF000A90102C0559547958A95E2F7CA018170FB
:10200000EC81FD81808341C0E6E3F0E08081282FF0
:1020100030E08B81882F90E0A90102C0559547954B
:102020008A95E2F7CA018170EC81FD8180832DC021
:10203000E3E3F0E08081282F30E08B81882F90E06F
:10204000A90102C0559547958A95E2F7CA018170AA
:10205000EC81FD81808319C0E0E3F0E08081282FCE
:1020600030E08B81882F90E0A90102C055954795FB
:102070008A95E2F7CA018170EC81FD81808305C0F9
:1020800081E0898302C081E08983898127960FB628
:10209000F894DEBF0FBECDBFCF91DF910895DF93DF
:1020A000CF9300D000D00F92CDB7DEB78A836B8379
:1020B00019828A81282F30E03D832C838C819D8179
:1020C00081309105E1F02C813D81223031052CF4E5
:1020D0008C819D81009761F026C02C813D8122304A
:1020E0003105A1F08C819D8183309105B1F01BC039
:1020F000EBE3F0E090818B818923898314C0E8E3CE
:10210000F0E090818B81892389830DC0E5E3F0E0C5
:1021100090818B818923898306C0E2E3F0E090817E
:102120008B818923898389810F900F900F900F9065
:102130000F90CF91DF910895DF93CF93CDB7DEB7A6
:10214000AFE5B0E0EFE5F0E0808180688C93CF915F
:10215000DF910895DF93CF93CDB7DEB7AFE5B0E061
:10216000EFE5F0E080818F778C93CF91DF91089538
:10217000DF93CF93CDB7DEB7EAE3F0E08EEF808355
:10218000E7E3F0E01082E4E3F0E08FEF8083E1E347
:10219000F0E01082EBE3F0E01082E8E3F0E0108280
:1021A000E5E3F0E01082E2E3F0E01082CF91DF910E
:1021B0000895DF93CF93CDB7DEB760970FB6F8944D
:1021C000DEBF0FBECDBF0E94B8100E94920B0E94CE
:1021D000F10680E00E942907988B8F8780E060E0FD
:1021E0000E94550C8F859889CC01A0E0B0E0BC011D
:1021F000CD010E948304DC01CB01BC01CD010E9412
:10220000B50C80E090E0A8E4B3E48B879C87AD87B1
:10221000BE876B857C858D859E8520E030E04AEF0A
:1022200054E40E941702DC01CB018F839887A987B1
:10223000BA876F81788589859A8520E030E040E80B
:102240005FE30E94A10388232CF481E090E09E8349
:102250008D833FC06F81788589859A8520E03FEF27
:102260004FE757E40E94410318164CF56B857C85B7
:102270008D859E8520E030E040E251E40E94170207
:10228000DC01CB01BC01CD010E944100DC01CB018E
:102290009E838D830FC088EC90E09C838B838B8121
:1022A0009C810197F1F79C838B838D819E8101979F
:1022B0009E838D838D819E81009769F714C06F8105
:1022C000788589859A850E944100DC01CB019E8337
:1022D0008D838D819E819A83898389819A810197DB
:1022E000F1F79A8389830E94FF0D8F859889833047
:1022F000910528F482E06FEF0E94690F6ACF8F8505
:1023000098898531910550F482E06FEF0E94690F42
:1023100082E060E040E00E94570E5BCF8F85988995
:102320008232910578F482E06FEF0E94690F82E0BB
:1023300060E040E00E94570E82E061E040E00E94D1
:10234000570E47CF8F8598898D329105A0F482E092
:102350006FEF0E94690F82E060E040E00E94570E3C
:1023600082E061E040E00E94570E82E062E040E0DF
:102370000E94570E2ECF8F85988986339105C8F419
:1023800082E06FEF0E94690F82E060E040E00E940F
:10239000570E82E061E040E00E94570E82E062E06A
:1023A00040E00E94570E82E063E040E00E94570E3A
:1023B00010CF8F8598898E339105F0F482E06FEF0E
:1023C0000E94690F82E060E040E00E94570E82E0C8
:1023D00061E040E00E94570E82E062E040E00E942F
:1023E000570E82E063E040E00E94570E82E064E016
:1023F00040E00E94570EEDCE8F8598898634910576
:1024000018F582E06FEF0E94690F82E060E040E023
:102410000E94570E82E061E040E00E94570E82E089
:1024200062E040E00E94570E82E063E040E00E94DC
:10243000570E82E064E040E00E94570E82E065E0C3
:1024400040E00E94570EC5CE8F8598898D34910546
:1024500040F582E06FEF0E94690F82E060E040E0AB
:102460000E94570E82E061E040E00E94570E82E039
:1024700062E040E00E94570E82E063E040E00E948C
:10248000570E82E064E040E00E94570E82E065E073
:1024900040E00E94570E82E066E040E00E94570E46
:1024A00098CE82E060E00E94690F93CE97FB092EE0
:1024B00005260ED057FD04D014D00AD0001C38F4E5
:1024C00050954095309521953F4F4F4F5F4F089560
:1024D000F6F790958095709561957F4F8F4F9F4F40
:1024E0000895A1E21A2EAA1BBB1BFD010DC0AA1F55
:1024F000BB1FEE1FFF1FA217B307E407F50720F06D
:10250000A21BB30BE40BF50B661F771F881F991FE7
:102510001A9469F760957095809590959B01AC0130
:10252000BD01CF0108952F923F924F925F926F921B
:102530007F928F929F92AF92BF92CF92DF92EF9253
:10254000FF920F931F93CF93DF93CDB7DEB7CA1BD4
:10255000DB0B0FB6F894DEBF0FBECDBF09942A88FF
:10256000398848885F846E847D848C849B84AA84A7
:10257000B984C884DF80EE80FD800C811B81AA8134
:10258000B981CE0FD11D0FB6F894DEBF0FBECDBFFF
:08259000ED010895F894FFCF5E
:102598000000000000000000000102020303030322
:1025A80004040404040404040505050505050505DB
:1025B80005050505050505050606060606060606BB
:1025C80006060606060606060606060606060606A3
:1025D800060606060606060607070707070707078B
:1025E8000707070707070707070707070707070773
:1025F8000707070707070707070707070707070763
:102608000707070707070707070707070707070752
:10261800070707070707070708080808080808083A
:102628000808080808080808080808080808080822
:102638000808080808080808080808080808080812
:102648000808080808080808080808080808080802
:1026580008080808080808080808080808080808F2
:1026680008080808080808080808080808080808E2
:1026780008080808080808080808080808080808D2
:1026880008080808080808080808080808080808C2
:082698000808080808080808FA
:00000001FF
